{
  "abi": [
    {
      "inputs": [],
      "name": "InvalidNullifier",
      "type": "error"
    },
    {
      "anonymous": false,
      "inputs": [
        {
          "indexed": true,
          "internalType": "address",
          "name": "",
          "type": "address"
        },
        {
          "indexed": false,
          "internalType": "address",
          "name": "",
          "type": "address"
        }
      ],
      "name": "AcceptedReferral",
      "type": "event"
    },
    {
      "anonymous": false,
      "inputs": [
        {
          "indexed": false,
          "internalType": "uint8",
          "name": "version",
          "type": "uint8"
        }
      ],
      "name": "Initialized",
      "type": "event"
    },
    {
      "anonymous": false,
      "inputs": [
        {
          "indexed": true,
          "internalType": "address",
          "name": "previousOwner",
          "type": "address"
        },
        {
          "indexed": true,
          "internalType": "address",
          "name": "newOwner",
          "type": "address"
        }
      ],
      "name": "OwnershipTransferred",
      "type": "event"
    },
    {
      "anonymous": false,
      "inputs": [
        {
          "indexed": false,
          "internalType": "address",
          "name": "",
          "type": "address"
        }
      ],
      "name": "ReferrerAdded",
      "type": "event"
    },
    {
      "inputs": [
        {
          "internalType": "address",
          "name": "_referrer",
          "type": "address"
        },
        {
          "internalType": "address",
          "name": "signal",
          "type": "address"
        },
        {
          "internalType": "uint256",
          "name": "root",
          "type": "uint256"
        },
        {
          "internalType": "uint256",
          "name": "nullifierHash",
          "type": "uint256"
        },
        {
          "internalType": "uint256[8]",
          "name": "proof",
          "type": "uint256[8]"
        }
      ],
      "name": "acceptReferral",
      "outputs": [],
      "stateMutability": "nonpayable",
      "type": "function"
    },
    {
      "inputs": [
        {
          "internalType": "address",
          "name": "signal",
          "type": "address"
        },
        {
          "internalType": "uint256",
          "name": "root",
          "type": "uint256"
        },
        {
          "internalType": "uint256",
          "name": "nullifierHash",
          "type": "uint256"
        },
        {
          "internalType": "uint256[8]",
          "name": "proof",
          "type": "uint256[8]"
        }
      ],
      "name": "addReferrer",
      "outputs": [],
      "stateMutability": "nonpayable",
      "type": "function"
    },
    {
      "inputs": [],
      "name": "getTokenBalance",
      "outputs": [
        {
          "internalType": "uint256",
          "name": "tokenBalance",
          "type": "uint256"
        }
      ],
      "stateMutability": "view",
      "type": "function"
    },
    {
      "inputs": [
        {
          "internalType": "address",
          "name": "_manager",
          "type": "address"
        },
        {
          "internalType": "address",
          "name": "_campaignTokenContract",
          "type": "address"
        },
        {
          "internalType": "address",
          "name": "_rewardTokenContract",
          "type": "address"
        },
        {
          "internalType": "uint256",
          "name": "_maxReferralsPerReferrer",
          "type": "uint256"
        },
        {
          "internalType": "uint256",
          "name": "_rewardReferrer",
          "type": "uint256"
        },
        {
          "internalType": "uint256",
          "name": "_rewardReferee",
          "type": "uint256"
        },
        {
          "internalType": "uint256",
          "name": "_minCampaignTokenBalance",
          "type": "uint256"
        },
        {
          "internalType": "contract IWorldID",
          "name": "_worldId",
          "type": "address"
        },
        {
          "internalType": "string",
          "name": "_appId",
          "type": "string"
        },
        {
          "internalType": "string",
          "name": "_actionId",
          "type": "string"
        }
      ],
      "name": "initialize",
      "outputs": [],
      "stateMutability": "nonpayable",
      "type": "function"
    },
    {
      "inputs": [],
      "name": "owner",
      "outputs": [
        {
          "internalType": "address",
          "name": "",
          "type": "address"
        }
      ],
      "stateMutability": "view",
      "type": "function"
    },
    {
      "inputs": [],
      "name": "renounceOwnership",
      "outputs": [],
      "stateMutability": "nonpayable",
      "type": "function"
    },
    {
      "inputs": [],
      "name": "rewardToken",
      "outputs": [
        {
          "internalType": "contract IERC20Or721",
          "name": "",
          "type": "address"
        }
      ],
      "stateMutability": "view",
      "type": "function"
    },
    {
      "inputs": [
        {
          "internalType": "uint16",
          "name": "_chainId",
          "type": "uint16"
        },
        {
          "internalType": "address",
          "name": "_tokenBalanceContract",
          "type": "address"
        }
      ],
      "name": "setChainId",
      "outputs": [],
      "stateMutability": "nonpayable",
      "type": "function"
    },
    {
      "inputs": [
        {
          "internalType": "address",
          "name": "newOwner",
          "type": "address"
        }
      ],
      "name": "transferOwnership",
      "outputs": [],
      "stateMutability": "nonpayable",
      "type": "function"
    },
    {
      "inputs": [
        {
          "internalType": "address",
          "name": "signal",
          "type": "address"
        },
        {
          "internalType": "uint256",
          "name": "root",
          "type": "uint256"
        },
        {
          "internalType": "uint256",
          "name": "nullifierHash",
          "type": "uint256"
        },
        {
          "internalType": "uint256[8]",
          "name": "proof",
          "type": "uint256[8]"
        }
      ],
      "name": "verifyAndExecute",
      "outputs": [],
      "stateMutability": "nonpayable",
      "type": "function"
    }
  ],
  "bytecode": {
    "object": "0x60a0604052600060038190556004556001608052600d805462010000600160b01b03191675fec9ad52da5ecc6e7b18225ec517f57276bfbfdf000017905534801561004957600080fd5b5061005333610058565b6100a8565b600080546001600160a01b038381166001600160a01b0319831681178455604051919092169283917f8be0079c531659141344cd1fd0a4f28419497f9722a3daafe3b4186f6b6457e09190a35050565b6080516113ba6100c3600039600061081a01526113ba6000f3fe608060405234801561001057600080fd5b50600436106100be5760003560e01c8063ce638ccd11610076578063ea6d14331161005b578063ea6d1433146101f3578063f2fde38b14610206578063f7c618c11461021957600080fd5b8063ce638ccd1461014d578063e9b70553146101e057600080fd5b8063825e8bcb116100a7578063825e8bcb146100e057806382b2e257146100f35780638da5cb5b1461010e57600080fd5b8063715018a6146100c357806371c9bd16146100cd575b600080fd5b6100cb610239565b005b6100cb6100db366004610fc1565b61024d565b6100cb6100ee3660046110e5565b610322565b6100fb6106c7565b6040519081526020015b60405180910390f35b60005473ffffffffffffffffffffffffffffffffffffffff165b60405173ffffffffffffffffffffffffffffffffffffffff9091168152602001610105565b6100cb61015b3660046111b4565b600d80547fffffffffffffffffffffffffffffffffffffffffffffffffffffffffffff00001661ffff93909316928317905560009182526010602052604090912080547fffffffffffffffffffffffff00000000000000000000000000000000000000001673ffffffffffffffffffffffffffffffffffffffff909216919091179055565b6100cb6101ee366004610fc1565b61077c565b6100cb6102013660046111f4565b6108d8565b6100cb610214366004611251565b610d77565b6001546101289073ffffffffffffffffffffffffffffffffffffffff1681565b610241610e2e565b61024b6000610eaf565b565b336000908152600f6020526040902054156102c9576040517f08c379a000000000000000000000000000000000000000000000000000000000815260206004820152601c60248201527f526566657272657220616c726561647920726567697374657265642e0000000060448201526064015b60405180910390fd5b6102d58484848461077c565b336000818152600f60209081526040918290206001905590519182527f51e6bb66cce1aac9478cbafcad3421bf2a600ce8ec3874296c671ab32c68ce92910160405180910390a150505050565b6000547501000000000000000000000000000000000000000000900460ff161580801561036d575060005460017401000000000000000000000000000000000000000090910460ff16105b8061039f5750303b15801561039f575060005474010000000000000000000000000000000000000000900460ff166001145b61042b576040517f08c379a000000000000000000000000000000000000000000000000000000000815260206004820152602e60248201527f496e697469616c697a61626c653a20636f6e747261637420697320616c72656160448201527f647920696e697469616c697a656400000000000000000000000000000000000060648201526084016102c0565b600080547fffffffffffffffffffffff00ffffffffffffffffffffffffffffffffffffffff167401000000000000000000000000000000000000000017905580156104b157600080547fffffffffffffffffffff00ffffffffffffffffffffffffffffffffffffffffff1675010000000000000000000000000000000000000000001790555b73ffffffffffffffffffffffffffffffffffffffff8916610553576040517f08c379a0000000000000000000000000000000000000000000000000000000008152602060048201526024808201527f5f726577617264546f6b656e436f6e7472616374206d7573742062652064656660448201527f696e65640000000000000000000000000000000000000000000000000000000060648201526084016102c0565b6001805473ffffffffffffffffffffffffffffffffffffffff808c167fffffffffffffffffffffffff00000000000000000000000000000000000000009283168117909355600280548f831690841617905560058054918e1691831691909117905560078054909116909117905560088890556009879055600a869055600685905560405161061490610602906105ee908690602001611299565b604051602081830303815290604052610f24565b836040516020016105ee9291906112b5565b600c55600b80547fffffffffffffffffffffffff00000000000000000000000000000000000000001673ffffffffffffffffffffffffffffffffffffffff861617905580156106ba57600080547fffffffffffffffffffff00ffffffffffffffffffffffffffffffffffffffffff169055604051600181527f7f26b83ff96e1f2b6a682f133852f6798a09c465da95921460cefb38474024989060200160405180910390a15b5050505050505050505050565b600d546005546040517f99f0475d00000000000000000000000000000000000000000000000000000000815233600482015273ffffffffffffffffffffffffffffffffffffffff918216602482015261ffff83166044820152600092620100009004909116906399f0475d90606401602060405180830381865afa158015610753573d6000803e3d6000fd5b505050506040513d601f19601f8201168201806040525081019061077791906112db565b905090565b6000828152600e602052604090205460ff16156107c5576040517f5d904cb200000000000000000000000000000000000000000000000000000000815260040160405180910390fd5b600b546040517fffffffffffffffffffffffffffffffffffffffff000000000000000000000000606087901b16602082015273ffffffffffffffffffffffffffffffffffffffff90911690633bc778e39085907f000000000000000000000000000000000000000000000000000000000000000090610846906034016105ee565b86600c54876040518763ffffffff1660e01b815260040161086c969594939291906112f4565b60006040518083038186803b15801561088457600080fd5b505afa158015610898573d6000803e3d6000fd5b50505060009283525050600e6020526040902080547fffffffffffffffffffffffffffffffffffffffffffffffffffffffffffffff001660011790555050565b73ffffffffffffffffffffffffffffffffffffffff85166000908152600f6020526040902054339061098c576040517f08c379a000000000000000000000000000000000000000000000000000000000815260206004820152602d60248201527f5265666572726572206973206e6f74207265676973746572656420666f72207460448201527f6869732063616d706169676e2e0000000000000000000000000000000000000060648201526084016102c0565b60085473ffffffffffffffffffffffffffffffffffffffff87166000908152600f60205260409020541115610a43576040517f08c379a000000000000000000000000000000000000000000000000000000000815260206004820152602b60248201527f52656665727265722068617320616c726561647920636c61696d656420616c6c60448201527f20726566657272616c732e00000000000000000000000000000000000000000060648201526084016102c0565b600d546005546040517f99f0475d00000000000000000000000000000000000000000000000000000000815233600482015273ffffffffffffffffffffffffffffffffffffffff918216602482015261ffff83166044820152600092620100009004909116906399f0475d90606401602060405180830381865afa158015610acf573d6000803e3d6000fd5b505050506040513d601f19601f82011682018060405250810190610af391906112db565b9050600654811015610b87576040517f08c379a000000000000000000000000000000000000000000000000000000000815260206004820152603960248201527f526566657272656520646f6573206e6f74206861766520656e6f75676820636160448201527f6d706169676e20746f6b656e7320746f207175616c6966792e0000000000000060648201526084016102c0565b610b938686868661077c565b73ffffffffffffffffffffffffffffffffffffffff87166000908152600f60205260408120805491610bc48361132c565b90915550506001546002546009546040517f23b872dd00000000000000000000000000000000000000000000000000000000815273ffffffffffffffffffffffffffffffffffffffff92831660048201528a8316602482015260448101919091529116906323b872dd906064016020604051808303816000875af1158015610c50573d6000803e3d6000fd5b505050506040513d601f19601f82011682018060405250810190610c74919061138b565b50600154600254600a546040517f23b872dd00000000000000000000000000000000000000000000000000000000815273ffffffffffffffffffffffffffffffffffffffff9283166004820152858316602482015260448101919091529116906323b872dd906064016020604051808303816000875af1158015610cfc573d6000803e3d6000fd5b505050506040513d601f19601f82011682018060405250810190610d20919061138b565b5060405173ffffffffffffffffffffffffffffffffffffffff88811682528316907fa210dbb8c2909935d210f02b66dcf95102c65f568cf1a504024641a45165724f9060200160405180910390a250505050505050565b610d7f610e2e565b73ffffffffffffffffffffffffffffffffffffffff8116610e22576040517f08c379a000000000000000000000000000000000000000000000000000000000815260206004820152602660248201527f4f776e61626c653a206e6577206f776e657220697320746865207a65726f206160448201527f646472657373000000000000000000000000000000000000000000000000000060648201526084016102c0565b610e2b81610eaf565b50565b60005473ffffffffffffffffffffffffffffffffffffffff16331461024b576040517f08c379a000000000000000000000000000000000000000000000000000000000815260206004820181905260248201527f4f776e61626c653a2063616c6c6572206973206e6f7420746865206f776e657260448201526064016102c0565b6000805473ffffffffffffffffffffffffffffffffffffffff8381167fffffffffffffffffffffffff0000000000000000000000000000000000000000831681178455604051919092169283917f8be0079c531659141344cd1fd0a4f28419497f9722a3daafe3b4186f6b6457e09190a35050565b6000600882604051602001610f399190611299565b604080517fffffffffffffffffffffffffffffffffffffffffffffffffffffffffffffffe08184030181529190528051602090910120901c92915050565b73ffffffffffffffffffffffffffffffffffffffff81168114610e2b57600080fd5b8035610fa481610f77565b919050565b806101008101831015610fbb57600080fd5b92915050565b6000806000806101608587031215610fd857600080fd5b8435610fe381610f77565b935060208501359250604085013591506110008660608701610fa9565b905092959194509250565b7f4e487b7100000000000000000000000000000000000000000000000000000000600052604160045260246000fd5b600082601f83011261104b57600080fd5b813567ffffffffffffffff808211156110665761106661100b565b604051601f83017fffffffffffffffffffffffffffffffffffffffffffffffffffffffffffffffe0908116603f011681019082821181831017156110ac576110ac61100b565b816040528381528660208588010111156110c557600080fd5b836020870160208301376000602085830101528094505050505092915050565b6000806000806000806000806000806101408b8d03121561110557600080fd5b61110e8b610f99565b995061111c60208c01610f99565b985061112a60408c01610f99565b975060608b0135965060808b0135955060a08b0135945060c08b0135935061115460e08c01610f99565b92506101008b013567ffffffffffffffff8082111561117257600080fd5b61117e8e838f0161103a565b93506101208d013591508082111561119557600080fd5b506111a28d828e0161103a565b9150509295989b9194979a5092959850565b600080604083850312156111c757600080fd5b823561ffff811681146111d957600080fd5b915060208301356111e981610f77565b809150509250929050565b6000806000806000610180868803121561120d57600080fd5b853561121881610f77565b9450602086013561122881610f77565b935060408601359250606086013591506112458760808801610fa9565b90509295509295909350565b60006020828403121561126357600080fd5b813561126e81610f77565b9392505050565b60005b83811015611290578181015183820152602001611278565b50506000910152565b600082516112ab818460208701611275565b9190910192915050565b828152600082516112cd816020850160208701611275565b919091016020019392505050565b6000602082840312156112ed57600080fd5b5051919050565b60006101a0820190508782528660208301528560408301528460608301528360808301526101008360a0840137979650505050505050565b60007fffffffffffffffffffffffffffffffffffffffffffffffffffffffffffffffff8203611384577f4e487b7100000000000000000000000000000000000000000000000000000000600052601160045260246000fd5b5060010190565b60006020828403121561139d57600080fd5b8151801515811461126e57600080fdfea164736f6c6343000813000a",
    "linkReferences": {}
  },
  "methodIdentifiers": {
    "acceptReferral(address,address,uint256,uint256,uint256[8])": "ea6d1433",
    "addReferrer(address,uint256,uint256,uint256[8])": "71c9bd16",
    "getTokenBalance()": "82b2e257",
    "initialize(address,address,address,uint256,uint256,uint256,uint256,address,string,string)": "825e8bcb",
    "owner()": "8da5cb5b",
    "renounceOwnership()": "715018a6",
    "rewardToken()": "f7c618c1",
    "setChainId(uint16,address)": "ce638ccd",
    "transferOwnership(address)": "f2fde38b",
    "verifyAndExecute(address,uint256,uint256,uint256[8])": "e9b70553"
  },
  "id": 11
}