{
  "abi": [
    {
      "inputs": [],
      "stateMutability": "nonpayable",
      "type": "constructor"
    },
    {
      "anonymous": false,
      "inputs": [
        {
          "indexed": true,
          "internalType": "address",
          "name": "",
          "type": "address"
        },
        {
          "indexed": false,
          "internalType": "address",
          "name": "",
          "type": "address"
        }
      ],
      "name": "CampaignCreated",
      "type": "event"
    },
    {
      "inputs": [
        {
          "internalType": "address",
          "name": "_campaignTokenContract",
          "type": "address"
        },
        {
          "internalType": "address",
          "name": "_rewardTokenContract",
          "type": "address"
        },
        {
          "internalType": "uint256",
          "name": "_maxReferralsPerReferrer",
          "type": "uint256"
        },
        {
          "internalType": "uint256",
          "name": "_rewardReferrer",
          "type": "uint256"
        },
        {
          "internalType": "uint256",
          "name": "_rewardReferee",
          "type": "uint256"
        },
        {
          "internalType": "uint256",
          "name": "_minCampaignTokenBalance",
          "type": "uint256"
        }
      ],
      "name": "addCampaign",
      "outputs": [
        {
          "internalType": "address",
          "name": "",
          "type": "address"
        }
      ],
      "stateMutability": "payable",
      "type": "function"
    },
    {
      "inputs": [
        {
          "internalType": "address",
          "name": "_manager",
          "type": "address"
        }
      ],
      "name": "getCampaigns",
      "outputs": [
        {
          "internalType": "address[]",
          "name": "campaignAddresses",
          "type": "address[]"
        }
      ],
      "stateMutability": "view",
      "type": "function"
    }
  ],
  "bytecode": {
    "object": "0x60a060405234801561001057600080fd5b5060405161001d9061004b565b604051809103906000f080158015610039573d6000803e3d6000fd5b506001600160a01b0316608052610058565b610c9e806108d283390190565b60805161085f6100736000396000610247015261085f6000f3fe6080604052600436106100295760003560e01c80631693bfa11461002e578063da2427ce14610064575b600080fd5b34801561003a57600080fd5b5061004e6100493660046106c4565b61009c565b60405161005b91906106e6565b60405180910390f35b610077610072366004610740565b61023f565b60405173ffffffffffffffffffffffffffffffffffffffff909116815260200161005b565b73ffffffffffffffffffffffffffffffffffffffff8116600090815260208181526040808320805482518185028101850190935280835260609493849084015b82821015610176576000848152602090819020604080516101008101825260088602909201805473ffffffffffffffffffffffffffffffffffffffff90811684526001808301548216858701526002830154821693850193909352600382015416606084015260048101546080840152600581015460a0840152600681015460c08401526007015460e083015290835290920191016100dc565b505082519293508291505067ffffffffffffffff81111561019957610199610795565b6040519080825280602002602001820160405280156101c2578160200160208202803683370190505b50925060005b81811015610237578281815181106101e2576101e26107c4565b602002602001015160000151848281518110610200576102006107c4565b73ffffffffffffffffffffffffffffffffffffffff909216602092830291909101909101528061022f816107f3565b9150506101c8565b505050919050565b60008061026b7f00000000000000000000000000000000000000000000000000000000000000006105d4565b6040517f2b4656c800000000000000000000000000000000000000000000000000000000815233600482015273ffffffffffffffffffffffffffffffffffffffff8a811660248301528981166044830152606482018990526084820188905260a4820187905260c4820186905291925090821690632b4656c89060e401600060405180830381600087803b15801561030257600080fd5b505af1158015610316573d6000803e3d6000fd5b5050505060006040518061010001604052808373ffffffffffffffffffffffffffffffffffffffff1681526020013373ffffffffffffffffffffffffffffffffffffffff1681526020018a73ffffffffffffffffffffffffffffffffffffffff1681526020018973ffffffffffffffffffffffffffffffffffffffff1681526020018881526020018781526020018681526020018581525090506000803373ffffffffffffffffffffffffffffffffffffffff1673ffffffffffffffffffffffffffffffffffffffff16815260200190815260200160002081908060018154018082558091505060019003906000526020600020906008020160009091909190915060008201518160000160006101000a81548173ffffffffffffffffffffffffffffffffffffffff021916908373ffffffffffffffffffffffffffffffffffffffff16021790555060208201518160010160006101000a81548173ffffffffffffffffffffffffffffffffffffffff021916908373ffffffffffffffffffffffffffffffffffffffff16021790555060408201518160020160006101000a81548173ffffffffffffffffffffffffffffffffffffffff021916908373ffffffffffffffffffffffffffffffffffffffff16021790555060608201518160030160006101000a81548173ffffffffffffffffffffffffffffffffffffffff021916908373ffffffffffffffffffffffffffffffffffffffff1602179055506080820151816004015560a0820151816005015560c0820151816006015560e0820151816007015550503373ffffffffffffffffffffffffffffffffffffffff167f6056366dba45431fd6a8854ad9f2594942b02c4f2c3f6fbc329b3079b027b8b4836040516105c0919073ffffffffffffffffffffffffffffffffffffffff91909116815260200190565b60405180910390a250979650505050505050565b6000763d602d80600a3d3981f3363d3d373d3d3d363d730000008260601b60e81c176000526e5af43d82803e903d91602b57fd5bf38260781b17602052603760096000f0905073ffffffffffffffffffffffffffffffffffffffff811661069b576040517f08c379a000000000000000000000000000000000000000000000000000000000815260206004820152601660248201527f455243313136373a20637265617465206661696c656400000000000000000000604482015260640160405180910390fd5b919050565b803573ffffffffffffffffffffffffffffffffffffffff8116811461069b57600080fd5b6000602082840312156106d657600080fd5b6106df826106a0565b9392505050565b6020808252825182820181905260009190848201906040850190845b8181101561073457835173ffffffffffffffffffffffffffffffffffffffff1683529284019291840191600101610702565b50909695505050505050565b60008060008060008060c0878903121561075957600080fd5b610762876106a0565b9550610770602088016106a0565b95989597505050506040840135936060810135936080820135935060a0909101359150565b7f4e487b7100000000000000000000000000000000000000000000000000000000600052604160045260246000fd5b7f4e487b7100000000000000000000000000000000000000000000000000000000600052603260045260246000fd5b60007fffffffffffffffffffffffffffffffffffffffffffffffffffffffffffffffff820361084b577f4e487b7100000000000000000000000000000000000000000000000000000000600052601160045260246000fd5b506001019056fea164736f6c6343000813000a608060405234801561001057600080fd5b5061001a3361001f565b61006f565b600080546001600160a01b038381166001600160a01b0319831681178455604051919092169283917f8be0079c531659141344cd1fd0a4f28419497f9722a3daafe3b4186f6b6457e09190a35050565b610c208061007e6000396000f3fe608060405234801561001057600080fd5b506004361061007d5760003560e01c8063715018a61161005b578063715018a6146100b25780638da5cb5b146100ba578063f2fde38b146100fd578063f7c618c11461011057600080fd5b806326a1a480146100825780632b4656c81461009757806337542d10146100aa575b600080fd5b610095610090366004610aef565b610130565b005b6100956100a5366004610b11565b61044f565b610095610845565b610095610905565b60005473ffffffffffffffffffffffffffffffffffffffff165b60405173ffffffffffffffffffffffffffffffffffffffff909116815260200160405180910390f35b61009561010b366004610aef565b610919565b6001546100d49073ffffffffffffffffffffffffffffffffffffffff1681565b73ffffffffffffffffffffffffffffffffffffffff811660009081526009602052604090205433906101e9576040517f08c379a000000000000000000000000000000000000000000000000000000000815260206004820152602d60248201527f5265666572726572206973206e6f74207265676973746572656420666f72207460448201527f6869732063616d706169676e2e0000000000000000000000000000000000000060648201526084015b60405180910390fd5b60065473ffffffffffffffffffffffffffffffffffffffff831660009081526009602052604090205411156102a0576040517f08c379a000000000000000000000000000000000000000000000000000000000815260206004820152602b60248201527f52656665727265722068617320616c726561647920636c61696d656420616c6c60448201527f20726566657272616c732e00000000000000000000000000000000000000000060648201526084016101e0565b6003546040517f70a0823100000000000000000000000000000000000000000000000000000000815233600482015260009173ffffffffffffffffffffffffffffffffffffffff16906370a0823190602401602060405180830381865afa15801561030f573d6000803e3d6000fd5b505050506040513d601f19601f820116820180604052508101906103339190610b79565b90506004548110156103c7576040517f08c379a000000000000000000000000000000000000000000000000000000000815260206004820152603960248201527f526566657272656520646f6573206e6f74206861766520656e6f75676820636160448201527f6d706169676e20746f6b656e7320746f207175616c6966792e0000000000000060648201526084016101e0565b73ffffffffffffffffffffffffffffffffffffffff831660009081526009602052604081208054916103f883610b92565b909155505060405173ffffffffffffffffffffffffffffffffffffffff84811682528316907fa210dbb8c2909935d210f02b66dcf95102c65f568cf1a504024641a45165724f9060200160405180910390a2505050565b6000547501000000000000000000000000000000000000000000900460ff161580801561049a575060005460017401000000000000000000000000000000000000000090910460ff16105b806104cc5750303b1580156104cc575060005474010000000000000000000000000000000000000000900460ff166001145b610558576040517f08c379a000000000000000000000000000000000000000000000000000000000815260206004820152602e60248201527f496e697469616c697a61626c653a20636f6e747261637420697320616c72656160448201527f647920696e697469616c697a656400000000000000000000000000000000000060648201526084016101e0565b600080547fffffffffffffffffffffff00ffffffffffffffffffffffffffffffffffffffff167401000000000000000000000000000000000000000017905580156105de57600080547fffffffffffffffffffff00ffffffffffffffffffffffffffffffffffffffffff1675010000000000000000000000000000000000000000001790555b73ffffffffffffffffffffffffffffffffffffffff8616610680576040517f08c379a0000000000000000000000000000000000000000000000000000000008152602060048201526024808201527f5f726577617264546f6b656e436f6e7472616374206d7573742062652064656660448201527f696e65640000000000000000000000000000000000000000000000000000000060648201526084016101e0565b600180547fffffffffffffffffffffffff00000000000000000000000000000000000000001673ffffffffffffffffffffffffffffffffffffffff88169081179091556040517f095ea7b30000000000000000000000000000000000000000000000000000000081523060048201527fffffffffffffffffffffffffffffffffffffffffffffffffffffffffffffffff602482015263095ea7b3906044016020604051808303816000875af115801561073d573d6000803e3d6000fd5b505050506040513d601f19601f820116820180604052508101906107619190610bf1565b506002805473ffffffffffffffffffffffffffffffffffffffff808b167fffffffffffffffffffffffff000000000000000000000000000000000000000092831617909255600380548a841690831617905560058054928916929091169190911790556006859055600784905560088390556004829055801561083b57600080547fffffffffffffffffffff00ffffffffffffffffffffffffffffffffffffffffff169055604051600181527f7f26b83ff96e1f2b6a682f133852f6798a09c465da95921460cefb38474024989060200160405180910390a15b5050505050505050565b33600090815260096020526040902054156108bc576040517f08c379a000000000000000000000000000000000000000000000000000000000815260206004820152601c60248201527f526566657272657220616c726561647920726567697374657265642e0000000060448201526064016101e0565b336000818152600960209081526040918290206001905590519182527f51e6bb66cce1aac9478cbafcad3421bf2a600ce8ec3874296c671ab32c68ce92910160405180910390a1565b61090d6109d0565b6109176000610a51565b565b6109216109d0565b73ffffffffffffffffffffffffffffffffffffffff81166109c4576040517f08c379a000000000000000000000000000000000000000000000000000000000815260206004820152602660248201527f4f776e61626c653a206e6577206f776e657220697320746865207a65726f206160448201527f646472657373000000000000000000000000000000000000000000000000000060648201526084016101e0565b6109cd81610a51565b50565b60005473ffffffffffffffffffffffffffffffffffffffff163314610917576040517f08c379a000000000000000000000000000000000000000000000000000000000815260206004820181905260248201527f4f776e61626c653a2063616c6c6572206973206e6f7420746865206f776e657260448201526064016101e0565b6000805473ffffffffffffffffffffffffffffffffffffffff8381167fffffffffffffffffffffffff0000000000000000000000000000000000000000831681178455604051919092169283917f8be0079c531659141344cd1fd0a4f28419497f9722a3daafe3b4186f6b6457e09190a35050565b803573ffffffffffffffffffffffffffffffffffffffff81168114610aea57600080fd5b919050565b600060208284031215610b0157600080fd5b610b0a82610ac6565b9392505050565b600080600080600080600060e0888a031215610b2c57600080fd5b610b3588610ac6565b9650610b4360208901610ac6565b9550610b5160408901610ac6565b969995985095966060810135965060808101359560a0820135955060c0909101359350915050565b600060208284031215610b8b57600080fd5b5051919050565b60007fffffffffffffffffffffffffffffffffffffffffffffffffffffffffffffffff8203610bea577f4e487b7100000000000000000000000000000000000000000000000000000000600052601160045260246000fd5b5060010190565b600060208284031215610c0357600080fd5b81518015158114610b0a57600080fdfea164736f6c6343000813000a",
    "linkReferences": {}
  },
  "methodIdentifiers": {
    "addCampaign(address,address,uint256,uint256,uint256,uint256)": "da2427ce",
    "getCampaigns(address)": "1693bfa1"
  },
  "id": 8
}