{
  "abi": [
    {
      "inputs": [],
      "stateMutability": "nonpayable",
      "type": "constructor"
    },
    {
      "anonymous": false,
      "inputs": [
        {
          "indexed": true,
          "internalType": "address",
          "name": "",
          "type": "address"
        },
        {
          "indexed": false,
          "internalType": "address",
          "name": "",
          "type": "address"
        }
      ],
      "name": "CampaignCreated",
      "type": "event"
    },
    {
      "inputs": [
        {
          "internalType": "address",
          "name": "_campaignTokenContract",
          "type": "address"
        },
        {
          "internalType": "address",
          "name": "_rewardTokenContract",
          "type": "address"
        },
        {
          "internalType": "uint256",
          "name": "_maxReferralsPerReferrer",
          "type": "uint256"
        },
        {
          "internalType": "uint256",
          "name": "_rewardReferrer",
          "type": "uint256"
        },
        {
          "internalType": "uint256",
          "name": "_rewardReferee",
          "type": "uint256"
        },
        {
          "internalType": "uint256",
          "name": "_minCampaignTokenBalance",
          "type": "uint256"
        },
        {
          "internalType": "string",
          "name": "_actionId",
          "type": "string"
        }
      ],
      "name": "addCampaign",
      "outputs": [
        {
          "internalType": "address",
          "name": "",
          "type": "address"
        }
      ],
      "stateMutability": "payable",
      "type": "function"
    },
    {
      "inputs": [
        {
          "internalType": "address",
          "name": "_manager",
          "type": "address"
        }
      ],
      "name": "getCampaigns",
      "outputs": [
        {
          "internalType": "address[]",
          "name": "campaignAddresses",
          "type": "address[]"
        }
      ],
      "stateMutability": "view",
      "type": "function"
    }
  ],
  "bytecode": {
    "object": "0x600080546001600160a01b03191673515f06b36e6d3b707eaecbded18d8b384944c87f179055610100604052602c60a08181529062001f5d60c03960019062000049908262000149565b503480156200005757600080fd5b50604051620000669062000096565b604051809103906000f08015801562000083573d6000803e3d6000fd5b506001600160a01b031660805262000215565b6112618062000cfc83390190565b634e487b7160e01b600052604160045260246000fd5b600181811c90821680620000cf57607f821691505b602082108103620000f057634e487b7160e01b600052602260045260246000fd5b50919050565b601f8211156200014457600081815260208120601f850160051c810160208610156200011f5750805b601f850160051c820191505b8181101562000140578281556001016200012b565b5050505b505050565b81516001600160401b03811115620001655762000165620000a4565b6200017d81620001768454620000ba565b84620000f6565b602080601f831160018114620001b557600084156200019c5750858301515b600019600386901b1c1916600185901b17855562000140565b600085815260208120601f198616915b82811015620001e657888601518255948401946001909101908401620001c5565b5085821015620002055787850151600019600388901b60f8161c191681555b5050505050600190811b01905550565b608051610acb6200023160003960006102490152610acb6000f3fe6080604052600436106100295760003560e01c80631693bfa11461002e57806346183f0514610064575b600080fd5b34801561003a57600080fd5b5061004e6100493660046106b8565b61009c565b60405161005b91906106da565b60405180910390f35b610077610072366004610763565b610241565b60405173ffffffffffffffffffffffffffffffffffffffff909116815260200161005b565b73ffffffffffffffffffffffffffffffffffffffff81166000908152600260209081526040808320805482518185028101850190935280835260609493849084015b82821015610178576000848152602090819020604080516101008101825260088602909201805473ffffffffffffffffffffffffffffffffffffffff90811684526001808301548216858701526002830154821693850193909352600382015416606084015260048101546080840152600581015460a0840152600681015460c08401526007015460e083015290835290920191016100de565b505082519293508291505067ffffffffffffffff81111561019b5761019b610734565b6040519080825280602002602001820160405280156101c4578160200160208202803683370190505b50925060005b81811015610239578281815181106101e4576101e461087a565b6020026020010151600001518482815181106102025761020261087a565b73ffffffffffffffffffffffffffffffffffffffff9092166020928302919091019091015280610231816108a9565b9150506101ca565b505050919050565b60008061026d7f00000000000000000000000000000000000000000000000000000000000000006105c8565b6000546040517f825e8bcb00000000000000000000000000000000000000000000000000000000815291925073ffffffffffffffffffffffffffffffffffffffff8084169263825e8bcb926102da9233928f928f928f928f928f928f929116906001908f9060040161096c565b600060405180830381600087803b1580156102f457600080fd5b505af1158015610308573d6000803e3d6000fd5b5050505060006040518061010001604052808373ffffffffffffffffffffffffffffffffffffffff1681526020013373ffffffffffffffffffffffffffffffffffffffff1681526020018b73ffffffffffffffffffffffffffffffffffffffff1681526020018a73ffffffffffffffffffffffffffffffffffffffff168152602001898152602001888152602001878152602001868152509050600260003373ffffffffffffffffffffffffffffffffffffffff1673ffffffffffffffffffffffffffffffffffffffff16815260200190815260200160002081908060018154018082558091505060019003906000526020600020906008020160009091909190915060008201518160000160006101000a81548173ffffffffffffffffffffffffffffffffffffffff021916908373ffffffffffffffffffffffffffffffffffffffff16021790555060208201518160010160006101000a81548173ffffffffffffffffffffffffffffffffffffffff021916908373ffffffffffffffffffffffffffffffffffffffff16021790555060408201518160020160006101000a81548173ffffffffffffffffffffffffffffffffffffffff021916908373ffffffffffffffffffffffffffffffffffffffff16021790555060608201518160030160006101000a81548173ffffffffffffffffffffffffffffffffffffffff021916908373ffffffffffffffffffffffffffffffffffffffff1602179055506080820151816004015560a0820151816005015560c0820151816006015560e0820151816007015550503373ffffffffffffffffffffffffffffffffffffffff167f6056366dba45431fd6a8854ad9f2594942b02c4f2c3f6fbc329b3079b027b8b4836040516105b3919073ffffffffffffffffffffffffffffffffffffffff91909116815260200190565b60405180910390a25098975050505050505050565b6000763d602d80600a3d3981f3363d3d373d3d3d363d730000008260601b60e81c176000526e5af43d82803e903d91602b57fd5bf38260781b17602052603760096000f0905073ffffffffffffffffffffffffffffffffffffffff811661068f576040517f08c379a000000000000000000000000000000000000000000000000000000000815260206004820152601660248201527f455243313136373a20637265617465206661696c656400000000000000000000604482015260640160405180910390fd5b919050565b803573ffffffffffffffffffffffffffffffffffffffff8116811461068f57600080fd5b6000602082840312156106ca57600080fd5b6106d382610694565b9392505050565b6020808252825182820181905260009190848201906040850190845b8181101561072857835173ffffffffffffffffffffffffffffffffffffffff16835292840192918401916001016106f6565b50909695505050505050565b7f4e487b7100000000000000000000000000000000000000000000000000000000600052604160045260246000fd5b600080600080600080600060e0888a03121561077e57600080fd5b61078788610694565b965061079560208901610694565b955060408801359450606088013593506080880135925060a0880135915060c088013567ffffffffffffffff808211156107ce57600080fd5b818a0191508a601f8301126107e257600080fd5b8135818111156107f4576107f4610734565b604051601f82017fffffffffffffffffffffffffffffffffffffffffffffffffffffffffffffffe0908116603f0116810190838211818310171561083a5761083a610734565b816040528281528d602084870101111561085357600080fd5b82602086016020830137600060208483010152809550505050505092959891949750929550565b7f4e487b7100000000000000000000000000000000000000000000000000000000600052603260045260246000fd5b60007fffffffffffffffffffffffffffffffffffffffffffffffffffffffffffffffff8203610901577f4e487b7100000000000000000000000000000000000000000000000000000000600052601160045260246000fd5b5060010190565b6000815180845260005b8181101561092e57602081850181015186830182015201610912565b5060006020828601015260207fffffffffffffffffffffffffffffffffffffffffffffffffffffffffffffffe0601f83011685010191505092915050565b600061014073ffffffffffffffffffffffffffffffffffffffff808e1684526020818e1681860152818d1660408601528b60608601528a60808601528960a08601528860c086015281881660e08601528261010086015260009150865482600182811c9150808316806109e057607f831692505b8483108103610a16577f4e487b710000000000000000000000000000000000000000000000000000000086526022600452602486fd5b95880182815260200195808015610a345760018114610a6857610a93565b7fffffffffffffffffffffffffffffffffffffffffffffffffffffffffffffff008516885283151560051b88019650610a93565b60008c81526020902060005b85811015610a8d5781548a820152908401908701610a74565b89019750505b505050505050838103610120850152610aac8186610908565b9e9d505050505050505050505050505056fea164736f6c6343000813000a60a060405260006003819055600455600160805234801561001f57600080fd5b506100293361002e565b61007e565b600080546001600160a01b038381166001600160a01b0319831681178455604051919092169283917f8be0079c531659141344cd1fd0a4f28419497f9722a3daafe3b4186f6b6457e09190a35050565b6080516111c8610099600039600061068501526111c86000f3fe608060405234801561001057600080fd5b50600436106100885760003560e01c8063e9b705531161005b578063e9b7055314610100578063ea6d143314610113578063f2fde38b14610126578063f7c618c11461013957600080fd5b8063715018a61461008d57806371c9bd1614610097578063825e8bcb146100aa5780638da5cb5b146100bd575b600080fd5b610095610159565b005b6100956100a5366004610e0f565b61016d565b6100956100b8366004610f33565b610242565b60005473ffffffffffffffffffffffffffffffffffffffff165b60405173ffffffffffffffffffffffffffffffffffffffff909116815260200160405180910390f35b61009561010e366004610e0f565b6105e7565b610095610121366004611002565b610743565b61009561013436600461105f565b610bc5565b6001546100d79073ffffffffffffffffffffffffffffffffffffffff1681565b610161610c7c565b61016b6000610cfd565b565b336000908152600e6020526040902054156101e9576040517f08c379a000000000000000000000000000000000000000000000000000000000815260206004820152601c60248201527f526566657272657220616c726561647920726567697374657265642e0000000060448201526064015b60405180910390fd5b6101f5848484846105e7565b336000818152600e60209081526040918290206001905590519182527f51e6bb66cce1aac9478cbafcad3421bf2a600ce8ec3874296c671ab32c68ce92910160405180910390a150505050565b6000547501000000000000000000000000000000000000000000900460ff161580801561028d575060005460017401000000000000000000000000000000000000000090910460ff16105b806102bf5750303b1580156102bf575060005474010000000000000000000000000000000000000000900460ff166001145b61034b576040517f08c379a000000000000000000000000000000000000000000000000000000000815260206004820152602e60248201527f496e697469616c697a61626c653a20636f6e747261637420697320616c72656160448201527f647920696e697469616c697a656400000000000000000000000000000000000060648201526084016101e0565b600080547fffffffffffffffffffffff00ffffffffffffffffffffffffffffffffffffffff167401000000000000000000000000000000000000000017905580156103d157600080547fffffffffffffffffffff00ffffffffffffffffffffffffffffffffffffffffff1675010000000000000000000000000000000000000000001790555b73ffffffffffffffffffffffffffffffffffffffff8916610473576040517f08c379a0000000000000000000000000000000000000000000000000000000008152602060048201526024808201527f5f726577617264546f6b656e436f6e7472616374206d7573742062652064656660448201527f696e65640000000000000000000000000000000000000000000000000000000060648201526084016101e0565b6001805473ffffffffffffffffffffffffffffffffffffffff808c167fffffffffffffffffffffffff00000000000000000000000000000000000000009283168117909355600280548f831690841617905560058054918e1691831691909117905560078054909116909117905560088890556009879055600a8690556006859055604051610534906105229061050e9086906020016110a7565b604051602081830303815290604052610d72565b8360405160200161050e9291906110c3565b600c55600b80547fffffffffffffffffffffffff00000000000000000000000000000000000000001673ffffffffffffffffffffffffffffffffffffffff861617905580156105da57600080547fffffffffffffffffffff00ffffffffffffffffffffffffffffffffffffffffff169055604051600181527f7f26b83ff96e1f2b6a682f133852f6798a09c465da95921460cefb38474024989060200160405180910390a15b5050505050505050505050565b6000828152600d602052604090205460ff1615610630576040517f5d904cb200000000000000000000000000000000000000000000000000000000815260040160405180910390fd5b600b546040517fffffffffffffffffffffffffffffffffffffffff000000000000000000000000606087901b16602082015273ffffffffffffffffffffffffffffffffffffffff90911690633bc778e39085907f0000000000000000000000000000000000000000000000000000000000000000906106b19060340161050e565b86600c54876040518763ffffffff1660e01b81526004016106d7969594939291906110e9565b60006040518083038186803b1580156106ef57600080fd5b505afa158015610703573d6000803e3d6000fd5b50505060009283525050600d6020526040902080547fffffffffffffffffffffffffffffffffffffffffffffffffffffffffffffff001660011790555050565b73ffffffffffffffffffffffffffffffffffffffff85166000908152600e602052604090205433906107f7576040517f08c379a000000000000000000000000000000000000000000000000000000000815260206004820152602d60248201527f5265666572726572206973206e6f74207265676973746572656420666f72207460448201527f6869732063616d706169676e2e0000000000000000000000000000000000000060648201526084016101e0565b60085473ffffffffffffffffffffffffffffffffffffffff87166000908152600e602052604090205411156108ae576040517f08c379a000000000000000000000000000000000000000000000000000000000815260206004820152602b60248201527f52656665727265722068617320616c726561647920636c61696d656420616c6c60448201527f20726566657272616c732e00000000000000000000000000000000000000000060648201526084016101e0565b6005546040517f70a0823100000000000000000000000000000000000000000000000000000000815233600482015260009173ffffffffffffffffffffffffffffffffffffffff16906370a0823190602401602060405180830381865afa15801561091d573d6000803e3d6000fd5b505050506040513d601f19601f820116820180604052508101906109419190611121565b90506006548110156109d5576040517f08c379a000000000000000000000000000000000000000000000000000000000815260206004820152603960248201527f526566657272656520646f6573206e6f74206861766520656e6f75676820636160448201527f6d706169676e20746f6b656e7320746f207175616c6966792e0000000000000060648201526084016101e0565b6109e1868686866105e7565b73ffffffffffffffffffffffffffffffffffffffff87166000908152600e60205260408120805491610a128361113a565b90915550506001546002546009546040517f23b872dd00000000000000000000000000000000000000000000000000000000815273ffffffffffffffffffffffffffffffffffffffff92831660048201528a8316602482015260448101919091529116906323b872dd906064016020604051808303816000875af1158015610a9e573d6000803e3d6000fd5b505050506040513d601f19601f82011682018060405250810190610ac29190611199565b50600154600254600a546040517f23b872dd00000000000000000000000000000000000000000000000000000000815273ffffffffffffffffffffffffffffffffffffffff9283166004820152858316602482015260448101919091529116906323b872dd906064016020604051808303816000875af1158015610b4a573d6000803e3d6000fd5b505050506040513d601f19601f82011682018060405250810190610b6e9190611199565b5060405173ffffffffffffffffffffffffffffffffffffffff88811682528316907fa210dbb8c2909935d210f02b66dcf95102c65f568cf1a504024641a45165724f9060200160405180910390a250505050505050565b610bcd610c7c565b73ffffffffffffffffffffffffffffffffffffffff8116610c70576040517f08c379a000000000000000000000000000000000000000000000000000000000815260206004820152602660248201527f4f776e61626c653a206e6577206f776e657220697320746865207a65726f206160448201527f646472657373000000000000000000000000000000000000000000000000000060648201526084016101e0565b610c7981610cfd565b50565b60005473ffffffffffffffffffffffffffffffffffffffff16331461016b576040517f08c379a000000000000000000000000000000000000000000000000000000000815260206004820181905260248201527f4f776e61626c653a2063616c6c6572206973206e6f7420746865206f776e657260448201526064016101e0565b6000805473ffffffffffffffffffffffffffffffffffffffff8381167fffffffffffffffffffffffff0000000000000000000000000000000000000000831681178455604051919092169283917f8be0079c531659141344cd1fd0a4f28419497f9722a3daafe3b4186f6b6457e09190a35050565b6000600882604051602001610d8791906110a7565b604080517fffffffffffffffffffffffffffffffffffffffffffffffffffffffffffffffe08184030181529190528051602090910120901c92915050565b73ffffffffffffffffffffffffffffffffffffffff81168114610c7957600080fd5b8035610df281610dc5565b919050565b806101008101831015610e0957600080fd5b92915050565b6000806000806101608587031215610e2657600080fd5b8435610e3181610dc5565b93506020850135925060408501359150610e4e8660608701610df7565b905092959194509250565b7f4e487b7100000000000000000000000000000000000000000000000000000000600052604160045260246000fd5b600082601f830112610e9957600080fd5b813567ffffffffffffffff80821115610eb457610eb4610e59565b604051601f83017fffffffffffffffffffffffffffffffffffffffffffffffffffffffffffffffe0908116603f01168101908282118183101715610efa57610efa610e59565b81604052838152866020858801011115610f1357600080fd5b836020870160208301376000602085830101528094505050505092915050565b6000806000806000806000806000806101408b8d031215610f5357600080fd5b610f5c8b610de7565b9950610f6a60208c01610de7565b9850610f7860408c01610de7565b975060608b0135965060808b0135955060a08b0135945060c08b01359350610fa260e08c01610de7565b92506101008b013567ffffffffffffffff80821115610fc057600080fd5b610fcc8e838f01610e88565b93506101208d0135915080821115610fe357600080fd5b50610ff08d828e01610e88565b9150509295989b9194979a5092959850565b6000806000806000610180868803121561101b57600080fd5b853561102681610dc5565b9450602086013561103681610dc5565b935060408601359250606086013591506110538760808801610df7565b90509295509295909350565b60006020828403121561107157600080fd5b813561107c81610dc5565b9392505050565b60005b8381101561109e578181015183820152602001611086565b50506000910152565b600082516110b9818460208701611083565b9190910192915050565b828152600082516110db816020850160208701611083565b919091016020019392505050565b60006101a0820190508782528660208301528560408301528460608301528360808301526101008360a0840137979650505050505050565b60006020828403121561113357600080fd5b5051919050565b60007fffffffffffffffffffffffffffffffffffffffffffffffffffffffffffffffff8203611192577f4e487b7100000000000000000000000000000000000000000000000000000000600052601160045260246000fd5b5060010190565b6000602082840312156111ab57600080fd5b8151801515811461107c57600080fdfea164736f6c6343000813000a6170705f73746167696e675f3237663365353939366366653830316239366434376466326666613335303533",
    "linkReferences": {}
  },
  "methodIdentifiers": {
    "addCampaign(address,address,uint256,uint256,uint256,uint256,string)": "46183f05",
    "getCampaigns(address)": "1693bfa1"
  },
  "id": 30
}