{
  "abi": [
    {
      "inputs": [],
      "name": "InvalidNullifier",
      "type": "error"
    },
    {
      "anonymous": false,
      "inputs": [
        {
          "indexed": true,
          "internalType": "address",
          "name": "",
          "type": "address"
        },
        {
          "indexed": false,
          "internalType": "address",
          "name": "",
          "type": "address"
        }
      ],
      "name": "AcceptedReferral",
      "type": "event"
    },
    {
      "anonymous": false,
      "inputs": [
        {
          "indexed": false,
          "internalType": "uint8",
          "name": "version",
          "type": "uint8"
        }
      ],
      "name": "Initialized",
      "type": "event"
    },
    {
      "anonymous": false,
      "inputs": [
        {
          "indexed": true,
          "internalType": "address",
          "name": "previousOwner",
          "type": "address"
        },
        {
          "indexed": true,
          "internalType": "address",
          "name": "newOwner",
          "type": "address"
        }
      ],
      "name": "OwnershipTransferred",
      "type": "event"
    },
    {
      "anonymous": false,
      "inputs": [
        {
          "indexed": false,
          "internalType": "address",
          "name": "",
          "type": "address"
        }
      ],
      "name": "ReferrerAdded",
      "type": "event"
    },
    {
      "inputs": [
        {
          "internalType": "address",
          "name": "_referrer",
          "type": "address"
        },
        {
          "internalType": "address",
          "name": "signal",
          "type": "address"
        },
        {
          "internalType": "uint256",
          "name": "root",
          "type": "uint256"
        },
        {
          "internalType": "uint256",
          "name": "nullifierHash",
          "type": "uint256"
        },
        {
          "internalType": "uint256[8]",
          "name": "proof",
          "type": "uint256[8]"
        }
      ],
      "name": "acceptReferral",
      "outputs": [],
      "stateMutability": "nonpayable",
      "type": "function"
    },
    {
      "inputs": [
        {
          "internalType": "address",
          "name": "signal",
          "type": "address"
        },
        {
          "internalType": "uint256",
          "name": "root",
          "type": "uint256"
        },
        {
          "internalType": "uint256",
          "name": "nullifierHash",
          "type": "uint256"
        },
        {
          "internalType": "uint256[8]",
          "name": "proof",
          "type": "uint256[8]"
        }
      ],
      "name": "addReferrer",
      "outputs": [],
      "stateMutability": "nonpayable",
      "type": "function"
    },
    {
      "inputs": [
        {
          "internalType": "address",
          "name": "_manager",
          "type": "address"
        },
        {
          "internalType": "address",
          "name": "_campaignTokenContract",
          "type": "address"
        },
        {
          "internalType": "address",
          "name": "_rewardTokenContract",
          "type": "address"
        },
        {
          "internalType": "uint256",
          "name": "_maxReferralsPerReferrer",
          "type": "uint256"
        },
        {
          "internalType": "uint256",
          "name": "_rewardReferrer",
          "type": "uint256"
        },
        {
          "internalType": "uint256",
          "name": "_rewardReferee",
          "type": "uint256"
        },
        {
          "internalType": "uint256",
          "name": "_minCampaignTokenBalance",
          "type": "uint256"
        },
        {
          "internalType": "contract IWorldID",
          "name": "_worldId",
          "type": "address"
        },
        {
          "internalType": "string",
          "name": "_appId",
          "type": "string"
        },
        {
          "internalType": "string",
          "name": "_actionId",
          "type": "string"
        }
      ],
      "name": "initialize",
      "outputs": [],
      "stateMutability": "nonpayable",
      "type": "function"
    },
    {
      "inputs": [],
      "name": "owner",
      "outputs": [
        {
          "internalType": "address",
          "name": "",
          "type": "address"
        }
      ],
      "stateMutability": "view",
      "type": "function"
    },
    {
      "inputs": [],
      "name": "renounceOwnership",
      "outputs": [],
      "stateMutability": "nonpayable",
      "type": "function"
    },
    {
      "inputs": [],
      "name": "rewardToken",
      "outputs": [
        {
          "internalType": "contract IERC20Or721",
          "name": "",
          "type": "address"
        }
      ],
      "stateMutability": "view",
      "type": "function"
    },
    {
      "inputs": [
        {
          "internalType": "address",
          "name": "newOwner",
          "type": "address"
        }
      ],
      "name": "transferOwnership",
      "outputs": [],
      "stateMutability": "nonpayable",
      "type": "function"
    },
    {
      "inputs": [
        {
          "internalType": "address",
          "name": "signal",
          "type": "address"
        },
        {
          "internalType": "uint256",
          "name": "root",
          "type": "uint256"
        },
        {
          "internalType": "uint256",
          "name": "nullifierHash",
          "type": "uint256"
        },
        {
          "internalType": "uint256[8]",
          "name": "proof",
          "type": "uint256[8]"
        }
      ],
      "name": "verifyAndExecute",
      "outputs": [],
      "stateMutability": "nonpayable",
      "type": "function"
    }
  ],
  "bytecode": {
    "object": "0x60a060405260006003819055600455600160805234801561001f57600080fd5b506100293361002e565b61007e565b600080546001600160a01b038381166001600160a01b0319831681178455604051919092169283917f8be0079c531659141344cd1fd0a4f28419497f9722a3daafe3b4186f6b6457e09190a35050565b6080516111c8610099600039600061068501526111c86000f3fe608060405234801561001057600080fd5b50600436106100885760003560e01c8063e9b705531161005b578063e9b7055314610100578063ea6d143314610113578063f2fde38b14610126578063f7c618c11461013957600080fd5b8063715018a61461008d57806371c9bd1614610097578063825e8bcb146100aa5780638da5cb5b146100bd575b600080fd5b610095610159565b005b6100956100a5366004610e0f565b61016d565b6100956100b8366004610f33565b610242565b60005473ffffffffffffffffffffffffffffffffffffffff165b60405173ffffffffffffffffffffffffffffffffffffffff909116815260200160405180910390f35b61009561010e366004610e0f565b6105e7565b610095610121366004611002565b610743565b61009561013436600461105f565b610bc5565b6001546100d79073ffffffffffffffffffffffffffffffffffffffff1681565b610161610c7c565b61016b6000610cfd565b565b336000908152600e6020526040902054156101e9576040517f08c379a000000000000000000000000000000000000000000000000000000000815260206004820152601c60248201527f526566657272657220616c726561647920726567697374657265642e0000000060448201526064015b60405180910390fd5b6101f5848484846105e7565b336000818152600e60209081526040918290206001905590519182527f51e6bb66cce1aac9478cbafcad3421bf2a600ce8ec3874296c671ab32c68ce92910160405180910390a150505050565b6000547501000000000000000000000000000000000000000000900460ff161580801561028d575060005460017401000000000000000000000000000000000000000090910460ff16105b806102bf5750303b1580156102bf575060005474010000000000000000000000000000000000000000900460ff166001145b61034b576040517f08c379a000000000000000000000000000000000000000000000000000000000815260206004820152602e60248201527f496e697469616c697a61626c653a20636f6e747261637420697320616c72656160448201527f647920696e697469616c697a656400000000000000000000000000000000000060648201526084016101e0565b600080547fffffffffffffffffffffff00ffffffffffffffffffffffffffffffffffffffff167401000000000000000000000000000000000000000017905580156103d157600080547fffffffffffffffffffff00ffffffffffffffffffffffffffffffffffffffffff1675010000000000000000000000000000000000000000001790555b73ffffffffffffffffffffffffffffffffffffffff8916610473576040517f08c379a0000000000000000000000000000000000000000000000000000000008152602060048201526024808201527f5f726577617264546f6b656e436f6e7472616374206d7573742062652064656660448201527f696e65640000000000000000000000000000000000000000000000000000000060648201526084016101e0565b6001805473ffffffffffffffffffffffffffffffffffffffff808c167fffffffffffffffffffffffff00000000000000000000000000000000000000009283168117909355600280548f831690841617905560058054918e1691831691909117905560078054909116909117905560088890556009879055600a8690556006859055604051610534906105229061050e9086906020016110a7565b604051602081830303815290604052610d72565b8360405160200161050e9291906110c3565b600c55600b80547fffffffffffffffffffffffff00000000000000000000000000000000000000001673ffffffffffffffffffffffffffffffffffffffff861617905580156105da57600080547fffffffffffffffffffff00ffffffffffffffffffffffffffffffffffffffffff169055604051600181527f7f26b83ff96e1f2b6a682f133852f6798a09c465da95921460cefb38474024989060200160405180910390a15b5050505050505050505050565b6000828152600d602052604090205460ff1615610630576040517f5d904cb200000000000000000000000000000000000000000000000000000000815260040160405180910390fd5b600b546040517fffffffffffffffffffffffffffffffffffffffff000000000000000000000000606087901b16602082015273ffffffffffffffffffffffffffffffffffffffff90911690633bc778e39085907f0000000000000000000000000000000000000000000000000000000000000000906106b19060340161050e565b86600c54876040518763ffffffff1660e01b81526004016106d7969594939291906110e9565b60006040518083038186803b1580156106ef57600080fd5b505afa158015610703573d6000803e3d6000fd5b50505060009283525050600d6020526040902080547fffffffffffffffffffffffffffffffffffffffffffffffffffffffffffffff001660011790555050565b73ffffffffffffffffffffffffffffffffffffffff85166000908152600e602052604090205433906107f7576040517f08c379a000000000000000000000000000000000000000000000000000000000815260206004820152602d60248201527f5265666572726572206973206e6f74207265676973746572656420666f72207460448201527f6869732063616d706169676e2e0000000000000000000000000000000000000060648201526084016101e0565b60085473ffffffffffffffffffffffffffffffffffffffff87166000908152600e602052604090205411156108ae576040517f08c379a000000000000000000000000000000000000000000000000000000000815260206004820152602b60248201527f52656665727265722068617320616c726561647920636c61696d656420616c6c60448201527f20726566657272616c732e00000000000000000000000000000000000000000060648201526084016101e0565b6005546040517f70a0823100000000000000000000000000000000000000000000000000000000815233600482015260009173ffffffffffffffffffffffffffffffffffffffff16906370a0823190602401602060405180830381865afa15801561091d573d6000803e3d6000fd5b505050506040513d601f19601f820116820180604052508101906109419190611121565b90506006548110156109d5576040517f08c379a000000000000000000000000000000000000000000000000000000000815260206004820152603960248201527f526566657272656520646f6573206e6f74206861766520656e6f75676820636160448201527f6d706169676e20746f6b656e7320746f207175616c6966792e0000000000000060648201526084016101e0565b6109e1868686866105e7565b73ffffffffffffffffffffffffffffffffffffffff87166000908152600e60205260408120805491610a128361113a565b90915550506001546002546009546040517f23b872dd00000000000000000000000000000000000000000000000000000000815273ffffffffffffffffffffffffffffffffffffffff92831660048201528a8316602482015260448101919091529116906323b872dd906064016020604051808303816000875af1158015610a9e573d6000803e3d6000fd5b505050506040513d601f19601f82011682018060405250810190610ac29190611199565b50600154600254600a546040517f23b872dd00000000000000000000000000000000000000000000000000000000815273ffffffffffffffffffffffffffffffffffffffff9283166004820152858316602482015260448101919091529116906323b872dd906064016020604051808303816000875af1158015610b4a573d6000803e3d6000fd5b505050506040513d601f19601f82011682018060405250810190610b6e9190611199565b5060405173ffffffffffffffffffffffffffffffffffffffff88811682528316907fa210dbb8c2909935d210f02b66dcf95102c65f568cf1a504024641a45165724f9060200160405180910390a250505050505050565b610bcd610c7c565b73ffffffffffffffffffffffffffffffffffffffff8116610c70576040517f08c379a000000000000000000000000000000000000000000000000000000000815260206004820152602660248201527f4f776e61626c653a206e6577206f776e657220697320746865207a65726f206160448201527f646472657373000000000000000000000000000000000000000000000000000060648201526084016101e0565b610c7981610cfd565b50565b60005473ffffffffffffffffffffffffffffffffffffffff16331461016b576040517f08c379a000000000000000000000000000000000000000000000000000000000815260206004820181905260248201527f4f776e61626c653a2063616c6c6572206973206e6f7420746865206f776e657260448201526064016101e0565b6000805473ffffffffffffffffffffffffffffffffffffffff8381167fffffffffffffffffffffffff0000000000000000000000000000000000000000831681178455604051919092169283917f8be0079c531659141344cd1fd0a4f28419497f9722a3daafe3b4186f6b6457e09190a35050565b6000600882604051602001610d8791906110a7565b604080517fffffffffffffffffffffffffffffffffffffffffffffffffffffffffffffffe08184030181529190528051602090910120901c92915050565b73ffffffffffffffffffffffffffffffffffffffff81168114610c7957600080fd5b8035610df281610dc5565b919050565b806101008101831015610e0957600080fd5b92915050565b6000806000806101608587031215610e2657600080fd5b8435610e3181610dc5565b93506020850135925060408501359150610e4e8660608701610df7565b905092959194509250565b7f4e487b7100000000000000000000000000000000000000000000000000000000600052604160045260246000fd5b600082601f830112610e9957600080fd5b813567ffffffffffffffff80821115610eb457610eb4610e59565b604051601f83017fffffffffffffffffffffffffffffffffffffffffffffffffffffffffffffffe0908116603f01168101908282118183101715610efa57610efa610e59565b81604052838152866020858801011115610f1357600080fd5b836020870160208301376000602085830101528094505050505092915050565b6000806000806000806000806000806101408b8d031215610f5357600080fd5b610f5c8b610de7565b9950610f6a60208c01610de7565b9850610f7860408c01610de7565b975060608b0135965060808b0135955060a08b0135945060c08b01359350610fa260e08c01610de7565b92506101008b013567ffffffffffffffff80821115610fc057600080fd5b610fcc8e838f01610e88565b93506101208d0135915080821115610fe357600080fd5b50610ff08d828e01610e88565b9150509295989b9194979a5092959850565b6000806000806000610180868803121561101b57600080fd5b853561102681610dc5565b9450602086013561103681610dc5565b935060408601359250606086013591506110538760808801610df7565b90509295509295909350565b60006020828403121561107157600080fd5b813561107c81610dc5565b9392505050565b60005b8381101561109e578181015183820152602001611086565b50506000910152565b600082516110b9818460208701611083565b9190910192915050565b828152600082516110db816020850160208701611083565b919091016020019392505050565b60006101a0820190508782528660208301528560408301528460608301528360808301526101008360a0840137979650505050505050565b60006020828403121561113357600080fd5b5051919050565b60007fffffffffffffffffffffffffffffffffffffffffffffffffffffffffffffffff8203611192577f4e487b7100000000000000000000000000000000000000000000000000000000600052601160045260246000fd5b5060010190565b6000602082840312156111ab57600080fd5b8151801515811461107c57600080fdfea164736f6c6343000813000a",
    "linkReferences": {}
  },
  "methodIdentifiers": {
    "acceptReferral(address,address,uint256,uint256,uint256[8])": "ea6d1433",
    "addReferrer(address,uint256,uint256,uint256[8])": "71c9bd16",
    "initialize(address,address,address,uint256,uint256,uint256,uint256,address,string,string)": "825e8bcb",
    "owner()": "8da5cb5b",
    "renounceOwnership()": "715018a6",
    "rewardToken()": "f7c618c1",
    "transferOwnership(address)": "f2fde38b",
    "verifyAndExecute(address,uint256,uint256,uint256[8])": "e9b70553"
  },
  "id": 35
}