{
  "abi": [
    {
      "inputs": [],
      "stateMutability": "nonpayable",
      "type": "constructor"
    },
    {
      "anonymous": false,
      "inputs": [
        {
          "indexed": true,
          "internalType": "address",
          "name": "",
          "type": "address"
        },
        {
          "indexed": false,
          "internalType": "address",
          "name": "",
          "type": "address"
        }
      ],
      "name": "AcceptedReferral",
      "type": "event"
    },
    {
      "anonymous": false,
      "inputs": [
        {
          "indexed": false,
          "internalType": "uint8",
          "name": "version",
          "type": "uint8"
        }
      ],
      "name": "Initialized",
      "type": "event"
    },
    {
      "anonymous": false,
      "inputs": [
        {
          "indexed": true,
          "internalType": "address",
          "name": "previousOwner",
          "type": "address"
        },
        {
          "indexed": true,
          "internalType": "address",
          "name": "newOwner",
          "type": "address"
        }
      ],
      "name": "OwnershipTransferred",
      "type": "event"
    },
    {
      "anonymous": false,
      "inputs": [
        {
          "indexed": false,
          "internalType": "address",
          "name": "",
          "type": "address"
        }
      ],
      "name": "ReferrerAdded",
      "type": "event"
    },
    {
      "inputs": [
        {
          "internalType": "address",
          "name": "_referrer",
          "type": "address"
        }
      ],
      "name": "acceptReferral",
      "outputs": [],
      "stateMutability": "nonpayable",
      "type": "function"
    },
    {
      "inputs": [],
      "name": "addReferrer",
      "outputs": [],
      "stateMutability": "nonpayable",
      "type": "function"
    },
    {
      "inputs": [
        {
          "internalType": "address",
          "name": "_manager",
          "type": "address"
        },
        {
          "internalType": "address",
          "name": "_campaignTokenContract",
          "type": "address"
        },
        {
          "internalType": "address",
          "name": "_rewardTokenContract",
          "type": "address"
        },
        {
          "internalType": "uint256",
          "name": "_maxReferralsPerReferrer",
          "type": "uint256"
        },
        {
          "internalType": "uint256",
          "name": "_rewardReferrer",
          "type": "uint256"
        },
        {
          "internalType": "uint256",
          "name": "_rewardReferee",
          "type": "uint256"
        },
        {
          "internalType": "uint256",
          "name": "_minCampaignTokenBalance",
          "type": "uint256"
        }
      ],
      "name": "initialize",
      "outputs": [],
      "stateMutability": "nonpayable",
      "type": "function"
    },
    {
      "inputs": [],
      "name": "owner",
      "outputs": [
        {
          "internalType": "address",
          "name": "",
          "type": "address"
        }
      ],
      "stateMutability": "view",
      "type": "function"
    },
    {
      "inputs": [],
      "name": "renounceOwnership",
      "outputs": [],
      "stateMutability": "nonpayable",
      "type": "function"
    },
    {
      "inputs": [],
      "name": "rewardToken",
      "outputs": [
        {
          "internalType": "contract IERC20Or721",
          "name": "",
          "type": "address"
        }
      ],
      "stateMutability": "view",
      "type": "function"
    },
    {
      "inputs": [
        {
          "internalType": "address",
          "name": "newOwner",
          "type": "address"
        }
      ],
      "name": "transferOwnership",
      "outputs": [],
      "stateMutability": "nonpayable",
      "type": "function"
    }
  ],
  "bytecode": {
    "object": "0x608060405234801561001057600080fd5b5061001a3361001f565b61006f565b600080546001600160a01b038381166001600160a01b0319831681178455604051919092169283917f8be0079c531659141344cd1fd0a4f28419497f9722a3daafe3b4186f6b6457e09190a35050565b610c208061007e6000396000f3fe608060405234801561001057600080fd5b506004361061007d5760003560e01c8063715018a61161005b578063715018a6146100b25780638da5cb5b146100ba578063f2fde38b146100fd578063f7c618c11461011057600080fd5b806326a1a480146100825780632b4656c81461009757806337542d10146100aa575b600080fd5b610095610090366004610aef565b610130565b005b6100956100a5366004610b11565b61044f565b610095610845565b610095610905565b60005473ffffffffffffffffffffffffffffffffffffffff165b60405173ffffffffffffffffffffffffffffffffffffffff909116815260200160405180910390f35b61009561010b366004610aef565b610919565b6001546100d49073ffffffffffffffffffffffffffffffffffffffff1681565b73ffffffffffffffffffffffffffffffffffffffff811660009081526009602052604090205433906101e9576040517f08c379a000000000000000000000000000000000000000000000000000000000815260206004820152602d60248201527f5265666572726572206973206e6f74207265676973746572656420666f72207460448201527f6869732063616d706169676e2e0000000000000000000000000000000000000060648201526084015b60405180910390fd5b60065473ffffffffffffffffffffffffffffffffffffffff831660009081526009602052604090205411156102a0576040517f08c379a000000000000000000000000000000000000000000000000000000000815260206004820152602b60248201527f52656665727265722068617320616c726561647920636c61696d656420616c6c60448201527f20726566657272616c732e00000000000000000000000000000000000000000060648201526084016101e0565b6003546040517f70a0823100000000000000000000000000000000000000000000000000000000815233600482015260009173ffffffffffffffffffffffffffffffffffffffff16906370a0823190602401602060405180830381865afa15801561030f573d6000803e3d6000fd5b505050506040513d601f19601f820116820180604052508101906103339190610b79565b90506004548110156103c7576040517f08c379a000000000000000000000000000000000000000000000000000000000815260206004820152603960248201527f526566657272656520646f6573206e6f74206861766520656e6f75676820636160448201527f6d706169676e20746f6b656e7320746f207175616c6966792e0000000000000060648201526084016101e0565b73ffffffffffffffffffffffffffffffffffffffff831660009081526009602052604081208054916103f883610b92565b909155505060405173ffffffffffffffffffffffffffffffffffffffff84811682528316907fa210dbb8c2909935d210f02b66dcf95102c65f568cf1a504024641a45165724f9060200160405180910390a2505050565b6000547501000000000000000000000000000000000000000000900460ff161580801561049a575060005460017401000000000000000000000000000000000000000090910460ff16105b806104cc5750303b1580156104cc575060005474010000000000000000000000000000000000000000900460ff166001145b610558576040517f08c379a000000000000000000000000000000000000000000000000000000000815260206004820152602e60248201527f496e697469616c697a61626c653a20636f6e747261637420697320616c72656160448201527f647920696e697469616c697a656400000000000000000000000000000000000060648201526084016101e0565b600080547fffffffffffffffffffffff00ffffffffffffffffffffffffffffffffffffffff167401000000000000000000000000000000000000000017905580156105de57600080547fffffffffffffffffffff00ffffffffffffffffffffffffffffffffffffffffff1675010000000000000000000000000000000000000000001790555b73ffffffffffffffffffffffffffffffffffffffff8616610680576040517f08c379a0000000000000000000000000000000000000000000000000000000008152602060048201526024808201527f5f726577617264546f6b656e436f6e7472616374206d7573742062652064656660448201527f696e65640000000000000000000000000000000000000000000000000000000060648201526084016101e0565b600180547fffffffffffffffffffffffff00000000000000000000000000000000000000001673ffffffffffffffffffffffffffffffffffffffff88169081179091556040517f095ea7b30000000000000000000000000000000000000000000000000000000081523060048201527fffffffffffffffffffffffffffffffffffffffffffffffffffffffffffffffff602482015263095ea7b3906044016020604051808303816000875af115801561073d573d6000803e3d6000fd5b505050506040513d601f19601f820116820180604052508101906107619190610bf1565b506002805473ffffffffffffffffffffffffffffffffffffffff808b167fffffffffffffffffffffffff000000000000000000000000000000000000000092831617909255600380548a841690831617905560058054928916929091169190911790556006859055600784905560088390556004829055801561083b57600080547fffffffffffffffffffff00ffffffffffffffffffffffffffffffffffffffffff169055604051600181527f7f26b83ff96e1f2b6a682f133852f6798a09c465da95921460cefb38474024989060200160405180910390a15b5050505050505050565b33600090815260096020526040902054156108bc576040517f08c379a000000000000000000000000000000000000000000000000000000000815260206004820152601c60248201527f526566657272657220616c726561647920726567697374657265642e0000000060448201526064016101e0565b336000818152600960209081526040918290206001905590519182527f51e6bb66cce1aac9478cbafcad3421bf2a600ce8ec3874296c671ab32c68ce92910160405180910390a1565b61090d6109d0565b6109176000610a51565b565b6109216109d0565b73ffffffffffffffffffffffffffffffffffffffff81166109c4576040517f08c379a000000000000000000000000000000000000000000000000000000000815260206004820152602660248201527f4f776e61626c653a206e6577206f776e657220697320746865207a65726f206160448201527f646472657373000000000000000000000000000000000000000000000000000060648201526084016101e0565b6109cd81610a51565b50565b60005473ffffffffffffffffffffffffffffffffffffffff163314610917576040517f08c379a000000000000000000000000000000000000000000000000000000000815260206004820181905260248201527f4f776e61626c653a2063616c6c6572206973206e6f7420746865206f776e657260448201526064016101e0565b6000805473ffffffffffffffffffffffffffffffffffffffff8381167fffffffffffffffffffffffff0000000000000000000000000000000000000000831681178455604051919092169283917f8be0079c531659141344cd1fd0a4f28419497f9722a3daafe3b4186f6b6457e09190a35050565b803573ffffffffffffffffffffffffffffffffffffffff81168114610aea57600080fd5b919050565b600060208284031215610b0157600080fd5b610b0a82610ac6565b9392505050565b600080600080600080600060e0888a031215610b2c57600080fd5b610b3588610ac6565b9650610b4360208901610ac6565b9550610b5160408901610ac6565b969995985095966060810135965060808101359560a0820135955060c0909101359350915050565b600060208284031215610b8b57600080fd5b5051919050565b60007fffffffffffffffffffffffffffffffffffffffffffffffffffffffffffffffff8203610bea577f4e487b7100000000000000000000000000000000000000000000000000000000600052601160045260246000fd5b5060010190565b600060208284031215610c0357600080fd5b81518015158114610b0a57600080fdfea164736f6c6343000813000a",
    "linkReferences": {}
  },
  "methodIdentifiers": {
    "acceptReferral(address)": "26a1a480",
    "addReferrer()": "37542d10",
    "initialize(address,address,address,uint256,uint256,uint256,uint256)": "2b4656c8",
    "owner()": "8da5cb5b",
    "renounceOwnership()": "715018a6",
    "rewardToken()": "f7c618c1",
    "transferOwnership(address)": "f2fde38b"
  },
  "id": 10
}