{
  "abi": [
    {
      "inputs": [],
      "name": "InvalidNullifier",
      "type": "error"
    },
    {
      "anonymous": false,
      "inputs": [
        {
          "indexed": true,
          "internalType": "address",
          "name": "",
          "type": "address"
        },
        {
          "indexed": false,
          "internalType": "address",
          "name": "",
          "type": "address"
        }
      ],
      "name": "AcceptedReferral",
      "type": "event"
    },
    {
      "anonymous": false,
      "inputs": [
        {
          "indexed": false,
          "internalType": "uint8",
          "name": "version",
          "type": "uint8"
        }
      ],
      "name": "Initialized",
      "type": "event"
    },
    {
      "anonymous": false,
      "inputs": [
        {
          "indexed": true,
          "internalType": "address",
          "name": "previousOwner",
          "type": "address"
        },
        {
          "indexed": true,
          "internalType": "address",
          "name": "newOwner",
          "type": "address"
        }
      ],
      "name": "OwnershipTransferred",
      "type": "event"
    },
    {
      "anonymous": false,
      "inputs": [
        {
          "indexed": false,
          "internalType": "address",
          "name": "",
          "type": "address"
        }
      ],
      "name": "ReferrerAdded",
      "type": "event"
    },
    {
      "inputs": [
        {
          "internalType": "address",
          "name": "_referrer",
          "type": "address"
        },
        {
          "internalType": "address",
          "name": "signal",
          "type": "address"
        },
        {
          "internalType": "uint256",
          "name": "root",
          "type": "uint256"
        },
        {
          "internalType": "uint256",
          "name": "nullifierHash",
          "type": "uint256"
        },
        {
          "internalType": "uint256[8]",
          "name": "proof",
          "type": "uint256[8]"
        }
      ],
      "name": "acceptReferral",
      "outputs": [],
      "stateMutability": "nonpayable",
      "type": "function"
    },
    {
      "inputs": [
        {
          "internalType": "uint256",
          "name": "root",
          "type": "uint256"
        },
        {
          "internalType": "uint256",
          "name": "nullifierHash",
          "type": "uint256"
        },
        {
          "internalType": "uint256[8]",
          "name": "proof",
          "type": "uint256[8]"
        }
      ],
      "name": "addReferrer",
      "outputs": [],
      "stateMutability": "nonpayable",
      "type": "function"
    },
    {
      "inputs": [
        {
          "internalType": "address",
          "name": "_manager",
          "type": "address"
        },
        {
          "internalType": "address",
          "name": "_campaignTokenContract",
          "type": "address"
        },
        {
          "internalType": "address",
          "name": "_rewardTokenContract",
          "type": "address"
        },
        {
          "internalType": "uint256",
          "name": "_maxReferralsPerReferrer",
          "type": "uint256"
        },
        {
          "internalType": "uint256",
          "name": "_rewardReferrer",
          "type": "uint256"
        },
        {
          "internalType": "uint256",
          "name": "_rewardReferee",
          "type": "uint256"
        },
        {
          "internalType": "uint256",
          "name": "_minCampaignTokenBalance",
          "type": "uint256"
        },
        {
          "internalType": "contract IWorldID",
          "name": "_worldId",
          "type": "address"
        },
        {
          "internalType": "string",
          "name": "_appId",
          "type": "string"
        },
        {
          "internalType": "string",
          "name": "_actionId",
          "type": "string"
        }
      ],
      "name": "initialize",
      "outputs": [],
      "stateMutability": "nonpayable",
      "type": "function"
    },
    {
      "inputs": [],
      "name": "owner",
      "outputs": [
        {
          "internalType": "address",
          "name": "",
          "type": "address"
        }
      ],
      "stateMutability": "view",
      "type": "function"
    },
    {
      "inputs": [],
      "name": "renounceOwnership",
      "outputs": [],
      "stateMutability": "nonpayable",
      "type": "function"
    },
    {
      "inputs": [],
      "name": "rewardToken",
      "outputs": [
        {
          "internalType": "contract IERC20Or721",
          "name": "",
          "type": "address"
        }
      ],
      "stateMutability": "view",
      "type": "function"
    },
    {
      "inputs": [
        {
          "internalType": "address",
          "name": "newOwner",
          "type": "address"
        }
      ],
      "name": "transferOwnership",
      "outputs": [],
      "stateMutability": "nonpayable",
      "type": "function"
    },
    {
      "inputs": [
        {
          "internalType": "address",
          "name": "signal",
          "type": "address"
        },
        {
          "internalType": "uint256",
          "name": "root",
          "type": "uint256"
        },
        {
          "internalType": "uint256",
          "name": "nullifierHash",
          "type": "uint256"
        },
        {
          "internalType": "uint256[8]",
          "name": "proof",
          "type": "uint256[8]"
        }
      ],
      "name": "verifyAndExecute",
      "outputs": [],
      "stateMutability": "nonpayable",
      "type": "function"
    }
  ],
  "bytecode": {
    "object": "0x60a060405260006003819055600455600160805234801561001f57600080fd5b506100293361002e565b61007e565b600080546001600160a01b038381166001600160a01b0319831681178455604051919092169283917f8be0079c531659141344cd1fd0a4f28419497f9722a3daafe3b4186f6b6457e09190a35050565b6080516111a9610099600039600061062f01526111a96000f3fe608060405234801561001057600080fd5b50600436106100885760003560e01c8063e9b705531161005b578063e9b7055314610100578063ea6d143314610113578063f2fde38b14610126578063f7c618c11461013957600080fd5b8063715018a61461008d578063825e8bcb146100975780638da5cb5b146100aa578063c4f757f4146100ed575b600080fd5b610095610159565b005b6100956100a5366004610e7b565b61016d565b60005473ffffffffffffffffffffffffffffffffffffffff165b60405173ffffffffffffffffffffffffffffffffffffffff909116815260200160405180910390f35b6100956100fb366004610f62565b610517565b61009561010e366004610f99565b6105da565b610095610121366004610fe3565b6106ed565b610095610134366004611040565b610b6f565b6001546100c49073ffffffffffffffffffffffffffffffffffffffff1681565b610161610c26565b61016b6000610ca7565b565b6000547501000000000000000000000000000000000000000000900460ff16158080156101b8575060005460017401000000000000000000000000000000000000000090910460ff16105b806101ea5750303b1580156101ea575060005474010000000000000000000000000000000000000000900460ff166001145b61027b576040517f08c379a000000000000000000000000000000000000000000000000000000000815260206004820152602e60248201527f496e697469616c697a61626c653a20636f6e747261637420697320616c72656160448201527f647920696e697469616c697a656400000000000000000000000000000000000060648201526084015b60405180910390fd5b600080547fffffffffffffffffffffff00ffffffffffffffffffffffffffffffffffffffff1674010000000000000000000000000000000000000000179055801561030157600080547fffffffffffffffffffff00ffffffffffffffffffffffffffffffffffffffffff1675010000000000000000000000000000000000000000001790555b73ffffffffffffffffffffffffffffffffffffffff89166103a3576040517f08c379a0000000000000000000000000000000000000000000000000000000008152602060048201526024808201527f5f726577617264546f6b656e436f6e7472616374206d7573742062652064656660448201527f696e6564000000000000000000000000000000000000000000000000000000006064820152608401610272565b6001805473ffffffffffffffffffffffffffffffffffffffff808c167fffffffffffffffffffffffff00000000000000000000000000000000000000009283168117909355600280548f831690841617905560058054918e1691831691909117905560078054909116909117905560088890556009879055600a8690556006859055604051610464906104529061043e908690602001611088565b604051602081830303815290604052610d1c565b8360405160200161043e9291906110a4565b600c55600b80547fffffffffffffffffffffffff00000000000000000000000000000000000000001673ffffffffffffffffffffffffffffffffffffffff8616179055801561050a57600080547fffffffffffffffffffff00ffffffffffffffffffffffffffffffffffffffffff169055604051600181527f7f26b83ff96e1f2b6a682f133852f6798a09c465da95921460cefb38474024989060200160405180910390a15b5050505050505050505050565b336000908152600e60205260409020541561058e576040517f08c379a000000000000000000000000000000000000000000000000000000000815260206004820152601c60248201527f526566657272657220616c726561647920726567697374657265642e000000006044820152606401610272565b336000818152600e60209081526040918290206001905590519182527f51e6bb66cce1aac9478cbafcad3421bf2a600ce8ec3874296c671ab32c68ce92910160405180910390a1505050565b600b546040517fffffffffffffffffffffffffffffffffffffffff000000000000000000000000606087901b16602082015273ffffffffffffffffffffffffffffffffffffffff90911690633bc778e39085907f00000000000000000000000000000000000000000000000000000000000000009061065b9060340161043e565b86600c54876040518763ffffffff1660e01b8152600401610681969594939291906110ca565b60006040518083038186803b15801561069957600080fd5b505afa1580156106ad573d6000803e3d6000fd5b50505060009283525050600d6020526040902080547fffffffffffffffffffffffffffffffffffffffffffffffffffffffffffffff001660011790555050565b73ffffffffffffffffffffffffffffffffffffffff85166000908152600e602052604090205433906107a1576040517f08c379a000000000000000000000000000000000000000000000000000000000815260206004820152602d60248201527f5265666572726572206973206e6f74207265676973746572656420666f72207460448201527f6869732063616d706169676e2e000000000000000000000000000000000000006064820152608401610272565b60085473ffffffffffffffffffffffffffffffffffffffff87166000908152600e60205260409020541115610858576040517f08c379a000000000000000000000000000000000000000000000000000000000815260206004820152602b60248201527f52656665727265722068617320616c726561647920636c61696d656420616c6c60448201527f20726566657272616c732e0000000000000000000000000000000000000000006064820152608401610272565b6005546040517f70a0823100000000000000000000000000000000000000000000000000000000815233600482015260009173ffffffffffffffffffffffffffffffffffffffff16906370a0823190602401602060405180830381865afa1580156108c7573d6000803e3d6000fd5b505050506040513d601f19601f820116820180604052508101906108eb9190611102565b905060065481101561097f576040517f08c379a000000000000000000000000000000000000000000000000000000000815260206004820152603960248201527f526566657272656520646f6573206e6f74206861766520656e6f75676820636160448201527f6d706169676e20746f6b656e7320746f207175616c6966792e000000000000006064820152608401610272565b61098b868686866105da565b73ffffffffffffffffffffffffffffffffffffffff87166000908152600e602052604081208054916109bc8361111b565b90915550506001546002546009546040517f23b872dd00000000000000000000000000000000000000000000000000000000815273ffffffffffffffffffffffffffffffffffffffff92831660048201528a8316602482015260448101919091529116906323b872dd906064016020604051808303816000875af1158015610a48573d6000803e3d6000fd5b505050506040513d601f19601f82011682018060405250810190610a6c919061117a565b50600154600254600a546040517f23b872dd00000000000000000000000000000000000000000000000000000000815273ffffffffffffffffffffffffffffffffffffffff9283166004820152858316602482015260448101919091529116906323b872dd906064016020604051808303816000875af1158015610af4573d6000803e3d6000fd5b505050506040513d601f19601f82011682018060405250810190610b18919061117a565b5060405173ffffffffffffffffffffffffffffffffffffffff88811682528316907fa210dbb8c2909935d210f02b66dcf95102c65f568cf1a504024641a45165724f9060200160405180910390a250505050505050565b610b77610c26565b73ffffffffffffffffffffffffffffffffffffffff8116610c1a576040517f08c379a000000000000000000000000000000000000000000000000000000000815260206004820152602660248201527f4f776e61626c653a206e6577206f776e657220697320746865207a65726f206160448201527f64647265737300000000000000000000000000000000000000000000000000006064820152608401610272565b610c2381610ca7565b50565b60005473ffffffffffffffffffffffffffffffffffffffff16331461016b576040517f08c379a000000000000000000000000000000000000000000000000000000000815260206004820181905260248201527f4f776e61626c653a2063616c6c6572206973206e6f7420746865206f776e65726044820152606401610272565b6000805473ffffffffffffffffffffffffffffffffffffffff8381167fffffffffffffffffffffffff0000000000000000000000000000000000000000831681178455604051919092169283917f8be0079c531659141344cd1fd0a4f28419497f9722a3daafe3b4186f6b6457e09190a35050565b6000600882604051602001610d319190611088565b604080517fffffffffffffffffffffffffffffffffffffffffffffffffffffffffffffffe08184030181529190528051602090910120901c92915050565b73ffffffffffffffffffffffffffffffffffffffff81168114610c2357600080fd5b8035610d9c81610d6f565b919050565b7f4e487b7100000000000000000000000000000000000000000000000000000000600052604160045260246000fd5b600082601f830112610de157600080fd5b813567ffffffffffffffff80821115610dfc57610dfc610da1565b604051601f83017fffffffffffffffffffffffffffffffffffffffffffffffffffffffffffffffe0908116603f01168101908282118183101715610e4257610e42610da1565b81604052838152866020858801011115610e5b57600080fd5b836020870160208301376000602085830101528094505050505092915050565b6000806000806000806000806000806101408b8d031215610e9b57600080fd5b610ea48b610d91565b9950610eb260208c01610d91565b9850610ec060408c01610d91565b975060608b0135965060808b0135955060a08b0135945060c08b01359350610eea60e08c01610d91565b92506101008b013567ffffffffffffffff80821115610f0857600080fd5b610f148e838f01610dd0565b93506101208d0135915080821115610f2b57600080fd5b50610f388d828e01610dd0565b9150509295989b9194979a5092959850565b806101008101831015610f5c57600080fd5b92915050565b60008060006101408486031215610f7857600080fd5b8335925060208401359150610f908560408601610f4a565b90509250925092565b6000806000806101608587031215610fb057600080fd5b8435610fbb81610d6f565b93506020850135925060408501359150610fd88660608701610f4a565b905092959194509250565b60008060008060006101808688031215610ffc57600080fd5b853561100781610d6f565b9450602086013561101781610d6f565b935060408601359250606086013591506110348760808801610f4a565b90509295509295909350565b60006020828403121561105257600080fd5b813561105d81610d6f565b9392505050565b60005b8381101561107f578181015183820152602001611067565b50506000910152565b6000825161109a818460208701611064565b9190910192915050565b828152600082516110bc816020850160208701611064565b919091016020019392505050565b60006101a0820190508782528660208301528560408301528460608301528360808301526101008360a0840137979650505050505050565b60006020828403121561111457600080fd5b5051919050565b60007fffffffffffffffffffffffffffffffffffffffffffffffffffffffffffffffff8203611173577f4e487b7100000000000000000000000000000000000000000000000000000000600052601160045260246000fd5b5060010190565b60006020828403121561118c57600080fd5b8151801515811461105d57600080fdfea164736f6c6343000813000a",
    "linkReferences": {}
  },
  "methodIdentifiers": {
    "acceptReferral(address,address,uint256,uint256,uint256[8])": "ea6d1433",
    "addReferrer(uint256,uint256,uint256[8])": "c4f757f4",
    "initialize(address,address,address,uint256,uint256,uint256,uint256,address,string,string)": "825e8bcb",
    "owner()": "8da5cb5b",
    "renounceOwnership()": "715018a6",
    "rewardToken()": "f7c618c1",
    "transferOwnership(address)": "f2fde38b",
    "verifyAndExecute(address,uint256,uint256,uint256[8])": "e9b70553"
  },
  "id": 12
}