{
  "abi": [
    {
      "inputs": [],
      "stateMutability": "nonpayable",
      "type": "constructor"
    },
    {
      "anonymous": false,
      "inputs": [
        {
          "indexed": true,
          "internalType": "address",
          "name": "owner",
          "type": "address"
        },
        {
          "indexed": true,
          "internalType": "address",
          "name": "campaign",
          "type": "address"
        },
        {
          "indexed": true,
          "internalType": "uint256",
          "name": "actionId",
          "type": "uint256"
        }
      ],
      "name": "CampaignCreated",
      "type": "event"
    },
    {
      "inputs": [
        {
          "internalType": "address",
          "name": "worldAddress",
          "type": "address"
        },
        {
          "internalType": "address",
          "name": "_campaignTokenContract",
          "type": "address"
        },
        {
          "internalType": "address",
          "name": "_rewardTokenContract",
          "type": "address"
        },
        {
          "internalType": "uint256",
          "name": "_maxReferralsPerReferrer",
          "type": "uint256"
        },
        {
          "internalType": "uint256",
          "name": "_rewardReferrer",
          "type": "uint256"
        },
        {
          "internalType": "uint256",
          "name": "_rewardReferee",
          "type": "uint256"
        },
        {
          "internalType": "uint256",
          "name": "_minCampaignTokenBalance",
          "type": "uint256"
        },
        {
          "internalType": "string",
          "name": "_actionId",
          "type": "string"
        },
        {
          "internalType": "uint256",
          "name": "_actionIdStr",
          "type": "uint256"
        }
      ],
      "name": "addCampaign",
      "outputs": [
        {
          "internalType": "address",
          "name": "",
          "type": "address"
        }
      ],
      "stateMutability": "payable",
      "type": "function"
    },
    {
      "inputs": [
        {
          "internalType": "address",
          "name": "_manager",
          "type": "address"
        }
      ],
      "name": "getCampaigns",
      "outputs": [
        {
          "internalType": "address[]",
          "name": "campaignAddresses",
          "type": "address[]"
        }
      ],
      "stateMutability": "view",
      "type": "function"
    }
  ],
  "bytecode": {
    "object": "0x610100604052602c60a0818152906200214960c03960009062000023908262000123565b503480156200003157600080fd5b50604051620000409062000070565b604051809103906000f0801580156200005d573d6000803e3d6000fd5b506001600160a01b0316608052620001ef565b61147d8062000ccc83390190565b634e487b7160e01b600052604160045260246000fd5b600181811c90821680620000a957607f821691505b602082108103620000ca57634e487b7160e01b600052602260045260246000fd5b50919050565b601f8211156200011e57600081815260208120601f850160051c81016020861015620000f95750805b601f850160051c820191505b818110156200011a5782815560010162000105565b5050505b505050565b81516001600160401b038111156200013f576200013f6200007e565b620001578162000150845462000094565b84620000d0565b602080601f8311600181146200018f5760008415620001765750858301515b600019600386901b1c1916600185901b1785556200011a565b600085815260208120601f198616915b82811015620001c0578886015182559484019460019091019084016200019f565b5085821015620001df5787850151600019600388901b60f8161c191681555b5050505050600190811b01905550565b608051610ac16200020b60003960006102490152610ac16000f3fe6080604052600436106100295760003560e01c80631693bfa11461002e578063ae0741f714610064575b600080fd5b34801561003a57600080fd5b5061004e610049366004610693565b61009c565b60405161005b91906106b5565b60405180910390f35b61007761007236600461073e565b610241565b60405173ffffffffffffffffffffffffffffffffffffffff909116815260200161005b565b73ffffffffffffffffffffffffffffffffffffffff81166000908152600160209081526040808320805482518185028101850190935280835260609493849084015b82821015610178576000848152602090819020604080516101008101825260088602909201805473ffffffffffffffffffffffffffffffffffffffff90811684526001808301548216858701526002830154821693850193909352600382015416606084015260048101546080840152600581015460a0840152600681015460c08401526007015460e083015290835290920191016100de565b505082519293508291505067ffffffffffffffff81111561019b5761019b61070f565b6040519080825280602002602001820160405280156101c4578160200160208202803683370190505b50925060005b81811015610239578281815181106101e4576101e4610870565b60200260200101516000015184828151811061020257610202610870565b73ffffffffffffffffffffffffffffffffffffffff90921660209283029190910190910152806102318161089f565b9150506101ca565b505050919050565b60008061026d7f00000000000000000000000000000000000000000000000000000000000000006105a3565b905060008b90508173ffffffffffffffffffffffffffffffffffffffff1663825e8bcb338d8d8d8d8d8d8960008f6040518b63ffffffff1660e01b81526004016102c09a99989796959493929190610962565b600060405180830381600087803b1580156102da57600080fd5b505af11580156102ee573d6000803e3d6000fd5b5050505060006040518061010001604052808473ffffffffffffffffffffffffffffffffffffffff1681526020013373ffffffffffffffffffffffffffffffffffffffff1681526020018d73ffffffffffffffffffffffffffffffffffffffff1681526020018c73ffffffffffffffffffffffffffffffffffffffff1681526020018b81526020018a8152602001898152602001888152509050600160003373ffffffffffffffffffffffffffffffffffffffff1673ffffffffffffffffffffffffffffffffffffffff16815260200190815260200160002081908060018154018082558091505060019003906000526020600020906008020160009091909190915060008201518160000160006101000a81548173ffffffffffffffffffffffffffffffffffffffff021916908373ffffffffffffffffffffffffffffffffffffffff16021790555060208201518160010160006101000a81548173ffffffffffffffffffffffffffffffffffffffff021916908373ffffffffffffffffffffffffffffffffffffffff16021790555060408201518160020160006101000a81548173ffffffffffffffffffffffffffffffffffffffff021916908373ffffffffffffffffffffffffffffffffffffffff16021790555060608201518160030160006101000a81548173ffffffffffffffffffffffffffffffffffffffff021916908373ffffffffffffffffffffffffffffffffffffffff1602179055506080820151816004015560a0820151816005015560c0820151816006015560e082015181600701555050848373ffffffffffffffffffffffffffffffffffffffff163373ffffffffffffffffffffffffffffffffffffffff167fc5099b671a0e7e75b6a5d731232dc609f91567fd0a1fb5921f49ee14d60a13b960405160405180910390a450909b9a5050505050505050505050565b6000763d602d80600a3d3981f3363d3d373d3d3d363d730000008260601b60e81c176000526e5af43d82803e903d91602b57fd5bf38260781b17602052603760096000f0905073ffffffffffffffffffffffffffffffffffffffff811661066a576040517f08c379a000000000000000000000000000000000000000000000000000000000815260206004820152601660248201527f455243313136373a20637265617465206661696c656400000000000000000000604482015260640160405180910390fd5b919050565b803573ffffffffffffffffffffffffffffffffffffffff8116811461066a57600080fd5b6000602082840312156106a557600080fd5b6106ae8261066f565b9392505050565b6020808252825182820181905260009190848201906040850190845b8181101561070357835173ffffffffffffffffffffffffffffffffffffffff16835292840192918401916001016106d1565b50909695505050505050565b7f4e487b7100000000000000000000000000000000000000000000000000000000600052604160045260246000fd5b60008060008060008060008060006101208a8c03121561075d57600080fd5b6107668a61066f565b985061077460208b0161066f565b975061078260408b0161066f565b965060608a0135955060808a0135945060a08a0135935060c08a0135925060e08a013567ffffffffffffffff808211156107bb57600080fd5b818c0191508c601f8301126107cf57600080fd5b8135818111156107e1576107e161070f565b604051601f82017fffffffffffffffffffffffffffffffffffffffffffffffffffffffffffffffe0908116603f011681019083821181831017156108275761082761070f565b816040528281528f602084870101111561084057600080fd5b8260208601602083013760006020848301015280965050505050506101008a013590509295985092959850929598565b7f4e487b7100000000000000000000000000000000000000000000000000000000600052603260045260246000fd5b60007fffffffffffffffffffffffffffffffffffffffffffffffffffffffffffffffff82036108f7577f4e487b7100000000000000000000000000000000000000000000000000000000600052601160045260246000fd5b5060010190565b6000815180845260005b8181101561092457602081850181015186830182015201610908565b5060006020828601015260207fffffffffffffffffffffffffffffffffffffffffffffffffffffffffffffffe0601f83011685010191505092915050565b600061014073ffffffffffffffffffffffffffffffffffffffff808e1684526020818e1681860152818d1660408601528b60608601528a60808601528960a08601528860c086015281881660e08601528261010086015260009150865482600182811c9150808316806109d657607f831692505b8483108103610a0c577f4e487b710000000000000000000000000000000000000000000000000000000086526022600452602486fd5b95880182815260200195808015610a2a5760018114610a5e57610a89565b7fffffffffffffffffffffffffffffffffffffffffffffffffffffffffffffff008516885283151560051b88019650610a89565b60008c81526020902060005b85811015610a835781548a820152908401908701610a6a565b89019750505b505050505050838103610120850152610aa281866108fe565b9e9d505050505050505050505050505056fea164736f6c6343000813000a60a0604052600060038190556004556001608052600d805462010000600160b01b03191675fec9ad52da5ecc6e7b18225ec517f57276bfbfdf000017905534801561004957600080fd5b5061005333610058565b6100a8565b600080546001600160a01b038381166001600160a01b0319831681178455604051919092169283917f8be0079c531659141344cd1fd0a4f28419497f9722a3daafe3b4186f6b6457e09190a35050565b6080516113ba6100c3600039600061081a01526113ba6000f3fe608060405234801561001057600080fd5b50600436106100be5760003560e01c8063ce638ccd11610076578063ea6d14331161005b578063ea6d1433146101f3578063f2fde38b14610206578063f7c618c11461021957600080fd5b8063ce638ccd1461014d578063e9b70553146101e057600080fd5b8063825e8bcb116100a7578063825e8bcb146100e057806382b2e257146100f35780638da5cb5b1461010e57600080fd5b8063715018a6146100c357806371c9bd16146100cd575b600080fd5b6100cb610239565b005b6100cb6100db366004610fc1565b61024d565b6100cb6100ee3660046110e5565b610322565b6100fb6106c7565b6040519081526020015b60405180910390f35b60005473ffffffffffffffffffffffffffffffffffffffff165b60405173ffffffffffffffffffffffffffffffffffffffff9091168152602001610105565b6100cb61015b3660046111b4565b600d80547fffffffffffffffffffffffffffffffffffffffffffffffffffffffffffff00001661ffff93909316928317905560009182526010602052604090912080547fffffffffffffffffffffffff00000000000000000000000000000000000000001673ffffffffffffffffffffffffffffffffffffffff909216919091179055565b6100cb6101ee366004610fc1565b61077c565b6100cb6102013660046111f4565b6108d8565b6100cb610214366004611251565b610d77565b6001546101289073ffffffffffffffffffffffffffffffffffffffff1681565b610241610e2e565b61024b6000610eaf565b565b336000908152600f6020526040902054156102c9576040517f08c379a000000000000000000000000000000000000000000000000000000000815260206004820152601c60248201527f526566657272657220616c726561647920726567697374657265642e0000000060448201526064015b60405180910390fd5b6102d58484848461077c565b336000818152600f60209081526040918290206001905590519182527f51e6bb66cce1aac9478cbafcad3421bf2a600ce8ec3874296c671ab32c68ce92910160405180910390a150505050565b6000547501000000000000000000000000000000000000000000900460ff161580801561036d575060005460017401000000000000000000000000000000000000000090910460ff16105b8061039f5750303b15801561039f575060005474010000000000000000000000000000000000000000900460ff166001145b61042b576040517f08c379a000000000000000000000000000000000000000000000000000000000815260206004820152602e60248201527f496e697469616c697a61626c653a20636f6e747261637420697320616c72656160448201527f647920696e697469616c697a656400000000000000000000000000000000000060648201526084016102c0565b600080547fffffffffffffffffffffff00ffffffffffffffffffffffffffffffffffffffff167401000000000000000000000000000000000000000017905580156104b157600080547fffffffffffffffffffff00ffffffffffffffffffffffffffffffffffffffffff1675010000000000000000000000000000000000000000001790555b73ffffffffffffffffffffffffffffffffffffffff8916610553576040517f08c379a0000000000000000000000000000000000000000000000000000000008152602060048201526024808201527f5f726577617264546f6b656e436f6e7472616374206d7573742062652064656660448201527f696e65640000000000000000000000000000000000000000000000000000000060648201526084016102c0565b6001805473ffffffffffffffffffffffffffffffffffffffff808c167fffffffffffffffffffffffff00000000000000000000000000000000000000009283168117909355600280548f831690841617905560058054918e1691831691909117905560078054909116909117905560088890556009879055600a869055600685905560405161061490610602906105ee908690602001611299565b604051602081830303815290604052610f24565b836040516020016105ee9291906112b5565b600c55600b80547fffffffffffffffffffffffff00000000000000000000000000000000000000001673ffffffffffffffffffffffffffffffffffffffff861617905580156106ba57600080547fffffffffffffffffffff00ffffffffffffffffffffffffffffffffffffffffff169055604051600181527f7f26b83ff96e1f2b6a682f133852f6798a09c465da95921460cefb38474024989060200160405180910390a15b5050505050505050505050565b600d546005546040517f99f0475d00000000000000000000000000000000000000000000000000000000815233600482015273ffffffffffffffffffffffffffffffffffffffff918216602482015261ffff83166044820152600092620100009004909116906399f0475d90606401602060405180830381865afa158015610753573d6000803e3d6000fd5b505050506040513d601f19601f8201168201806040525081019061077791906112db565b905090565b6000828152600e602052604090205460ff16156107c5576040517f5d904cb200000000000000000000000000000000000000000000000000000000815260040160405180910390fd5b600b546040517fffffffffffffffffffffffffffffffffffffffff000000000000000000000000606087901b16602082015273ffffffffffffffffffffffffffffffffffffffff90911690633bc778e39085907f000000000000000000000000000000000000000000000000000000000000000090610846906034016105ee565b86600c54876040518763ffffffff1660e01b815260040161086c969594939291906112f4565b60006040518083038186803b15801561088457600080fd5b505afa158015610898573d6000803e3d6000fd5b50505060009283525050600e6020526040902080547fffffffffffffffffffffffffffffffffffffffffffffffffffffffffffffff001660011790555050565b73ffffffffffffffffffffffffffffffffffffffff85166000908152600f6020526040902054339061098c576040517f08c379a000000000000000000000000000000000000000000000000000000000815260206004820152602d60248201527f5265666572726572206973206e6f74207265676973746572656420666f72207460448201527f6869732063616d706169676e2e0000000000000000000000000000000000000060648201526084016102c0565b60085473ffffffffffffffffffffffffffffffffffffffff87166000908152600f60205260409020541115610a43576040517f08c379a000000000000000000000000000000000000000000000000000000000815260206004820152602b60248201527f52656665727265722068617320616c726561647920636c61696d656420616c6c60448201527f20726566657272616c732e00000000000000000000000000000000000000000060648201526084016102c0565b600d546005546040517f99f0475d00000000000000000000000000000000000000000000000000000000815233600482015273ffffffffffffffffffffffffffffffffffffffff918216602482015261ffff83166044820152600092620100009004909116906399f0475d90606401602060405180830381865afa158015610acf573d6000803e3d6000fd5b505050506040513d601f19601f82011682018060405250810190610af391906112db565b9050600654811015610b87576040517f08c379a000000000000000000000000000000000000000000000000000000000815260206004820152603960248201527f526566657272656520646f6573206e6f74206861766520656e6f75676820636160448201527f6d706169676e20746f6b656e7320746f207175616c6966792e0000000000000060648201526084016102c0565b610b938686868661077c565b73ffffffffffffffffffffffffffffffffffffffff87166000908152600f60205260408120805491610bc48361132c565b90915550506001546002546009546040517f23b872dd00000000000000000000000000000000000000000000000000000000815273ffffffffffffffffffffffffffffffffffffffff92831660048201528a8316602482015260448101919091529116906323b872dd906064016020604051808303816000875af1158015610c50573d6000803e3d6000fd5b505050506040513d601f19601f82011682018060405250810190610c74919061138b565b50600154600254600a546040517f23b872dd00000000000000000000000000000000000000000000000000000000815273ffffffffffffffffffffffffffffffffffffffff9283166004820152858316602482015260448101919091529116906323b872dd906064016020604051808303816000875af1158015610cfc573d6000803e3d6000fd5b505050506040513d601f19601f82011682018060405250810190610d20919061138b565b5060405173ffffffffffffffffffffffffffffffffffffffff88811682528316907fa210dbb8c2909935d210f02b66dcf95102c65f568cf1a504024641a45165724f9060200160405180910390a250505050505050565b610d7f610e2e565b73ffffffffffffffffffffffffffffffffffffffff8116610e22576040517f08c379a000000000000000000000000000000000000000000000000000000000815260206004820152602660248201527f4f776e61626c653a206e6577206f776e657220697320746865207a65726f206160448201527f646472657373000000000000000000000000000000000000000000000000000060648201526084016102c0565b610e2b81610eaf565b50565b60005473ffffffffffffffffffffffffffffffffffffffff16331461024b576040517f08c379a000000000000000000000000000000000000000000000000000000000815260206004820181905260248201527f4f776e61626c653a2063616c6c6572206973206e6f7420746865206f776e657260448201526064016102c0565b6000805473ffffffffffffffffffffffffffffffffffffffff8381167fffffffffffffffffffffffff0000000000000000000000000000000000000000831681178455604051919092169283917f8be0079c531659141344cd1fd0a4f28419497f9722a3daafe3b4186f6b6457e09190a35050565b6000600882604051602001610f399190611299565b604080517fffffffffffffffffffffffffffffffffffffffffffffffffffffffffffffffe08184030181529190528051602090910120901c92915050565b73ffffffffffffffffffffffffffffffffffffffff81168114610e2b57600080fd5b8035610fa481610f77565b919050565b806101008101831015610fbb57600080fd5b92915050565b6000806000806101608587031215610fd857600080fd5b8435610fe381610f77565b935060208501359250604085013591506110008660608701610fa9565b905092959194509250565b7f4e487b7100000000000000000000000000000000000000000000000000000000600052604160045260246000fd5b600082601f83011261104b57600080fd5b813567ffffffffffffffff808211156110665761106661100b565b604051601f83017fffffffffffffffffffffffffffffffffffffffffffffffffffffffffffffffe0908116603f011681019082821181831017156110ac576110ac61100b565b816040528381528660208588010111156110c557600080fd5b836020870160208301376000602085830101528094505050505092915050565b6000806000806000806000806000806101408b8d03121561110557600080fd5b61110e8b610f99565b995061111c60208c01610f99565b985061112a60408c01610f99565b975060608b0135965060808b0135955060a08b0135945060c08b0135935061115460e08c01610f99565b92506101008b013567ffffffffffffffff8082111561117257600080fd5b61117e8e838f0161103a565b93506101208d013591508082111561119557600080fd5b506111a28d828e0161103a565b9150509295989b9194979a5092959850565b600080604083850312156111c757600080fd5b823561ffff811681146111d957600080fd5b915060208301356111e981610f77565b809150509250929050565b6000806000806000610180868803121561120d57600080fd5b853561121881610f77565b9450602086013561122881610f77565b935060408601359250606086013591506112458760808801610fa9565b90509295509295909350565b60006020828403121561126357600080fd5b813561126e81610f77565b9392505050565b60005b83811015611290578181015183820152602001611278565b50506000910152565b600082516112ab818460208701611275565b9190910192915050565b828152600082516112cd816020850160208701611275565b919091016020019392505050565b6000602082840312156112ed57600080fd5b5051919050565b60006101a0820190508782528660208301528560408301528460608301528360808301526101008360a0840137979650505050505050565b60007fffffffffffffffffffffffffffffffffffffffffffffffffffffffffffffffff8203611384577f4e487b7100000000000000000000000000000000000000000000000000000000600052601160045260246000fd5b5060010190565b60006020828403121561139d57600080fd5b8151801515811461126e57600080fdfea164736f6c6343000813000a6170705f73746167696e675f6637363835376261613934616339656631656335336638366262656363636261",
    "linkReferences": {}
  },
  "methodIdentifiers": {
    "addCampaign(address,address,address,uint256,uint256,uint256,uint256,string,uint256)": "ae0741f7",
    "getCampaigns(address)": "1693bfa1"
  },
  "id": 10
}