{
  "abi": [
    {
      "anonymous": false,
      "inputs": [
        {
          "indexed": false,
          "internalType": "uint8",
          "name": "version",
          "type": "uint8"
        }
      ],
      "name": "Initialized",
      "type": "event"
    },
    {
      "anonymous": false,
      "inputs": [
        {
          "indexed": true,
          "internalType": "address",
          "name": "previousOwner",
          "type": "address"
        },
        {
          "indexed": true,
          "internalType": "address",
          "name": "newOwner",
          "type": "address"
        }
      ],
      "name": "OwnershipTransferred",
      "type": "event"
    },
    {
      "anonymous": false,
      "inputs": [
        {
          "indexed": false,
          "internalType": "address",
          "name": "",
          "type": "address"
        }
      ],
      "name": "ReferrerAdded",
      "type": "event"
    },
    {
      "anonymous": false,
      "inputs": [
        {
          "indexed": false,
          "internalType": "string",
          "name": "",
          "type": "string"
        }
      ],
      "name": "Welcomed",
      "type": "event"
    },
    {
      "inputs": [
        {
          "internalType": "uint256",
          "name": "merkle",
          "type": "uint256"
        },
        {
          "internalType": "uint256[1]",
          "name": "proof",
          "type": "uint256[1]"
        }
      ],
      "name": "hello",
      "outputs": [
        {
          "internalType": "string",
          "name": "",
          "type": "string"
        }
      ],
      "stateMutability": "nonpayable",
      "type": "function"
    },
    {
      "inputs": [
        {
          "internalType": "uint256",
          "name": "root",
          "type": "uint256"
        },
        {
          "internalType": "uint256",
          "name": "nullifierHash",
          "type": "uint256"
        },
        {
          "internalType": "uint256[1]",
          "name": "proof",
          "type": "uint256[1]"
        }
      ],
      "name": "hello2",
      "outputs": [],
      "stateMutability": "nonpayable",
      "type": "function"
    },
    {
      "inputs": [
        {
          "internalType": "uint256",
          "name": "val",
          "type": "uint256"
        }
      ],
      "name": "hellov",
      "outputs": [],
      "stateMutability": "nonpayable",
      "type": "function"
    },
    {
      "inputs": [
        {
          "internalType": "address",
          "name": "_manager",
          "type": "address"
        },
        {
          "internalType": "address",
          "name": "_campaignTokenContract",
          "type": "address"
        }
      ],
      "name": "initialize",
      "outputs": [],
      "stateMutability": "nonpayable",
      "type": "function"
    },
    {
      "inputs": [],
      "name": "owner",
      "outputs": [
        {
          "internalType": "address",
          "name": "",
          "type": "address"
        }
      ],
      "stateMutability": "view",
      "type": "function"
    },
    {
      "inputs": [],
      "name": "renounceOwnership",
      "outputs": [],
      "stateMutability": "nonpayable",
      "type": "function"
    },
    {
      "inputs": [
        {
          "internalType": "address",
          "name": "newOwner",
          "type": "address"
        }
      ],
      "name": "transferOwnership",
      "outputs": [],
      "stateMutability": "nonpayable",
      "type": "function"
    }
  ],
  "bytecode": {
    "object": "0x608060405234801561001057600080fd5b5061001a3361001f565b61006f565b600080546001600160a01b038381166001600160a01b0319831681178455604051919092169283917f8be0079c531659141344cd1fd0a4f28419497f9722a3daafe3b4186f6b6457e09190a35050565b6108c58061007e6000396000f3fe608060405234801561001057600080fd5b506004361061007d5760003560e01c80638d6467071161005b5780638d646707146100b25780638da5cb5b146100c5578063c567acec146100f2578063f2fde38b1461011257600080fd5b8063014506d514610082578063485cc95514610097578063715018a6146100aa575b600080fd5b610095610090366004610710565b610125565b005b6100956100a5366004610752565b610197565b6100956103e3565b6100956100c0366004610796565b6103f7565b60005460405173ffffffffffffffffffffffffffffffffffffffff90911681526020015b60405180910390f35b6101056101003660046107cc565b6104b2565b6040516100e991906107f0565b61009561012036600461085c565b610566565b60018110610194576040517f08c379a000000000000000000000000000000000000000000000000000000000815260206004820152601760248201527f56616c75652063616e277420626520706f73697469766500000000000000000060448201526064015b60405180910390fd5b50565b6000547501000000000000000000000000000000000000000000900460ff16158080156101e2575060005460017401000000000000000000000000000000000000000090910460ff16105b806102145750303b158015610214575060005474010000000000000000000000000000000000000000900460ff166001145b6102a0576040517f08c379a000000000000000000000000000000000000000000000000000000000815260206004820152602e60248201527f496e697469616c697a61626c653a20636f6e747261637420697320616c72656160448201527f647920696e697469616c697a6564000000000000000000000000000000000000606482015260840161018b565b600080547fffffffffffffffffffffff00ffffffffffffffffffffffffffffffffffffffff1674010000000000000000000000000000000000000000179055801561032657600080547fffffffffffffffffffff00ffffffffffffffffffffffffffffffffffffffffff1675010000000000000000000000000000000000000000001790555b6001805473ffffffffffffffffffffffffffffffffffffffff8086167fffffffffffffffffffffffff0000000000000000000000000000000000000000928316178355600280549186169190921617905560035580156103de57600080547fffffffffffffffffffff00ffffffffffffffffffffffffffffffffffffffffff169055604051600181527f7f26b83ff96e1f2b6a682f133852f6798a09c465da95921460cefb3847402498906020015b60405180910390a15b505050565b6103eb61061a565b6103f5600061069b565b565b336000908152600460205260409020541561046e576040517f08c379a000000000000000000000000000000000000000000000000000000000815260206004820152601c60248201527f526566657272657220616c726561647920726567697374657265642e00000000604482015260640161018b565b336000818152600460209081526040918290206001905590519182527f51e6bb66cce1aac9478cbafcad3421bf2a600ce8ec3874296c671ab32c68ce9291016103d5565b60606104bf82358461087e565b6003556040517f29cc34d69fb032ba092a839e5a451a8c1ed8e18e859e6ac8f55ca97886c32717906105229060208082526008908201527f73757020626f7373000000000000000000000000000000000000000000000000604082015260600190565b60405180910390a15060408051808201909152600881527f73757020626f737300000000000000000000000000000000000000000000000060208201525b92915050565b61056e61061a565b73ffffffffffffffffffffffffffffffffffffffff8116610611576040517f08c379a000000000000000000000000000000000000000000000000000000000815260206004820152602660248201527f4f776e61626c653a206e6577206f776e657220697320746865207a65726f206160448201527f6464726573730000000000000000000000000000000000000000000000000000606482015260840161018b565b6101948161069b565b60005473ffffffffffffffffffffffffffffffffffffffff1633146103f5576040517f08c379a000000000000000000000000000000000000000000000000000000000815260206004820181905260248201527f4f776e61626c653a2063616c6c6572206973206e6f7420746865206f776e6572604482015260640161018b565b6000805473ffffffffffffffffffffffffffffffffffffffff8381167fffffffffffffffffffffffff0000000000000000000000000000000000000000831681178455604051919092169283917f8be0079c531659141344cd1fd0a4f28419497f9722a3daafe3b4186f6b6457e09190a35050565b60006020828403121561072257600080fd5b5035919050565b803573ffffffffffffffffffffffffffffffffffffffff8116811461074d57600080fd5b919050565b6000806040838503121561076557600080fd5b61076e83610729565b915061077c60208401610729565b90509250929050565b806020810183101561056057600080fd5b6000806000606084860312156107ab57600080fd5b83359250602084013591506107c38560408601610785565b90509250925092565b600080604083850312156107df57600080fd5b8235915061077c8460208501610785565b600060208083528351808285015260005b8181101561081d57858101830151858201604001528201610801565b5060006040828601015260407fffffffffffffffffffffffffffffffffffffffffffffffffffffffffffffffe0601f8301168501019250505092915050565b60006020828403121561086e57600080fd5b61087782610729565b9392505050565b80820180821115610560577f4e487b7100000000000000000000000000000000000000000000000000000000600052601160045260246000fdfea164736f6c6343000813000a",
    "linkReferences": {}
  },
  "methodIdentifiers": {
    "hello(uint256,uint256[1])": "c567acec",
    "hello2(uint256,uint256,uint256[1])": "8d646707",
    "hellov(uint256)": "014506d5",
    "initialize(address,address)": "485cc955",
    "owner()": "8da5cb5b",
    "renounceOwnership()": "715018a6",
    "transferOwnership(address)": "f2fde38b"
  },
  "id": 13
}