{
  "abi": [
    {
      "anonymous": false,
      "inputs": [
        {
          "indexed": false,
          "internalType": "uint8",
          "name": "version",
          "type": "uint8"
        }
      ],
      "name": "Initialized",
      "type": "event"
    },
    {
      "anonymous": false,
      "inputs": [
        {
          "indexed": true,
          "internalType": "address",
          "name": "previousOwner",
          "type": "address"
        },
        {
          "indexed": true,
          "internalType": "address",
          "name": "newOwner",
          "type": "address"
        }
      ],
      "name": "OwnershipTransferred",
      "type": "event"
    },
    {
      "anonymous": false,
      "inputs": [
        {
          "indexed": false,
          "internalType": "string",
          "name": "",
          "type": "string"
        }
      ],
      "name": "Welcomed",
      "type": "event"
    },
    {
      "inputs": [
        {
          "internalType": "uint256",
          "name": "merkle",
          "type": "uint256"
        },
        {
          "internalType": "uint256[1]",
          "name": "proof",
          "type": "uint256[1]"
        }
      ],
      "name": "hello",
      "outputs": [
        {
          "internalType": "string",
          "name": "",
          "type": "string"
        }
      ],
      "stateMutability": "nonpayable",
      "type": "function"
    },
    {
      "inputs": [
        {
          "internalType": "uint256",
          "name": "val",
          "type": "uint256"
        }
      ],
      "name": "hellov",
      "outputs": [],
      "stateMutability": "nonpayable",
      "type": "function"
    },
    {
      "inputs": [
        {
          "internalType": "address",
          "name": "_manager",
          "type": "address"
        },
        {
          "internalType": "address",
          "name": "_campaignTokenContract",
          "type": "address"
        }
      ],
      "name": "initialize",
      "outputs": [],
      "stateMutability": "nonpayable",
      "type": "function"
    },
    {
      "inputs": [],
      "name": "owner",
      "outputs": [
        {
          "internalType": "address",
          "name": "",
          "type": "address"
        }
      ],
      "stateMutability": "view",
      "type": "function"
    },
    {
      "inputs": [],
      "name": "renounceOwnership",
      "outputs": [],
      "stateMutability": "nonpayable",
      "type": "function"
    },
    {
      "inputs": [
        {
          "internalType": "address",
          "name": "newOwner",
          "type": "address"
        }
      ],
      "name": "transferOwnership",
      "outputs": [],
      "stateMutability": "nonpayable",
      "type": "function"
    }
  ],
  "bytecode": {
    "object": "0x608060405234801561001057600080fd5b5061001a3361001f565b61006f565b600080546001600160a01b038381166001600160a01b0319831681178455604051919092169283917f8be0079c531659141344cd1fd0a4f28419497f9722a3daafe3b4186f6b6457e09190a35050565b6107b38061007e6000396000f3fe608060405234801561001057600080fd5b50600436106100725760003560e01c80638da5cb5b116100505780638da5cb5b146100a7578063c567acec146100d4578063f2fde38b146100f457600080fd5b8063014506d514610077578063485cc9551461008c578063715018a61461009f575b600080fd5b61008a610085366004610636565b610107565b005b61008a61009a366004610678565b610179565b61008a6103c4565b60005460405173ffffffffffffffffffffffffffffffffffffffff90911681526020015b60405180910390f35b6100e76100e23660046106ab565b6103d8565b6040516100cb91906106de565b61008a61010236600461074a565b61048c565b60018110610176576040517f08c379a000000000000000000000000000000000000000000000000000000000815260206004820152601760248201527f56616c75652063616e277420626520706f73697469766500000000000000000060448201526064015b60405180910390fd5b50565b6000547501000000000000000000000000000000000000000000900460ff16158080156101c4575060005460017401000000000000000000000000000000000000000090910460ff16105b806101f65750303b1580156101f6575060005474010000000000000000000000000000000000000000900460ff166001145b610282576040517f08c379a000000000000000000000000000000000000000000000000000000000815260206004820152602e60248201527f496e697469616c697a61626c653a20636f6e747261637420697320616c72656160448201527f647920696e697469616c697a6564000000000000000000000000000000000000606482015260840161016d565b600080547fffffffffffffffffffffff00ffffffffffffffffffffffffffffffffffffffff1674010000000000000000000000000000000000000000179055801561030857600080547fffffffffffffffffffff00ffffffffffffffffffffffffffffffffffffffffff1675010000000000000000000000000000000000000000001790555b6001805473ffffffffffffffffffffffffffffffffffffffff8086167fffffffffffffffffffffffff0000000000000000000000000000000000000000928316178355600280549186169190921617905560035580156103bf57600080547fffffffffffffffffffff00ffffffffffffffffffffffffffffffffffffffffff169055604051600181527f7f26b83ff96e1f2b6a682f133852f6798a09c465da95921460cefb38474024989060200160405180910390a15b505050565b6103cc610540565b6103d660006105c1565b565b60606103e582358461076c565b6003556040517f29cc34d69fb032ba092a839e5a451a8c1ed8e18e859e6ac8f55ca97886c32717906104489060208082526008908201527f73757020626f7373000000000000000000000000000000000000000000000000604082015260600190565b60405180910390a15060408051808201909152600881527f73757020626f737300000000000000000000000000000000000000000000000060208201525b92915050565b610494610540565b73ffffffffffffffffffffffffffffffffffffffff8116610537576040517f08c379a000000000000000000000000000000000000000000000000000000000815260206004820152602660248201527f4f776e61626c653a206e6577206f776e657220697320746865207a65726f206160448201527f6464726573730000000000000000000000000000000000000000000000000000606482015260840161016d565b610176816105c1565b60005473ffffffffffffffffffffffffffffffffffffffff1633146103d6576040517f08c379a000000000000000000000000000000000000000000000000000000000815260206004820181905260248201527f4f776e61626c653a2063616c6c6572206973206e6f7420746865206f776e6572604482015260640161016d565b6000805473ffffffffffffffffffffffffffffffffffffffff8381167fffffffffffffffffffffffff0000000000000000000000000000000000000000831681178455604051919092169283917f8be0079c531659141344cd1fd0a4f28419497f9722a3daafe3b4186f6b6457e09190a35050565b60006020828403121561064857600080fd5b5035919050565b803573ffffffffffffffffffffffffffffffffffffffff8116811461067357600080fd5b919050565b6000806040838503121561068b57600080fd5b6106948361064f565b91506106a26020840161064f565b90509250929050565b600080604083850312156106be57600080fd5b82359150836040840111156106d257600080fd5b50926020919091019150565b600060208083528351808285015260005b8181101561070b578581018301518582016040015282016106ef565b5060006040828601015260407fffffffffffffffffffffffffffffffffffffffffffffffffffffffffffffffe0601f8301168501019250505092915050565b60006020828403121561075c57600080fd5b6107658261064f565b9392505050565b80820180821115610486577f4e487b7100000000000000000000000000000000000000000000000000000000600052601160045260246000fdfea164736f6c6343000813000a",
    "linkReferences": {}
  },
  "methodIdentifiers": {
    "hello(uint256,uint256[1])": "c567acec",
    "hellov(uint256)": "014506d5",
    "initialize(address,address)": "485cc955",
    "owner()": "8da5cb5b",
    "renounceOwnership()": "715018a6",
    "transferOwnership(address)": "f2fde38b"
  },
  "id": 8
}