{
  "abi": [
    {
      "inputs": [
        {
          "internalType": "address",
          "name": "_lzEndpoint",
          "type": "address"
        }
      ],
      "stateMutability": "nonpayable",
      "type": "constructor"
    },
    {
      "anonymous": false,
      "inputs": [
        {
          "indexed": false,
          "internalType": "uint16",
          "name": "_srcChainId",
          "type": "uint16"
        },
        {
          "indexed": false,
          "internalType": "bytes",
          "name": "_srcAddress",
          "type": "bytes"
        },
        {
          "indexed": false,
          "internalType": "uint64",
          "name": "_nonce",
          "type": "uint64"
        },
        {
          "indexed": false,
          "internalType": "bytes",
          "name": "_payload",
          "type": "bytes"
        },
        {
          "indexed": false,
          "internalType": "bytes",
          "name": "_reason",
          "type": "bytes"
        }
      ],
      "name": "MessageFailed",
      "type": "event"
    },
    {
      "anonymous": false,
      "inputs": [
        {
          "indexed": true,
          "internalType": "address",
          "name": "previousOwner",
          "type": "address"
        },
        {
          "indexed": true,
          "internalType": "address",
          "name": "newOwner",
          "type": "address"
        }
      ],
      "name": "OwnershipTransferred",
      "type": "event"
    },
    {
      "anonymous": false,
      "inputs": [
        {
          "indexed": false,
          "internalType": "address",
          "name": "",
          "type": "address"
        },
        {
          "indexed": false,
          "internalType": "address",
          "name": "",
          "type": "address"
        },
        {
          "indexed": false,
          "internalType": "uint256",
          "name": "",
          "type": "uint256"
        },
        {
          "indexed": false,
          "internalType": "uint16",
          "name": "",
          "type": "uint16"
        }
      ],
      "name": "RecievedMessage",
      "type": "event"
    },
    {
      "anonymous": false,
      "inputs": [
        {
          "indexed": false,
          "internalType": "uint16",
          "name": "_srcChainId",
          "type": "uint16"
        },
        {
          "indexed": false,
          "internalType": "bytes",
          "name": "_srcAddress",
          "type": "bytes"
        },
        {
          "indexed": false,
          "internalType": "uint64",
          "name": "_nonce",
          "type": "uint64"
        },
        {
          "indexed": false,
          "internalType": "bytes32",
          "name": "_payloadHash",
          "type": "bytes32"
        }
      ],
      "name": "RetryMessageSuccess",
      "type": "event"
    },
    {
      "anonymous": false,
      "inputs": [
        {
          "indexed": false,
          "internalType": "uint16",
          "name": "_dstChainId",
          "type": "uint16"
        },
        {
          "indexed": false,
          "internalType": "uint16",
          "name": "_type",
          "type": "uint16"
        },
        {
          "indexed": false,
          "internalType": "uint256",
          "name": "_minDstGas",
          "type": "uint256"
        }
      ],
      "name": "SetMinDstGas",
      "type": "event"
    },
    {
      "anonymous": false,
      "inputs": [
        {
          "indexed": false,
          "internalType": "address",
          "name": "precrime",
          "type": "address"
        }
      ],
      "name": "SetPrecrime",
      "type": "event"
    },
    {
      "anonymous": false,
      "inputs": [
        {
          "indexed": false,
          "internalType": "uint16",
          "name": "_remoteChainId",
          "type": "uint16"
        },
        {
          "indexed": false,
          "internalType": "bytes",
          "name": "_path",
          "type": "bytes"
        }
      ],
      "name": "SetTrustedRemote",
      "type": "event"
    },
    {
      "anonymous": false,
      "inputs": [
        {
          "indexed": false,
          "internalType": "uint16",
          "name": "_remoteChainId",
          "type": "uint16"
        },
        {
          "indexed": false,
          "internalType": "bytes",
          "name": "_remoteAddress",
          "type": "bytes"
        }
      ],
      "name": "SetTrustedRemoteAddress",
      "type": "event"
    },
    {
      "inputs": [],
      "name": "DEFAULT_PAYLOAD_SIZE_LIMIT",
      "outputs": [
        {
          "internalType": "uint256",
          "name": "",
          "type": "uint256"
        }
      ],
      "stateMutability": "view",
      "type": "function"
    },
    {
      "inputs": [
        {
          "internalType": "uint16",
          "name": "_dstChainId",
          "type": "uint16"
        },
        {
          "internalType": "bool",
          "name": "_useZro",
          "type": "bool"
        },
        {
          "internalType": "bytes",
          "name": "_adapterParams",
          "type": "bytes"
        },
        {
          "internalType": "address",
          "name": "_tokenAddress",
          "type": "address"
        }
      ],
      "name": "estimateFee",
      "outputs": [
        {
          "internalType": "uint256",
          "name": "nativeFee",
          "type": "uint256"
        },
        {
          "internalType": "uint256",
          "name": "zroFee",
          "type": "uint256"
        }
      ],
      "stateMutability": "view",
      "type": "function"
    },
    {
      "inputs": [
        {
          "internalType": "uint16",
          "name": "",
          "type": "uint16"
        },
        {
          "internalType": "bytes",
          "name": "",
          "type": "bytes"
        },
        {
          "internalType": "uint64",
          "name": "",
          "type": "uint64"
        }
      ],
      "name": "failedMessages",
      "outputs": [
        {
          "internalType": "bytes32",
          "name": "",
          "type": "bytes32"
        }
      ],
      "stateMutability": "view",
      "type": "function"
    },
    {
      "inputs": [
        {
          "internalType": "uint16",
          "name": "_srcChainId",
          "type": "uint16"
        },
        {
          "internalType": "bytes",
          "name": "_srcAddress",
          "type": "bytes"
        }
      ],
      "name": "forceResumeReceive",
      "outputs": [],
      "stateMutability": "nonpayable",
      "type": "function"
    },
    {
      "inputs": [
        {
          "internalType": "address",
          "name": "_user",
          "type": "address"
        },
        {
          "internalType": "address",
          "name": "_tokenAddress",
          "type": "address"
        },
        {
          "internalType": "uint16",
          "name": "_srcChainId",
          "type": "uint16"
        }
      ],
      "name": "getBalance",
      "outputs": [
        {
          "internalType": "uint256",
          "name": "",
          "type": "uint256"
        }
      ],
      "stateMutability": "view",
      "type": "function"
    },
    {
      "inputs": [
        {
          "internalType": "uint16",
          "name": "_version",
          "type": "uint16"
        },
        {
          "internalType": "uint16",
          "name": "_chainId",
          "type": "uint16"
        },
        {
          "internalType": "address",
          "name": "",
          "type": "address"
        },
        {
          "internalType": "uint256",
          "name": "_configType",
          "type": "uint256"
        }
      ],
      "name": "getConfig",
      "outputs": [
        {
          "internalType": "bytes",
          "name": "",
          "type": "bytes"
        }
      ],
      "stateMutability": "view",
      "type": "function"
    },
    {
      "inputs": [
        {
          "internalType": "uint16",
          "name": "remoteChainId",
          "type": "uint16"
        }
      ],
      "name": "getOracle",
      "outputs": [
        {
          "internalType": "address",
          "name": "_oracle",
          "type": "address"
        }
      ],
      "stateMutability": "view",
      "type": "function"
    },
    {
      "inputs": [
        {
          "internalType": "uint16",
          "name": "_remoteChainId",
          "type": "uint16"
        }
      ],
      "name": "getTrustedRemoteAddress",
      "outputs": [
        {
          "internalType": "bytes",
          "name": "",
          "type": "bytes"
        }
      ],
      "stateMutability": "view",
      "type": "function"
    },
    {
      "inputs": [
        {
          "internalType": "uint16",
          "name": "_srcChainId",
          "type": "uint16"
        },
        {
          "internalType": "bytes",
          "name": "_srcAddress",
          "type": "bytes"
        }
      ],
      "name": "isTrustedRemote",
      "outputs": [
        {
          "internalType": "bool",
          "name": "",
          "type": "bool"
        }
      ],
      "stateMutability": "view",
      "type": "function"
    },
    {
      "inputs": [],
      "name": "lzEndpoint",
      "outputs": [
        {
          "internalType": "contract ILayerZeroEndpoint",
          "name": "",
          "type": "address"
        }
      ],
      "stateMutability": "view",
      "type": "function"
    },
    {
      "inputs": [
        {
          "internalType": "uint16",
          "name": "_srcChainId",
          "type": "uint16"
        },
        {
          "internalType": "bytes",
          "name": "_srcAddress",
          "type": "bytes"
        },
        {
          "internalType": "uint64",
          "name": "_nonce",
          "type": "uint64"
        },
        {
          "internalType": "bytes",
          "name": "_payload",
          "type": "bytes"
        }
      ],
      "name": "lzReceive",
      "outputs": [],
      "stateMutability": "nonpayable",
      "type": "function"
    },
    {
      "inputs": [
        {
          "internalType": "uint16",
          "name": "",
          "type": "uint16"
        },
        {
          "internalType": "uint16",
          "name": "",
          "type": "uint16"
        }
      ],
      "name": "minDstGasLookup",
      "outputs": [
        {
          "internalType": "uint256",
          "name": "",
          "type": "uint256"
        }
      ],
      "stateMutability": "view",
      "type": "function"
    },
    {
      "inputs": [
        {
          "internalType": "uint16",
          "name": "_srcChainId",
          "type": "uint16"
        },
        {
          "internalType": "bytes",
          "name": "_srcAddress",
          "type": "bytes"
        },
        {
          "internalType": "uint64",
          "name": "_nonce",
          "type": "uint64"
        },
        {
          "internalType": "bytes",
          "name": "_payload",
          "type": "bytes"
        }
      ],
      "name": "nonblockingLzReceive",
      "outputs": [],
      "stateMutability": "nonpayable",
      "type": "function"
    },
    {
      "inputs": [],
      "name": "owner",
      "outputs": [
        {
          "internalType": "address",
          "name": "",
          "type": "address"
        }
      ],
      "stateMutability": "view",
      "type": "function"
    },
    {
      "inputs": [
        {
          "internalType": "uint16",
          "name": "",
          "type": "uint16"
        }
      ],
      "name": "payloadSizeLimitLookup",
      "outputs": [
        {
          "internalType": "uint256",
          "name": "",
          "type": "uint256"
        }
      ],
      "stateMutability": "view",
      "type": "function"
    },
    {
      "inputs": [],
      "name": "precrime",
      "outputs": [
        {
          "internalType": "address",
          "name": "",
          "type": "address"
        }
      ],
      "stateMutability": "view",
      "type": "function"
    },
    {
      "inputs": [],
      "name": "renounceOwnership",
      "outputs": [],
      "stateMutability": "nonpayable",
      "type": "function"
    },
    {
      "inputs": [
        {
          "internalType": "uint16",
          "name": "_srcChainId",
          "type": "uint16"
        },
        {
          "internalType": "bytes",
          "name": "_srcAddress",
          "type": "bytes"
        },
        {
          "internalType": "uint64",
          "name": "_nonce",
          "type": "uint64"
        },
        {
          "internalType": "bytes",
          "name": "_payload",
          "type": "bytes"
        }
      ],
      "name": "retryMessage",
      "outputs": [],
      "stateMutability": "payable",
      "type": "function"
    },
    {
      "inputs": [
        {
          "internalType": "uint16",
          "name": "_dstChainId",
          "type": "uint16"
        },
        {
          "internalType": "address",
          "name": "_tokenAddress",
          "type": "address"
        }
      ],
      "name": "send",
      "outputs": [],
      "stateMutability": "payable",
      "type": "function"
    },
    {
      "inputs": [
        {
          "internalType": "uint16",
          "name": "_version",
          "type": "uint16"
        },
        {
          "internalType": "uint16",
          "name": "_chainId",
          "type": "uint16"
        },
        {
          "internalType": "uint256",
          "name": "_configType",
          "type": "uint256"
        },
        {
          "internalType": "bytes",
          "name": "_config",
          "type": "bytes"
        }
      ],
      "name": "setConfig",
      "outputs": [],
      "stateMutability": "nonpayable",
      "type": "function"
    },
    {
      "inputs": [
        {
          "internalType": "uint16",
          "name": "_dstChainId",
          "type": "uint16"
        },
        {
          "internalType": "uint16",
          "name": "_packetType",
          "type": "uint16"
        },
        {
          "internalType": "uint256",
          "name": "_minGas",
          "type": "uint256"
        }
      ],
      "name": "setMinDstGas",
      "outputs": [],
      "stateMutability": "nonpayable",
      "type": "function"
    },
    {
      "inputs": [
        {
          "internalType": "uint16",
          "name": "dstChainId",
          "type": "uint16"
        },
        {
          "internalType": "address",
          "name": "oracle",
          "type": "address"
        }
      ],
      "name": "setOracle",
      "outputs": [],
      "stateMutability": "nonpayable",
      "type": "function"
    },
    {
      "inputs": [
        {
          "internalType": "uint16",
          "name": "_dstChainId",
          "type": "uint16"
        },
        {
          "internalType": "uint256",
          "name": "_size",
          "type": "uint256"
        }
      ],
      "name": "setPayloadSizeLimit",
      "outputs": [],
      "stateMutability": "nonpayable",
      "type": "function"
    },
    {
      "inputs": [
        {
          "internalType": "address",
          "name": "_precrime",
          "type": "address"
        }
      ],
      "name": "setPrecrime",
      "outputs": [],
      "stateMutability": "nonpayable",
      "type": "function"
    },
    {
      "inputs": [
        {
          "internalType": "uint16",
          "name": "_version",
          "type": "uint16"
        }
      ],
      "name": "setReceiveVersion",
      "outputs": [],
      "stateMutability": "nonpayable",
      "type": "function"
    },
    {
      "inputs": [
        {
          "internalType": "uint16",
          "name": "_version",
          "type": "uint16"
        }
      ],
      "name": "setSendVersion",
      "outputs": [],
      "stateMutability": "nonpayable",
      "type": "function"
    },
    {
      "inputs": [
        {
          "internalType": "uint16",
          "name": "_remoteChainId",
          "type": "uint16"
        },
        {
          "internalType": "bytes",
          "name": "_path",
          "type": "bytes"
        }
      ],
      "name": "setTrustedRemote",
      "outputs": [],
      "stateMutability": "nonpayable",
      "type": "function"
    },
    {
      "inputs": [
        {
          "internalType": "uint16",
          "name": "_remoteChainId",
          "type": "uint16"
        },
        {
          "internalType": "bytes",
          "name": "_remoteAddress",
          "type": "bytes"
        }
      ],
      "name": "setTrustedRemoteAddress",
      "outputs": [],
      "stateMutability": "nonpayable",
      "type": "function"
    },
    {
      "inputs": [],
      "name": "tokenBalance",
      "outputs": [
        {
          "internalType": "uint256",
          "name": "",
          "type": "uint256"
        }
      ],
      "stateMutability": "view",
      "type": "function"
    },
    {
      "inputs": [
        {
          "internalType": "address",
          "name": "newOwner",
          "type": "address"
        }
      ],
      "name": "transferOwnership",
      "outputs": [],
      "stateMutability": "nonpayable",
      "type": "function"
    },
    {
      "inputs": [
        {
          "internalType": "uint16",
          "name": "",
          "type": "uint16"
        }
      ],
      "name": "trustedRemoteLookup",
      "outputs": [
        {
          "internalType": "bytes",
          "name": "",
          "type": "bytes"
        }
      ],
      "stateMutability": "view",
      "type": "function"
    }
  ],
  "bytecode": {
    "object": "0x60a06040523480156200001157600080fd5b5060405162002d9238038062002d928339810160408190526200003491620000a6565b8080620000413362000056565b6001600160a01b031660805250620000d89050565b600080546001600160a01b038381166001600160a01b0319831681178455604051919092169283917f8be0079c531659141344cd1fd0a4f28419497f9722a3daafe3b4186f6b6457e09190a35050565b600060208284031215620000b957600080fd5b81516001600160a01b0381168114620000d157600080fd5b9392505050565b608051612c586200013a600039600081816105d6015281816107040152818161099001528181610a5e01528181610bb301528181610c5301528181610edc0152818161127d01528181611643015281816118960152611b8d0152612c586000f3fe6080604052600436106101d75760003560e01c80638da5cb5b11610102578063c446183411610095578063e2f2882411610064578063e2f2882414610681578063eb8d72b7146106a1578063f2fde38b146106c1578063f5ecbdbc146106e157600080fd5b8063c446183414610618578063cbed8b9c1461062e578063d1deba1f1461064e578063df2a5b3b1461066157600080fd5b80639f38369a116100d15780639f38369a14610584578063a6c3d165146105a4578063b353aaa7146105c4578063baf3292d146105f857600080fd5b80638da5cb5b1461043f578063950c8a741461048b57806399f0475d146104b85780639e1a4d191461056e57600080fd5b8063492e527e1161017a5780636ec673aa116101495780636ec673aa14610390578063715018a6146103c55780637533d788146103da5780638cfd8f5c1461040757600080fd5b8063492e527e146102ee5780635934d9f51461030e5780635b8c41e61461032157806366ad5c8a1461037057600080fd5b806310ddb137116101b657806310ddb1371461023e5780633d8b38f61461025e5780633f1f4fa41461029357806342d65a8d146102ce57600080fd5b80621d3567146101dc57806307e0db17146101fe5780630df374831461021e575b600080fd5b3480156101e857600080fd5b506101fc6101f7366004612073565b610701565b005b34801561020a57600080fd5b506101fc610219366004612109565b610956565b34801561022a57600080fd5b506101fc610239366004612126565b610a05565b34801561024a57600080fd5b506101fc610259366004612109565b610a24565b34801561026a57600080fd5b5061027e610279366004612152565b610aa2565b60405190151581526020015b60405180910390f35b34801561029f57600080fd5b506102c06102ae366004612109565b60036020526000908152604090205481565b60405190815260200161028a565b3480156102da57600080fd5b506101fc6102e9366004612152565b610b6e565b3480156102fa57600080fd5b506101fc6103093660046121c9565b610c1a565b6101fc61031c3660046121c9565b610d2e565b34801561032d57600080fd5b506102c061033c36600461228a565b6005602090815260009384526040808520845180860184018051928152908401958401959095209452929052825290205481565b34801561037c57600080fd5b506101fc61038b366004612073565b610d85565b34801561039c57600080fd5b506103b06103ab36600461232d565b610e78565b6040805192835260208301919091520161028a565b3480156103d157600080fd5b506101fc610f6a565b3480156103e657600080fd5b506103fa6103f5366004612109565b610f7e565b60405161028a91906123ff565b34801561041357600080fd5b506102c0610422366004612412565b600260209081526000928352604080842090915290825290205481565b34801561044b57600080fd5b5060005473ffffffffffffffffffffffffffffffffffffffff165b60405173ffffffffffffffffffffffffffffffffffffffff909116815260200161028a565b34801561049757600080fd5b506004546104669073ffffffffffffffffffffffffffffffffffffffff1681565b3480156104c457600080fd5b506102c06104d3366004612440565b6040517fffffffffffffffffffffffffffffffffffffffff000000000000000000000000606085811b8216602084015284901b1660348201527fffff00000000000000000000000000000000000000000000000000000000000060f083901b1660488201526000908190604a0160408051808303601f1901815291815281516020928301206000908152600790925290205495945050505050565b34801561057a57600080fd5b506102c060065481565b34801561059057600080fd5b506103fa61059f366004612109565b611018565b3480156105b057600080fd5b506101fc6105bf366004612152565b61112e565b3480156105d057600080fd5b506104667f000000000000000000000000000000000000000000000000000000000000000081565b34801561060457600080fd5b506101fc61061336600461248b565b6111b7565b34801561062457600080fd5b506102c061271081565b34801561063a57600080fd5b506101fc6106493660046124a8565b611238565b6101fc61065c366004612073565b6112f3565b34801561066d57600080fd5b506101fc61067c36600461251b565b611541565b34801561068d57600080fd5b5061046661069c366004612109565b6115fb565b3480156106ad57600080fd5b506101fc6106bc366004612152565b611755565b3480156106cd57600080fd5b506101fc6106dc36600461248b565b6117af565b3480156106ed57600080fd5b506103fa6106fc36600461255c565b61184c565b337f000000000000000000000000000000000000000000000000000000000000000073ffffffffffffffffffffffffffffffffffffffff161461078b5760405162461bcd60e51b815260206004820152601e60248201527f4c7a4170703a20696e76616c696420656e64706f696e742063616c6c6572000060448201526064015b60405180910390fd5b61ffff8616600090815260016020526040812080546107a9906125ad565b80601f01602080910402602001604051908101604052809291908181526020018280546107d5906125ad565b80156108225780601f106107f757610100808354040283529160200191610822565b820191906000526020600020905b81548152906001019060200180831161080557829003601f168201915b5050505050905080518686905014801561083d575060008151115b801561086557508051602082012060405161085b9088908890612600565b6040518091039020145b6108d75760405162461bcd60e51b815260206004820152602660248201527f4c7a4170703a20696e76616c696420736f757263652073656e64696e6720636f60448201527f6e747261637400000000000000000000000000000000000000000000000000006064820152608401610782565b61094d8787878080601f01602080910402602001604051908101604052809392919081815260200183838082843760009201919091525050604080516020601f8a018190048102820181019092528881528a93509150889088908190840183828082843760009201919091525061192392505050565b50505050505050565b61095e6119c9565b6040517f07e0db1700000000000000000000000000000000000000000000000000000000815261ffff821660048201527f000000000000000000000000000000000000000000000000000000000000000073ffffffffffffffffffffffffffffffffffffffff16906307e0db17906024015b600060405180830381600087803b1580156109ea57600080fd5b505af11580156109fe573d6000803e3d6000fd5b5050505050565b610a0d6119c9565b61ffff909116600090815260036020526040902055565b610a2c6119c9565b6040517f10ddb13700000000000000000000000000000000000000000000000000000000815261ffff821660048201527f000000000000000000000000000000000000000000000000000000000000000073ffffffffffffffffffffffffffffffffffffffff16906310ddb137906024016109d0565b61ffff831660009081526001602052604081208054829190610ac3906125ad565b80601f0160208091040260200160405190810160405280929190818152602001828054610aef906125ad565b8015610b3c5780601f10610b1157610100808354040283529160200191610b3c565b820191906000526020600020905b815481529060010190602001808311610b1f57829003601f168201915b505050505090508383604051610b53929190612600565b60405180910390208180519060200120149150509392505050565b610b766119c9565b6040517f42d65a8d00000000000000000000000000000000000000000000000000000000815273ffffffffffffffffffffffffffffffffffffffff7f000000000000000000000000000000000000000000000000000000000000000016906342d65a8d90610bec9086908690869060040161263b565b600060405180830381600087803b158015610c0657600080fd5b505af115801561094d573d6000803e3d6000fd5b610c226119c9565b6040517f096568f60000000000000000000000000000000000000000000000000000000081523060048201526006907f000000000000000000000000000000000000000000000000000000000000000073ffffffffffffffffffffffffffffffffffffffff169063cbed8b9c90829063096568f690602401602060405180830381865afa158015610cb7573d6000803e3d6000fd5b505050506040513d601f19601f82011682018060405250810190610cdb9190612659565b6040805173ffffffffffffffffffffffffffffffffffffffff8716602082015287918691016040516020818303038152906040526040518563ffffffff1660e01b8152600401610bec9493929190612676565b60408051336020820181905273ffffffffffffffffffffffffffffffffffffffff8416828401528251808303840181526080830190935260006060909201828152610d80928692859290919034611a30565b505050565b333014610dfa5760405162461bcd60e51b815260206004820152602660248201527f4e6f6e626c6f636b696e674c7a4170703a2063616c6c6572206d75737420626560448201527f204c7a41707000000000000000000000000000000000000000000000000000006064820152608401610782565b610e708686868080601f01602080910402602001604051908101604052809392919081815260200183838082843760009201919091525050604080516020601f890181900481028201810190925287815289935091508790879081908401838280828437600092019190915250611c0992505050565b505050505050565b6040805133602082015273ffffffffffffffffffffffffffffffffffffffff8381168284015282518083038401815260608301938490527f40a7bb1000000000000000000000000000000000000000000000000000000000909352600092839290917f000000000000000000000000000000000000000000000000000000000000000016906340a7bb1090610f1b908b90309086908d908d908d906064016126ad565b6040805180830381865afa158015610f37573d6000803e3d6000fd5b505050506040513d601f19601f82011682018060405250810190610f5b919061270e565b92509250509550959350505050565b610f726119c9565b610f7c6000611cc6565b565b60016020526000908152604090208054610f97906125ad565b80601f0160208091040260200160405190810160405280929190818152602001828054610fc3906125ad565b80156110105780601f10610fe557610100808354040283529160200191611010565b820191906000526020600020905b815481529060010190602001808311610ff357829003601f168201915b505050505081565b61ffff811660009081526001602052604081208054606092919061103b906125ad565b80601f0160208091040260200160405190810160405280929190818152602001828054611067906125ad565b80156110b45780601f10611089576101008083540402835291602001916110b4565b820191906000526020600020905b81548152906001019060200180831161109757829003601f168201915b50505050509050805160000361110c5760405162461bcd60e51b815260206004820152601d60248201527f4c7a4170703a206e6f20747275737465642070617468207265636f72640000006044820152606401610782565b61112760006014835161111f9190612761565b839190611d3b565b9392505050565b6111366119c9565b81813060405160200161114b9392919061277a565b60408051601f1981840301815291815261ffff851660009081526001602052209061117690826127f9565b507f8c0400cfe2d1199b1a725c78960bcc2a344d869b80590d0f2bd005db15a572ce8383836040516111aa9392919061263b565b60405180910390a1505050565b6111bf6119c9565b600480547fffffffffffffffffffffffff00000000000000000000000000000000000000001673ffffffffffffffffffffffffffffffffffffffff83169081179091556040519081527f5db758e995a17ec1ad84bdef7e8c3293a0bd6179bcce400dff5d4c3d87db726b9060200160405180910390a150565b6112406119c9565b6040517fcbed8b9c00000000000000000000000000000000000000000000000000000000815273ffffffffffffffffffffffffffffffffffffffff7f0000000000000000000000000000000000000000000000000000000000000000169063cbed8b9c906112ba90889088908890889088906004016128f5565b600060405180830381600087803b1580156112d457600080fd5b505af11580156112e8573d6000803e3d6000fd5b505050505050505050565b61ffff861660009081526005602052604080822090516113169088908890612600565b908152604080516020928190038301902067ffffffffffffffff8716600090815292529020549050806113b15760405162461bcd60e51b815260206004820152602360248201527f4e6f6e626c6f636b696e674c7a4170703a206e6f2073746f726564206d65737360448201527f61676500000000000000000000000000000000000000000000000000000000006064820152608401610782565b8083836040516113c2929190612600565b60405180910390201461143d5760405162461bcd60e51b815260206004820152602160248201527f4e6f6e626c6f636b696e674c7a4170703a20696e76616c6964207061796c6f6160448201527f64000000000000000000000000000000000000000000000000000000000000006064820152608401610782565b61ffff871660009081526005602052604080822090516114609089908990612600565b908152604080516020928190038301812067ffffffffffffffff8916600090815290845282902093909355601f880182900482028301820190528682526114f9918991899089908190840183828082843760009201919091525050604080516020601f8a018190048102820181019092528881528a935091508890889081908401838280828437600092019190915250611c0992505050565b7fc264d91f3adc5588250e1551f547752ca0cfa8f6b530d243b9f9f4cab10ea8e5878787878560405161153095949392919061292e565b60405180910390a150505050505050565b6115496119c9565b600081116115995760405162461bcd60e51b815260206004820152601560248201527f4c7a4170703a20696e76616c6964206d696e47617300000000000000000000006044820152606401610782565b61ffff83811660008181526002602090815260408083209487168084529482529182902085905581519283528201929092529081018290527f9d5c7c0b934da8fefa9c7760c98383778a12dfbfc0c3b3106518f43fb9508ac0906060016111aa565b6040517f096568f6000000000000000000000000000000000000000000000000000000008152306004820152600090819073ffffffffffffffffffffffffffffffffffffffff7f0000000000000000000000000000000000000000000000000000000000000000169063f5ecbdbc90829063096568f690602401602060405180830381865afa158015611692573d6000803e3d6000fd5b505050506040513d601f19601f820116820180604052508101906116b69190612659565b6040517fffffffff0000000000000000000000000000000000000000000000000000000060e084901b16815261ffff9182166004820152908616602482015230604482015260066064820152608401600060405180830381865afa158015611722573d6000803e3d6000fd5b505050506040513d6000823e601f3d908101601f1916820160405261174a919081019061296a565b602001519392505050565b61175d6119c9565b61ffff8316600090815260016020526040902061177b8284836129d8565b507ffa41487ad5d6728f0b19276fa1eddc16558578f5109fc39d2dc33c3230470dab8383836040516111aa9392919061263b565b6117b76119c9565b73ffffffffffffffffffffffffffffffffffffffff81166118405760405162461bcd60e51b815260206004820152602660248201527f4f776e61626c653a206e6577206f776e657220697320746865207a65726f206160448201527f64647265737300000000000000000000000000000000000000000000000000006064820152608401610782565b61184981611cc6565b50565b6040517ff5ecbdbc00000000000000000000000000000000000000000000000000000000815261ffff808616600483015284166024820152306044820152606481018290526060907f000000000000000000000000000000000000000000000000000000000000000073ffffffffffffffffffffffffffffffffffffffff169063f5ecbdbc90608401600060405180830381865afa1580156118f2573d6000803e3d6000fd5b505050506040513d6000823e601f3d908101601f1916820160405261191a919081019061296a565b95945050505050565b6000806119b35a60966366ad5c8a60e01b8989898960405160240161194b9493929190612ad4565b60408051601f198184030181529190526020810180517bffffffffffffffffffffffffffffffffffffffffffffffffffffffff167fffffffff000000000000000000000000000000000000000000000000000000009093169290921790915230929190611e63565b9150915081610e7057610e708686868685611eee565b60005473ffffffffffffffffffffffffffffffffffffffff163314610f7c5760405162461bcd60e51b815260206004820181905260248201527f4f776e61626c653a2063616c6c6572206973206e6f7420746865206f776e65726044820152606401610782565b61ffff861660009081526001602052604081208054611a4e906125ad565b80601f0160208091040260200160405190810160405280929190818152602001828054611a7a906125ad565b8015611ac75780601f10611a9c57610100808354040283529160200191611ac7565b820191906000526020600020905b815481529060010190602001808311611aaa57829003601f168201915b505050505090508051600003611b455760405162461bcd60e51b815260206004820152603060248201527f4c7a4170703a2064657374696e6174696f6e20636861696e206973206e6f742060448201527f61207472757374656420736f75726365000000000000000000000000000000006064820152608401610782565b611b50878751611f8c565b6040517fc580310000000000000000000000000000000000000000000000000000000000815273ffffffffffffffffffffffffffffffffffffffff7f0000000000000000000000000000000000000000000000000000000000000000169063c5803100908490611bce908b9086908c908c908c908c90600401612b13565b6000604051808303818588803b158015611be757600080fd5b505af1158015611bfb573d6000803e3d6000fd5b505050505050505050505050565b600080600083806020019051810190611c229190612b7a565b6040517fffffffffffffffffffffffffffffffffffffffff000000000000000000000000606085811b8216602084015284901b1660348201527fffff00000000000000000000000000000000000000000000000000000000000060f08c901b1660488201529295509093509150600090604a0160408051601f1981840301815291815281516020928301206000908152600790925290209190915550505050505050565b6000805473ffffffffffffffffffffffffffffffffffffffff8381167fffffffffffffffffffffffff0000000000000000000000000000000000000000831681178455604051919092169283917f8be0079c531659141344cd1fd0a4f28419497f9722a3daafe3b4186f6b6457e09190a35050565b606081611d4981601f612bbd565b1015611d975760405162461bcd60e51b815260206004820152600e60248201527f736c6963655f6f766572666c6f770000000000000000000000000000000000006044820152606401610782565b611da18284612bbd565b84511015611df15760405162461bcd60e51b815260206004820152601160248201527f736c6963655f6f75744f66426f756e64730000000000000000000000000000006044820152606401610782565b606082158015611e105760405191506000825260208201604052611e5a565b6040519150601f8416801560200281840101858101878315602002848b0101015b81831015611e49578051835260209283019201611e31565b5050858452601f01601f1916604052505b50949350505050565b6000606060008060008661ffff1667ffffffffffffffff811115611e8957611e89612202565b6040519080825280601f01601f191660200182016040528015611eb3576020820181803683370190505b50905060008087516020890160008d8df191503d925086831115611ed5578692505b828152826000602083013e909890975095505050505050565b8180519060200120600560008761ffff1661ffff16815260200190815260200160002085604051611f1f9190612bd0565b90815260408051918290036020908101832067ffffffffffffffff88166000908152915220919091557fe183f33de2837795525b4792ca4cd60535bd77c53b7e7030060bfcf5734d6b0c90611f7d9087908790879087908790612bec565b60405180910390a15050505050565b61ffff821660009081526003602052604081205490819003611fad57506127105b80821115610d805760405162461bcd60e51b815260206004820181905260248201527f4c7a4170703a207061796c6f61642073697a6520697320746f6f206c617267656044820152606401610782565b61ffff8116811461184957600080fd5b60008083601f84011261201f57600080fd5b50813567ffffffffffffffff81111561203757600080fd5b60208301915083602082850101111561204f57600080fd5b9250929050565b803567ffffffffffffffff8116811461206e57600080fd5b919050565b6000806000806000806080878903121561208c57600080fd5b863561209781611ffd565b9550602087013567ffffffffffffffff808211156120b457600080fd5b6120c08a838b0161200d565b90975095508591506120d460408a01612056565b945060608901359150808211156120ea57600080fd5b506120f789828a0161200d565b979a9699509497509295939492505050565b60006020828403121561211b57600080fd5b813561112781611ffd565b6000806040838503121561213957600080fd5b823561214481611ffd565b946020939093013593505050565b60008060006040848603121561216757600080fd5b833561217281611ffd565b9250602084013567ffffffffffffffff81111561218e57600080fd5b61219a8682870161200d565b9497909650939450505050565b73ffffffffffffffffffffffffffffffffffffffff8116811461184957600080fd5b600080604083850312156121dc57600080fd5b82356121e781611ffd565b915060208301356121f7816121a7565b809150509250929050565b7f4e487b7100000000000000000000000000000000000000000000000000000000600052604160045260246000fd5b604051601f8201601f1916810167ffffffffffffffff8111828210171561225a5761225a612202565b604052919050565b600067ffffffffffffffff82111561227c5761227c612202565b50601f01601f191660200190565b60008060006060848603121561229f57600080fd5b83356122aa81611ffd565b9250602084013567ffffffffffffffff8111156122c657600080fd5b8401601f810186136122d757600080fd5b80356122ea6122e582612262565b612231565b8181528760208385010111156122ff57600080fd5b8160208401602083013760006020838301015280945050505061232460408501612056565b90509250925092565b60008060008060006080868803121561234557600080fd5b853561235081611ffd565b94506020860135801515811461236557600080fd5b9350604086013567ffffffffffffffff81111561238157600080fd5b61238d8882890161200d565b90945092505060608601356123a1816121a7565b809150509295509295909350565b60005b838110156123ca5781810151838201526020016123b2565b50506000910152565b600081518084526123eb8160208601602086016123af565b601f01601f19169290920160200192915050565b60208152600061112760208301846123d3565b6000806040838503121561242557600080fd5b823561243081611ffd565b915060208301356121f781611ffd565b60008060006060848603121561245557600080fd5b8335612460816121a7565b92506020840135612470816121a7565b9150604084013561248081611ffd565b809150509250925092565b60006020828403121561249d57600080fd5b8135611127816121a7565b6000806000806000608086880312156124c057600080fd5b85356124cb81611ffd565b945060208601356124db81611ffd565b935060408601359250606086013567ffffffffffffffff8111156124fe57600080fd5b61250a8882890161200d565b969995985093965092949392505050565b60008060006060848603121561253057600080fd5b833561253b81611ffd565b9250602084013561254b81611ffd565b929592945050506040919091013590565b6000806000806080858703121561257257600080fd5b843561257d81611ffd565b9350602085013561258d81611ffd565b9250604085013561259d816121a7565b9396929550929360600135925050565b600181811c908216806125c157607f821691505b6020821081036125fa577f4e487b7100000000000000000000000000000000000000000000000000000000600052602260045260246000fd5b50919050565b8183823760009101908152919050565b818352818160208501375060006020828401015260006020601f19601f840116840101905092915050565b61ffff8416815260406020820152600061191a604083018486612610565b60006020828403121561266b57600080fd5b815161112781611ffd565b600061ffff8087168352808616602084015250836040830152608060608301526126a360808301846123d3565b9695505050505050565b61ffff8716815273ffffffffffffffffffffffffffffffffffffffff8616602082015260a0604082015260006126e660a08301876123d3565b85151560608401528281036080840152612701818587612610565b9998505050505050505050565b6000806040838503121561272157600080fd5b505080516020909101519092909150565b7f4e487b7100000000000000000000000000000000000000000000000000000000600052601160045260246000fd5b8181038181111561277457612774612732565b92915050565b8284823760609190911b7fffffffffffffffffffffffffffffffffffffffff000000000000000000000000169101908152601401919050565b601f821115610d8057600081815260208120601f850160051c810160208610156127da5750805b601f850160051c820191505b81811015610e70578281556001016127e6565b815167ffffffffffffffff81111561281357612813612202565b6128278161282184546125ad565b846127b3565b602080601f83116001811461287a57600084156128445750858301515b7fffffffffffffffffffffffffffffffffffffffffffffffffffffffffffffffff600386901b1c1916600185901b178555610e70565b600085815260208120601f198616915b828110156128a95788860151825594840194600190910190840161288a565b50858210156128e557878501517fffffffffffffffffffffffffffffffffffffffffffffffffffffffffffffffff600388901b60f8161c191681555b5050505050600190811b01905550565b600061ffff808816835280871660208401525084604083015260806060830152612923608083018486612610565b979650505050505050565b61ffff8616815260806020820152600061294c608083018688612610565b67ffffffffffffffff94909416604083015250606001529392505050565b60006020828403121561297c57600080fd5b815167ffffffffffffffff81111561299357600080fd5b8201601f810184136129a457600080fd5b80516129b26122e582612262565b8181528560208385010111156129c757600080fd5b61191a8260208301602086016123af565b67ffffffffffffffff8311156129f0576129f0612202565b612a04836129fe83546125ad565b836127b3565b6000601f841160018114612a565760008515612a205750838201355b7fffffffffffffffffffffffffffffffffffffffffffffffffffffffffffffffff600387901b1c1916600186901b1783556109fe565b600083815260209020601f19861690835b82811015612a875786850135825560209485019460019092019101612a67565b5086821015612ac2577fffffffffffffffffffffffffffffffffffffffffffffffffffffffffffffffff60f88860031b161c19848701351681555b505060018560011b0183555050505050565b61ffff85168152608060208201526000612af160808301866123d3565b67ffffffffffffffff85166040840152828103606084015261292381856123d3565b61ffff8716815260c060208201526000612b3060c08301886123d3565b8281036040840152612b4281886123d3565b73ffffffffffffffffffffffffffffffffffffffff87811660608601528616608085015283810360a0850152905061270181856123d3565b600080600060608486031215612b8f57600080fd5b8351612b9a816121a7565b6020850151909350612bab816121a7565b80925050604084015190509250925092565b8082018082111561277457612774612732565b60008251612be28184602087016123af565b9190910192915050565b61ffff8616815260a060208201526000612c0960a08301876123d3565b67ffffffffffffffff861660408401528281036060840152612c2b81866123d3565b90508281036080840152612c3f81856123d3565b9897505050505050505056fea164736f6c6343000813000a",
    "linkReferences": {}
  },
  "methodIdentifiers": {
    "DEFAULT_PAYLOAD_SIZE_LIMIT()": "c4461834",
    "estimateFee(uint16,bool,bytes,address)": "6ec673aa",
    "failedMessages(uint16,bytes,uint64)": "5b8c41e6",
    "forceResumeReceive(uint16,bytes)": "42d65a8d",
    "getBalance(address,address,uint16)": "99f0475d",
    "getConfig(uint16,uint16,address,uint256)": "f5ecbdbc",
    "getOracle(uint16)": "e2f28824",
    "getTrustedRemoteAddress(uint16)": "9f38369a",
    "isTrustedRemote(uint16,bytes)": "3d8b38f6",
    "lzEndpoint()": "b353aaa7",
    "lzReceive(uint16,bytes,uint64,bytes)": "001d3567",
    "minDstGasLookup(uint16,uint16)": "8cfd8f5c",
    "nonblockingLzReceive(uint16,bytes,uint64,bytes)": "66ad5c8a",
    "owner()": "8da5cb5b",
    "payloadSizeLimitLookup(uint16)": "3f1f4fa4",
    "precrime()": "950c8a74",
    "renounceOwnership()": "715018a6",
    "retryMessage(uint16,bytes,uint64,bytes)": "d1deba1f",
    "send(uint16,address)": "5934d9f5",
    "setConfig(uint16,uint16,uint256,bytes)": "cbed8b9c",
    "setMinDstGas(uint16,uint16,uint256)": "df2a5b3b",
    "setOracle(uint16,address)": "492e527e",
    "setPayloadSizeLimit(uint16,uint256)": "0df37483",
    "setPrecrime(address)": "baf3292d",
    "setReceiveVersion(uint16)": "10ddb137",
    "setSendVersion(uint16)": "07e0db17",
    "setTrustedRemote(uint16,bytes)": "eb8d72b7",
    "setTrustedRemoteAddress(uint16,bytes)": "a6c3d165",
    "tokenBalance()": "9e1a4d19",
    "transferOwnership(address)": "f2fde38b",
    "trustedRemoteLookup(uint16)": "7533d788"
  },
  "id": 14
}