{
  "abi": [
    {
      "inputs": [
        {
          "internalType": "address",
          "name": "_lzEndpoint",
          "type": "address"
        }
      ],
      "stateMutability": "nonpayable",
      "type": "constructor"
    },
    {
      "anonymous": false,
      "inputs": [
        {
          "indexed": false,
          "internalType": "uint16",
          "name": "_srcChainId",
          "type": "uint16"
        },
        {
          "indexed": false,
          "internalType": "bytes",
          "name": "_srcAddress",
          "type": "bytes"
        },
        {
          "indexed": false,
          "internalType": "uint64",
          "name": "_nonce",
          "type": "uint64"
        },
        {
          "indexed": false,
          "internalType": "bytes",
          "name": "_payload",
          "type": "bytes"
        },
        {
          "indexed": false,
          "internalType": "bytes",
          "name": "_reason",
          "type": "bytes"
        }
      ],
      "name": "MessageFailed",
      "type": "event"
    },
    {
      "anonymous": false,
      "inputs": [
        {
          "indexed": true,
          "internalType": "address",
          "name": "previousOwner",
          "type": "address"
        },
        {
          "indexed": true,
          "internalType": "address",
          "name": "newOwner",
          "type": "address"
        }
      ],
      "name": "OwnershipTransferred",
      "type": "event"
    },
    {
      "anonymous": false,
      "inputs": [
        {
          "indexed": false,
          "internalType": "uint16",
          "name": "_srcChainId",
          "type": "uint16"
        },
        {
          "indexed": false,
          "internalType": "bytes",
          "name": "_srcAddress",
          "type": "bytes"
        },
        {
          "indexed": false,
          "internalType": "uint64",
          "name": "_nonce",
          "type": "uint64"
        },
        {
          "indexed": false,
          "internalType": "bytes32",
          "name": "_payloadHash",
          "type": "bytes32"
        }
      ],
      "name": "RetryMessageSuccess",
      "type": "event"
    },
    {
      "anonymous": false,
      "inputs": [
        {
          "indexed": false,
          "internalType": "uint16",
          "name": "_dstChainId",
          "type": "uint16"
        },
        {
          "indexed": false,
          "internalType": "uint16",
          "name": "_type",
          "type": "uint16"
        },
        {
          "indexed": false,
          "internalType": "uint256",
          "name": "_minDstGas",
          "type": "uint256"
        }
      ],
      "name": "SetMinDstGas",
      "type": "event"
    },
    {
      "anonymous": false,
      "inputs": [
        {
          "indexed": false,
          "internalType": "address",
          "name": "precrime",
          "type": "address"
        }
      ],
      "name": "SetPrecrime",
      "type": "event"
    },
    {
      "anonymous": false,
      "inputs": [
        {
          "indexed": false,
          "internalType": "uint16",
          "name": "_remoteChainId",
          "type": "uint16"
        },
        {
          "indexed": false,
          "internalType": "bytes",
          "name": "_path",
          "type": "bytes"
        }
      ],
      "name": "SetTrustedRemote",
      "type": "event"
    },
    {
      "anonymous": false,
      "inputs": [
        {
          "indexed": false,
          "internalType": "uint16",
          "name": "_remoteChainId",
          "type": "uint16"
        },
        {
          "indexed": false,
          "internalType": "bytes",
          "name": "_remoteAddress",
          "type": "bytes"
        }
      ],
      "name": "SetTrustedRemoteAddress",
      "type": "event"
    },
    {
      "inputs": [],
      "name": "DEFAULT_PAYLOAD_SIZE_LIMIT",
      "outputs": [
        {
          "internalType": "uint256",
          "name": "",
          "type": "uint256"
        }
      ],
      "stateMutability": "view",
      "type": "function"
    },
    {
      "inputs": [],
      "name": "campaignToken",
      "outputs": [
        {
          "internalType": "address",
          "name": "",
          "type": "address"
        }
      ],
      "stateMutability": "view",
      "type": "function"
    },
    {
      "inputs": [
        {
          "internalType": "uint16",
          "name": "_dstChainId",
          "type": "uint16"
        },
        {
          "internalType": "bool",
          "name": "_useZro",
          "type": "bool"
        },
        {
          "internalType": "bytes",
          "name": "_adapterParams",
          "type": "bytes"
        },
        {
          "internalType": "address",
          "name": "_tokenAddress",
          "type": "address"
        }
      ],
      "name": "estimateFee",
      "outputs": [
        {
          "internalType": "uint256",
          "name": "nativeFee",
          "type": "uint256"
        },
        {
          "internalType": "uint256",
          "name": "zroFee",
          "type": "uint256"
        }
      ],
      "stateMutability": "view",
      "type": "function"
    },
    {
      "inputs": [
        {
          "internalType": "uint16",
          "name": "",
          "type": "uint16"
        },
        {
          "internalType": "bytes",
          "name": "",
          "type": "bytes"
        },
        {
          "internalType": "uint64",
          "name": "",
          "type": "uint64"
        }
      ],
      "name": "failedMessages",
      "outputs": [
        {
          "internalType": "bytes32",
          "name": "",
          "type": "bytes32"
        }
      ],
      "stateMutability": "view",
      "type": "function"
    },
    {
      "inputs": [
        {
          "internalType": "uint16",
          "name": "_srcChainId",
          "type": "uint16"
        },
        {
          "internalType": "bytes",
          "name": "_srcAddress",
          "type": "bytes"
        }
      ],
      "name": "forceResumeReceive",
      "outputs": [],
      "stateMutability": "nonpayable",
      "type": "function"
    },
    {
      "inputs": [
        {
          "internalType": "uint16",
          "name": "_version",
          "type": "uint16"
        },
        {
          "internalType": "uint16",
          "name": "_chainId",
          "type": "uint16"
        },
        {
          "internalType": "address",
          "name": "",
          "type": "address"
        },
        {
          "internalType": "uint256",
          "name": "_configType",
          "type": "uint256"
        }
      ],
      "name": "getConfig",
      "outputs": [
        {
          "internalType": "bytes",
          "name": "",
          "type": "bytes"
        }
      ],
      "stateMutability": "view",
      "type": "function"
    },
    {
      "inputs": [
        {
          "internalType": "uint16",
          "name": "remoteChainId",
          "type": "uint16"
        }
      ],
      "name": "getOracle",
      "outputs": [
        {
          "internalType": "address",
          "name": "_oracle",
          "type": "address"
        }
      ],
      "stateMutability": "view",
      "type": "function"
    },
    {
      "inputs": [
        {
          "internalType": "uint16",
          "name": "_remoteChainId",
          "type": "uint16"
        }
      ],
      "name": "getTrustedRemoteAddress",
      "outputs": [
        {
          "internalType": "bytes",
          "name": "",
          "type": "bytes"
        }
      ],
      "stateMutability": "view",
      "type": "function"
    },
    {
      "inputs": [
        {
          "internalType": "uint16",
          "name": "_srcChainId",
          "type": "uint16"
        },
        {
          "internalType": "bytes",
          "name": "_srcAddress",
          "type": "bytes"
        }
      ],
      "name": "isTrustedRemote",
      "outputs": [
        {
          "internalType": "bool",
          "name": "",
          "type": "bool"
        }
      ],
      "stateMutability": "view",
      "type": "function"
    },
    {
      "inputs": [],
      "name": "lzEndpoint",
      "outputs": [
        {
          "internalType": "contract ILayerZeroEndpoint",
          "name": "",
          "type": "address"
        }
      ],
      "stateMutability": "view",
      "type": "function"
    },
    {
      "inputs": [
        {
          "internalType": "uint16",
          "name": "_srcChainId",
          "type": "uint16"
        },
        {
          "internalType": "bytes",
          "name": "_srcAddress",
          "type": "bytes"
        },
        {
          "internalType": "uint64",
          "name": "_nonce",
          "type": "uint64"
        },
        {
          "internalType": "bytes",
          "name": "_payload",
          "type": "bytes"
        }
      ],
      "name": "lzReceive",
      "outputs": [],
      "stateMutability": "nonpayable",
      "type": "function"
    },
    {
      "inputs": [
        {
          "internalType": "uint16",
          "name": "",
          "type": "uint16"
        },
        {
          "internalType": "uint16",
          "name": "",
          "type": "uint16"
        }
      ],
      "name": "minDstGasLookup",
      "outputs": [
        {
          "internalType": "uint256",
          "name": "",
          "type": "uint256"
        }
      ],
      "stateMutability": "view",
      "type": "function"
    },
    {
      "inputs": [
        {
          "internalType": "uint16",
          "name": "_srcChainId",
          "type": "uint16"
        },
        {
          "internalType": "bytes",
          "name": "_srcAddress",
          "type": "bytes"
        },
        {
          "internalType": "uint64",
          "name": "_nonce",
          "type": "uint64"
        },
        {
          "internalType": "bytes",
          "name": "_payload",
          "type": "bytes"
        }
      ],
      "name": "nonblockingLzReceive",
      "outputs": [],
      "stateMutability": "nonpayable",
      "type": "function"
    },
    {
      "inputs": [],
      "name": "owner",
      "outputs": [
        {
          "internalType": "address",
          "name": "",
          "type": "address"
        }
      ],
      "stateMutability": "view",
      "type": "function"
    },
    {
      "inputs": [
        {
          "internalType": "uint16",
          "name": "",
          "type": "uint16"
        }
      ],
      "name": "payloadSizeLimitLookup",
      "outputs": [
        {
          "internalType": "uint256",
          "name": "",
          "type": "uint256"
        }
      ],
      "stateMutability": "view",
      "type": "function"
    },
    {
      "inputs": [],
      "name": "precrime",
      "outputs": [
        {
          "internalType": "address",
          "name": "",
          "type": "address"
        }
      ],
      "stateMutability": "view",
      "type": "function"
    },
    {
      "inputs": [],
      "name": "renounceOwnership",
      "outputs": [],
      "stateMutability": "nonpayable",
      "type": "function"
    },
    {
      "inputs": [
        {
          "internalType": "uint16",
          "name": "_srcChainId",
          "type": "uint16"
        },
        {
          "internalType": "bytes",
          "name": "_srcAddress",
          "type": "bytes"
        },
        {
          "internalType": "uint64",
          "name": "_nonce",
          "type": "uint64"
        },
        {
          "internalType": "bytes",
          "name": "_payload",
          "type": "bytes"
        }
      ],
      "name": "retryMessage",
      "outputs": [],
      "stateMutability": "payable",
      "type": "function"
    },
    {
      "inputs": [
        {
          "internalType": "uint16",
          "name": "_dstChainId",
          "type": "uint16"
        },
        {
          "internalType": "address",
          "name": "_tokenAddress",
          "type": "address"
        }
      ],
      "name": "send",
      "outputs": [],
      "stateMutability": "payable",
      "type": "function"
    },
    {
      "inputs": [
        {
          "internalType": "uint16",
          "name": "_version",
          "type": "uint16"
        },
        {
          "internalType": "uint16",
          "name": "_chainId",
          "type": "uint16"
        },
        {
          "internalType": "uint256",
          "name": "_configType",
          "type": "uint256"
        },
        {
          "internalType": "bytes",
          "name": "_config",
          "type": "bytes"
        }
      ],
      "name": "setConfig",
      "outputs": [],
      "stateMutability": "nonpayable",
      "type": "function"
    },
    {
      "inputs": [
        {
          "internalType": "uint16",
          "name": "_dstChainId",
          "type": "uint16"
        },
        {
          "internalType": "uint16",
          "name": "_packetType",
          "type": "uint16"
        },
        {
          "internalType": "uint256",
          "name": "_minGas",
          "type": "uint256"
        }
      ],
      "name": "setMinDstGas",
      "outputs": [],
      "stateMutability": "nonpayable",
      "type": "function"
    },
    {
      "inputs": [
        {
          "internalType": "uint16",
          "name": "dstChainId",
          "type": "uint16"
        },
        {
          "internalType": "address",
          "name": "oracle",
          "type": "address"
        }
      ],
      "name": "setOracle",
      "outputs": [],
      "stateMutability": "nonpayable",
      "type": "function"
    },
    {
      "inputs": [
        {
          "internalType": "uint16",
          "name": "_dstChainId",
          "type": "uint16"
        },
        {
          "internalType": "uint256",
          "name": "_size",
          "type": "uint256"
        }
      ],
      "name": "setPayloadSizeLimit",
      "outputs": [],
      "stateMutability": "nonpayable",
      "type": "function"
    },
    {
      "inputs": [
        {
          "internalType": "address",
          "name": "_precrime",
          "type": "address"
        }
      ],
      "name": "setPrecrime",
      "outputs": [],
      "stateMutability": "nonpayable",
      "type": "function"
    },
    {
      "inputs": [
        {
          "internalType": "uint16",
          "name": "_version",
          "type": "uint16"
        }
      ],
      "name": "setReceiveVersion",
      "outputs": [],
      "stateMutability": "nonpayable",
      "type": "function"
    },
    {
      "inputs": [
        {
          "internalType": "uint16",
          "name": "_version",
          "type": "uint16"
        }
      ],
      "name": "setSendVersion",
      "outputs": [],
      "stateMutability": "nonpayable",
      "type": "function"
    },
    {
      "inputs": [
        {
          "internalType": "uint16",
          "name": "_remoteChainId",
          "type": "uint16"
        },
        {
          "internalType": "bytes",
          "name": "_path",
          "type": "bytes"
        }
      ],
      "name": "setTrustedRemote",
      "outputs": [],
      "stateMutability": "nonpayable",
      "type": "function"
    },
    {
      "inputs": [
        {
          "internalType": "uint16",
          "name": "_remoteChainId",
          "type": "uint16"
        },
        {
          "internalType": "bytes",
          "name": "_remoteAddress",
          "type": "bytes"
        }
      ],
      "name": "setTrustedRemoteAddress",
      "outputs": [],
      "stateMutability": "nonpayable",
      "type": "function"
    },
    {
      "inputs": [],
      "name": "tokenBalance",
      "outputs": [
        {
          "internalType": "uint256",
          "name": "",
          "type": "uint256"
        }
      ],
      "stateMutability": "view",
      "type": "function"
    },
    {
      "inputs": [
        {
          "internalType": "address",
          "name": "newOwner",
          "type": "address"
        }
      ],
      "name": "transferOwnership",
      "outputs": [],
      "stateMutability": "nonpayable",
      "type": "function"
    },
    {
      "inputs": [
        {
          "internalType": "uint16",
          "name": "",
          "type": "uint16"
        }
      ],
      "name": "trustedRemoteLookup",
      "outputs": [
        {
          "internalType": "bytes",
          "name": "",
          "type": "bytes"
        }
      ],
      "stateMutability": "view",
      "type": "function"
    }
  ],
  "bytecode": {
    "object": "0x60a06040523480156200001157600080fd5b5060405162002dfe38038062002dfe8339810160408190526200003491620000a6565b8080620000413362000056565b6001600160a01b031660805250620000d89050565b600080546001600160a01b038381166001600160a01b0319831681178455604051919092169283917f8be0079c531659141344cd1fd0a4f28419497f9722a3daafe3b4186f6b6457e09190a35050565b600060208284031215620000b957600080fd5b81516001600160a01b0381168114620000d157600080fd5b9392505050565b608051612cc46200013a6000396000818161054d0152818161067b01528181610907015281816109d501528181610b2a01528181610bca01528181610f8c0152818161132e015281816116f4015281816119470152611c3e0152612cc46000f3fe6080604052600436106101d75760003560e01c80638da5cb5b11610102578063c446183411610095578063e2f2882411610064578063e2f28824146105f8578063eb8d72b714610618578063f2fde38b14610638578063f5ecbdbc1461065857600080fd5b8063c44618341461058f578063cbed8b9c146105a5578063d1deba1f146105c5578063df2a5b3b146105d857600080fd5b80639f38369a116100d15780639f38369a146104fb578063a6c3d1651461051b578063b353aaa71461053b578063baf3292d1461056f57600080fd5b80638da5cb5b1461043f5780639089c4a51461048b578063950c8a74146104b85780639e1a4d19146104e557600080fd5b8063492e527e1161017a5780636ec673aa116101495780636ec673aa14610390578063715018a6146103c55780637533d788146103da5780638cfd8f5c1461040757600080fd5b8063492e527e146102ee5780635934d9f51461030e5780635b8c41e61461032157806366ad5c8a1461037057600080fd5b806310ddb137116101b657806310ddb1371461023e5780633d8b38f61461025e5780633f1f4fa41461029357806342d65a8d146102ce57600080fd5b80621d3567146101dc57806307e0db17146101fe5780630df374831461021e575b600080fd5b3480156101e857600080fd5b506101fc6101f7366004612125565b610678565b005b34801561020a57600080fd5b506101fc6102193660046121bb565b6108cd565b34801561022a57600080fd5b506101fc6102393660046121d8565b61097c565b34801561024a57600080fd5b506101fc6102593660046121bb565b61099b565b34801561026a57600080fd5b5061027e610279366004612204565b610a19565b60405190151581526020015b60405180910390f35b34801561029f57600080fd5b506102c06102ae3660046121bb565b60036020526000908152604090205481565b60405190815260200161028a565b3480156102da57600080fd5b506101fc6102e9366004612204565b610ae5565b3480156102fa57600080fd5b506101fc61030936600461227b565b610b91565b6101fc61031c36600461227b565b610ca5565b34801561032d57600080fd5b506102c061033c36600461233c565b6005602090815260009384526040808520845180860184018051928152908401958401959095209452929052825290205481565b34801561037c57600080fd5b506101fc61038b366004612125565b610d99565b34801561039c57600080fd5b506103b06103ab3660046123df565b610e8c565b6040805192835260208301919091520161028a565b3480156103d157600080fd5b506101fc61101b565b3480156103e657600080fd5b506103fa6103f53660046121bb565b61102f565b60405161028a91906124b1565b34801561041357600080fd5b506102c06104223660046124c4565b600260209081526000928352604080842090915290825290205481565b34801561044b57600080fd5b5060005473ffffffffffffffffffffffffffffffffffffffff165b60405173ffffffffffffffffffffffffffffffffffffffff909116815260200161028a565b34801561049757600080fd5b506006546104669073ffffffffffffffffffffffffffffffffffffffff1681565b3480156104c457600080fd5b506004546104669073ffffffffffffffffffffffffffffffffffffffff1681565b3480156104f157600080fd5b506102c060075481565b34801561050757600080fd5b506103fa6105163660046121bb565b6110c9565b34801561052757600080fd5b506101fc610536366004612204565b6111df565b34801561054757600080fd5b506104667f000000000000000000000000000000000000000000000000000000000000000081565b34801561057b57600080fd5b506101fc61058a3660046124f2565b611268565b34801561059b57600080fd5b506102c061271081565b3480156105b157600080fd5b506101fc6105c036600461250f565b6112e9565b6101fc6105d3366004612125565b6113a4565b3480156105e457600080fd5b506101fc6105f3366004612582565b6115f2565b34801561060457600080fd5b506104666106133660046121bb565b6116ac565b34801561062457600080fd5b506101fc610633366004612204565b611806565b34801561064457600080fd5b506101fc6106533660046124f2565b611860565b34801561066457600080fd5b506103fa6106733660046125c3565b6118fd565b337f000000000000000000000000000000000000000000000000000000000000000073ffffffffffffffffffffffffffffffffffffffff16146107025760405162461bcd60e51b815260206004820152601e60248201527f4c7a4170703a20696e76616c696420656e64706f696e742063616c6c6572000060448201526064015b60405180910390fd5b61ffff86166000908152600160205260408120805461072090612614565b80601f016020809104026020016040519081016040528092919081815260200182805461074c90612614565b80156107995780601f1061076e57610100808354040283529160200191610799565b820191906000526020600020905b81548152906001019060200180831161077c57829003601f168201915b505050505090508051868690501480156107b4575060008151115b80156107dc5750805160208201206040516107d29088908890612667565b6040518091039020145b61084e5760405162461bcd60e51b815260206004820152602660248201527f4c7a4170703a20696e76616c696420736f757263652073656e64696e6720636f60448201527f6e7472616374000000000000000000000000000000000000000000000000000060648201526084016106f9565b6108c48787878080601f01602080910402602001604051908101604052809392919081815260200183838082843760009201919091525050604080516020601f8a018190048102820181019092528881528a9350915088908890819084018382808284376000920191909152506119d492505050565b50505050505050565b6108d5611a7a565b6040517f07e0db1700000000000000000000000000000000000000000000000000000000815261ffff821660048201527f000000000000000000000000000000000000000000000000000000000000000073ffffffffffffffffffffffffffffffffffffffff16906307e0db17906024015b600060405180830381600087803b15801561096157600080fd5b505af1158015610975573d6000803e3d6000fd5b5050505050565b610984611a7a565b61ffff909116600090815260036020526040902055565b6109a3611a7a565b6040517f10ddb13700000000000000000000000000000000000000000000000000000000815261ffff821660048201527f000000000000000000000000000000000000000000000000000000000000000073ffffffffffffffffffffffffffffffffffffffff16906310ddb13790602401610947565b61ffff831660009081526001602052604081208054829190610a3a90612614565b80601f0160208091040260200160405190810160405280929190818152602001828054610a6690612614565b8015610ab35780601f10610a8857610100808354040283529160200191610ab3565b820191906000526020600020905b815481529060010190602001808311610a9657829003601f168201915b505050505090508383604051610aca929190612667565b60405180910390208180519060200120149150509392505050565b610aed611a7a565b6040517f42d65a8d00000000000000000000000000000000000000000000000000000000815273ffffffffffffffffffffffffffffffffffffffff7f000000000000000000000000000000000000000000000000000000000000000016906342d65a8d90610b63908690869086906004016126a2565b600060405180830381600087803b158015610b7d57600080fd5b505af11580156108c4573d6000803e3d6000fd5b610b99611a7a565b6040517f096568f60000000000000000000000000000000000000000000000000000000081523060048201526006907f000000000000000000000000000000000000000000000000000000000000000073ffffffffffffffffffffffffffffffffffffffff169063cbed8b9c90829063096568f690602401602060405180830381865afa158015610c2e573d6000803e3d6000fd5b505050506040513d601f19601f82011682018060405250810190610c5291906126c0565b6040805173ffffffffffffffffffffffffffffffffffffffff8716602082015287918691016040516020818303038152906040526040518563ffffffff1660e01b8152600401610b6394939291906126dd565b6040517f70a0823100000000000000000000000000000000000000000000000000000000815233600482015260009073ffffffffffffffffffffffffffffffffffffffff8316906370a0823190602401602060405180830381865afa158015610d12573d6000803e3d6000fd5b505050506040513d601f19601f82011682018060405250810190610d369190612714565b60408051336020820181905273ffffffffffffffffffffffffffffffffffffffff86168284015260608083018590528351808403909101815260a08301909352600060809092018281529394509192610d93928792859234611ae1565b50505050565b333014610e0e5760405162461bcd60e51b815260206004820152602660248201527f4e6f6e626c6f636b696e674c7a4170703a2063616c6c6572206d75737420626560448201527f204c7a417070000000000000000000000000000000000000000000000000000060648201526084016106f9565b610e848686868080601f01602080910402602001604051908101604052809392919081815260200183838082843760009201919091525050604080516020601f890181900481028201810190925287815289935091508790879081908401838280828437600092019190915250611cba92505050565b505050505050565b6040517f70a082310000000000000000000000000000000000000000000000000000000081523360048201526000908190819073ffffffffffffffffffffffffffffffffffffffff8516906370a0823190602401602060405180830381865afa158015610efd573d6000803e3d6000fd5b505050506040513d601f19601f82011682018060405250810190610f219190612714565b6040805133602082015273ffffffffffffffffffffffffffffffffffffffff8781168284015260608083018590528351808403909101815260808301938490527f40a7bb100000000000000000000000000000000000000000000000000000000090935292935090917f000000000000000000000000000000000000000000000000000000000000000016906340a7bb1090610fcb908c90309086908e908e908e9060840161272d565b6040805180830381865afa158015610fe7573d6000803e3d6000fd5b505050506040513d601f19601f8201168201806040525081019061100b919061278e565b9350935050509550959350505050565b611023611a7a565b61102d6000611d73565b565b6001602052600090815260409020805461104890612614565b80601f016020809104026020016040519081016040528092919081815260200182805461107490612614565b80156110c15780601f10611096576101008083540402835291602001916110c1565b820191906000526020600020905b8154815290600101906020018083116110a457829003601f168201915b505050505081565b61ffff81166000908152600160205260408120805460609291906110ec90612614565b80601f016020809104026020016040519081016040528092919081815260200182805461111890612614565b80156111655780601f1061113a57610100808354040283529160200191611165565b820191906000526020600020905b81548152906001019060200180831161114857829003601f168201915b5050505050905080516000036111bd5760405162461bcd60e51b815260206004820152601d60248201527f4c7a4170703a206e6f20747275737465642070617468207265636f726400000060448201526064016106f9565b6111d86000601483516111d091906127e1565b839190611de8565b9392505050565b6111e7611a7a565b8181306040516020016111fc939291906127fa565b60408051601f1981840301815291815261ffff85166000908152600160205220906112279082612879565b507f8c0400cfe2d1199b1a725c78960bcc2a344d869b80590d0f2bd005db15a572ce83838360405161125b939291906126a2565b60405180910390a1505050565b611270611a7a565b600480547fffffffffffffffffffffffff00000000000000000000000000000000000000001673ffffffffffffffffffffffffffffffffffffffff83169081179091556040519081527f5db758e995a17ec1ad84bdef7e8c3293a0bd6179bcce400dff5d4c3d87db726b9060200160405180910390a150565b6112f1611a7a565b6040517fcbed8b9c00000000000000000000000000000000000000000000000000000000815273ffffffffffffffffffffffffffffffffffffffff7f0000000000000000000000000000000000000000000000000000000000000000169063cbed8b9c9061136b9088908890889088908890600401612975565b600060405180830381600087803b15801561138557600080fd5b505af1158015611399573d6000803e3d6000fd5b505050505050505050565b61ffff861660009081526005602052604080822090516113c79088908890612667565b908152604080516020928190038301902067ffffffffffffffff8716600090815292529020549050806114625760405162461bcd60e51b815260206004820152602360248201527f4e6f6e626c6f636b696e674c7a4170703a206e6f2073746f726564206d65737360448201527f616765000000000000000000000000000000000000000000000000000000000060648201526084016106f9565b808383604051611473929190612667565b6040518091039020146114ee5760405162461bcd60e51b815260206004820152602160248201527f4e6f6e626c6f636b696e674c7a4170703a20696e76616c6964207061796c6f6160448201527f640000000000000000000000000000000000000000000000000000000000000060648201526084016106f9565b61ffff871660009081526005602052604080822090516115119089908990612667565b908152604080516020928190038301812067ffffffffffffffff8916600090815290845282902093909355601f880182900482028301820190528682526115aa918991899089908190840183828082843760009201919091525050604080516020601f8a018190048102820181019092528881528a935091508890889081908401838280828437600092019190915250611cba92505050565b7fc264d91f3adc5588250e1551f547752ca0cfa8f6b530d243b9f9f4cab10ea8e587878787856040516115e19594939291906129ae565b60405180910390a150505050505050565b6115fa611a7a565b6000811161164a5760405162461bcd60e51b815260206004820152601560248201527f4c7a4170703a20696e76616c6964206d696e476173000000000000000000000060448201526064016106f9565b61ffff83811660008181526002602090815260408083209487168084529482529182902085905581519283528201929092529081018290527f9d5c7c0b934da8fefa9c7760c98383778a12dfbfc0c3b3106518f43fb9508ac09060600161125b565b6040517f096568f6000000000000000000000000000000000000000000000000000000008152306004820152600090819073ffffffffffffffffffffffffffffffffffffffff7f0000000000000000000000000000000000000000000000000000000000000000169063f5ecbdbc90829063096568f690602401602060405180830381865afa158015611743573d6000803e3d6000fd5b505050506040513d601f19601f8201168201806040525081019061176791906126c0565b6040517fffffffff0000000000000000000000000000000000000000000000000000000060e084901b16815261ffff9182166004820152908616602482015230604482015260066064820152608401600060405180830381865afa1580156117d3573d6000803e3d6000fd5b505050506040513d6000823e601f3d908101601f191682016040526117fb91908101906129ea565b602001519392505050565b61180e611a7a565b61ffff8316600090815260016020526040902061182c828483612a58565b507ffa41487ad5d6728f0b19276fa1eddc16558578f5109fc39d2dc33c3230470dab83838360405161125b939291906126a2565b611868611a7a565b73ffffffffffffffffffffffffffffffffffffffff81166118f15760405162461bcd60e51b815260206004820152602660248201527f4f776e61626c653a206e6577206f776e657220697320746865207a65726f206160448201527f646472657373000000000000000000000000000000000000000000000000000060648201526084016106f9565b6118fa81611d73565b50565b6040517ff5ecbdbc00000000000000000000000000000000000000000000000000000000815261ffff808616600483015284166024820152306044820152606481018290526060907f000000000000000000000000000000000000000000000000000000000000000073ffffffffffffffffffffffffffffffffffffffff169063f5ecbdbc90608401600060405180830381865afa1580156119a3573d6000803e3d6000fd5b505050506040513d6000823e601f3d908101601f191682016040526119cb91908101906129ea565b95945050505050565b600080611a645a60966366ad5c8a60e01b898989896040516024016119fc9493929190612b54565b60408051601f198184030181529190526020810180517bffffffffffffffffffffffffffffffffffffffffffffffffffffffff167fffffffff000000000000000000000000000000000000000000000000000000009093169290921790915230929190611f10565b9150915081610e8457610e848686868685611f9b565b60005473ffffffffffffffffffffffffffffffffffffffff16331461102d5760405162461bcd60e51b815260206004820181905260248201527f4f776e61626c653a2063616c6c6572206973206e6f7420746865206f776e657260448201526064016106f9565b61ffff861660009081526001602052604081208054611aff90612614565b80601f0160208091040260200160405190810160405280929190818152602001828054611b2b90612614565b8015611b785780601f10611b4d57610100808354040283529160200191611b78565b820191906000526020600020905b815481529060010190602001808311611b5b57829003601f168201915b505050505090508051600003611bf65760405162461bcd60e51b815260206004820152603060248201527f4c7a4170703a2064657374696e6174696f6e20636861696e206973206e6f742060448201527f61207472757374656420736f757263650000000000000000000000000000000060648201526084016106f9565b611c01878751612039565b6040517fc580310000000000000000000000000000000000000000000000000000000000815273ffffffffffffffffffffffffffffffffffffffff7f0000000000000000000000000000000000000000000000000000000000000000169063c5803100908490611c7f908b9086908c908c908c908c90600401612b93565b6000604051808303818588803b158015611c9857600080fd5b505af1158015611cac573d6000803e3d6000fd5b505050505050505050505050565b60008082806020019051810190611cd19190612bfa565b6040517f70a0823100000000000000000000000000000000000000000000000000000000815273ffffffffffffffffffffffffffffffffffffffff8084166004830152929450909250908216906370a0823190602401602060405180830381865afa158015611d44573d6000803e3d6000fd5b505050506040513d601f19601f82011682018060405250810190611d689190612714565b600755505050505050565b6000805473ffffffffffffffffffffffffffffffffffffffff8381167fffffffffffffffffffffffff0000000000000000000000000000000000000000831681178455604051919092169283917f8be0079c531659141344cd1fd0a4f28419497f9722a3daafe3b4186f6b6457e09190a35050565b606081611df681601f612c29565b1015611e445760405162461bcd60e51b815260206004820152600e60248201527f736c6963655f6f766572666c6f7700000000000000000000000000000000000060448201526064016106f9565b611e4e8284612c29565b84511015611e9e5760405162461bcd60e51b815260206004820152601160248201527f736c6963655f6f75744f66426f756e647300000000000000000000000000000060448201526064016106f9565b606082158015611ebd5760405191506000825260208201604052611f07565b6040519150601f8416801560200281840101858101878315602002848b0101015b81831015611ef6578051835260209283019201611ede565b5050858452601f01601f1916604052505b50949350505050565b6000606060008060008661ffff1667ffffffffffffffff811115611f3657611f366122b4565b6040519080825280601f01601f191660200182016040528015611f60576020820181803683370190505b50905060008087516020890160008d8df191503d925086831115611f82578692505b828152826000602083013e909890975095505050505050565b8180519060200120600560008761ffff1661ffff16815260200190815260200160002085604051611fcc9190612c3c565b90815260408051918290036020908101832067ffffffffffffffff88166000908152915220919091557fe183f33de2837795525b4792ca4cd60535bd77c53b7e7030060bfcf5734d6b0c9061202a9087908790879087908790612c58565b60405180910390a15050505050565b61ffff82166000908152600360205260408120549081900361205a57506127105b808211156120aa5760405162461bcd60e51b815260206004820181905260248201527f4c7a4170703a207061796c6f61642073697a6520697320746f6f206c6172676560448201526064016106f9565b505050565b61ffff811681146118fa57600080fd5b60008083601f8401126120d157600080fd5b50813567ffffffffffffffff8111156120e957600080fd5b60208301915083602082850101111561210157600080fd5b9250929050565b803567ffffffffffffffff8116811461212057600080fd5b919050565b6000806000806000806080878903121561213e57600080fd5b8635612149816120af565b9550602087013567ffffffffffffffff8082111561216657600080fd5b6121728a838b016120bf565b909750955085915061218660408a01612108565b9450606089013591508082111561219c57600080fd5b506121a989828a016120bf565b979a9699509497509295939492505050565b6000602082840312156121cd57600080fd5b81356111d8816120af565b600080604083850312156121eb57600080fd5b82356121f6816120af565b946020939093013593505050565b60008060006040848603121561221957600080fd5b8335612224816120af565b9250602084013567ffffffffffffffff81111561224057600080fd5b61224c868287016120bf565b9497909650939450505050565b73ffffffffffffffffffffffffffffffffffffffff811681146118fa57600080fd5b6000806040838503121561228e57600080fd5b8235612299816120af565b915060208301356122a981612259565b809150509250929050565b7f4e487b7100000000000000000000000000000000000000000000000000000000600052604160045260246000fd5b604051601f8201601f1916810167ffffffffffffffff8111828210171561230c5761230c6122b4565b604052919050565b600067ffffffffffffffff82111561232e5761232e6122b4565b50601f01601f191660200190565b60008060006060848603121561235157600080fd5b833561235c816120af565b9250602084013567ffffffffffffffff81111561237857600080fd5b8401601f8101861361238957600080fd5b803561239c61239782612314565b6122e3565b8181528760208385010111156123b157600080fd5b816020840160208301376000602083830101528094505050506123d660408501612108565b90509250925092565b6000806000806000608086880312156123f757600080fd5b8535612402816120af565b94506020860135801515811461241757600080fd5b9350604086013567ffffffffffffffff81111561243357600080fd5b61243f888289016120bf565b909450925050606086013561245381612259565b809150509295509295909350565b60005b8381101561247c578181015183820152602001612464565b50506000910152565b6000815180845261249d816020860160208601612461565b601f01601f19169290920160200192915050565b6020815260006111d86020830184612485565b600080604083850312156124d757600080fd5b82356124e2816120af565b915060208301356122a9816120af565b60006020828403121561250457600080fd5b81356111d881612259565b60008060008060006080868803121561252757600080fd5b8535612532816120af565b94506020860135612542816120af565b935060408601359250606086013567ffffffffffffffff81111561256557600080fd5b612571888289016120bf565b969995985093965092949392505050565b60008060006060848603121561259757600080fd5b83356125a2816120af565b925060208401356125b2816120af565b929592945050506040919091013590565b600080600080608085870312156125d957600080fd5b84356125e4816120af565b935060208501356125f4816120af565b9250604085013561260481612259565b9396929550929360600135925050565b600181811c9082168061262857607f821691505b602082108103612661577f4e487b7100000000000000000000000000000000000000000000000000000000600052602260045260246000fd5b50919050565b8183823760009101908152919050565b818352818160208501375060006020828401015260006020601f19601f840116840101905092915050565b61ffff841681526040602082015260006119cb604083018486612677565b6000602082840312156126d257600080fd5b81516111d8816120af565b600061ffff80871683528086166020840152508360408301526080606083015261270a6080830184612485565b9695505050505050565b60006020828403121561272657600080fd5b5051919050565b61ffff8716815273ffffffffffffffffffffffffffffffffffffffff8616602082015260a06040820152600061276660a0830187612485565b85151560608401528281036080840152612781818587612677565b9998505050505050505050565b600080604083850312156127a157600080fd5b505080516020909101519092909150565b7f4e487b7100000000000000000000000000000000000000000000000000000000600052601160045260246000fd5b818103818111156127f4576127f46127b2565b92915050565b8284823760609190911b7fffffffffffffffffffffffffffffffffffffffff000000000000000000000000169101908152601401919050565b601f8211156120aa57600081815260208120601f850160051c8101602086101561285a5750805b601f850160051c820191505b81811015610e8457828155600101612866565b815167ffffffffffffffff811115612893576128936122b4565b6128a7816128a18454612614565b84612833565b602080601f8311600181146128fa57600084156128c45750858301515b7fffffffffffffffffffffffffffffffffffffffffffffffffffffffffffffffff600386901b1c1916600185901b178555610e84565b600085815260208120601f198616915b828110156129295788860151825594840194600190910190840161290a565b508582101561296557878501517fffffffffffffffffffffffffffffffffffffffffffffffffffffffffffffffff600388901b60f8161c191681555b5050505050600190811b01905550565b600061ffff8088168352808716602084015250846040830152608060608301526129a3608083018486612677565b979650505050505050565b61ffff861681526080602082015260006129cc608083018688612677565b67ffffffffffffffff94909416604083015250606001529392505050565b6000602082840312156129fc57600080fd5b815167ffffffffffffffff811115612a1357600080fd5b8201601f81018413612a2457600080fd5b8051612a3261239782612314565b818152856020838501011115612a4757600080fd5b6119cb826020830160208601612461565b67ffffffffffffffff831115612a7057612a706122b4565b612a8483612a7e8354612614565b83612833565b6000601f841160018114612ad65760008515612aa05750838201355b7fffffffffffffffffffffffffffffffffffffffffffffffffffffffffffffffff600387901b1c1916600186901b178355610975565b600083815260209020601f19861690835b82811015612b075786850135825560209485019460019092019101612ae7565b5086821015612b42577fffffffffffffffffffffffffffffffffffffffffffffffffffffffffffffffff60f88860031b161c19848701351681555b505060018560011b0183555050505050565b61ffff85168152608060208201526000612b716080830186612485565b67ffffffffffffffff8516604084015282810360608401526129a38185612485565b61ffff8716815260c060208201526000612bb060c0830188612485565b8281036040840152612bc28188612485565b73ffffffffffffffffffffffffffffffffffffffff87811660608601528616608085015283810360a085015290506127818185612485565b60008060408385031215612c0d57600080fd5b8251612c1881612259565b60208401519092506122a981612259565b808201808211156127f4576127f46127b2565b60008251612c4e818460208701612461565b9190910192915050565b61ffff8616815260a060208201526000612c7560a0830187612485565b67ffffffffffffffff861660408401528281036060840152612c978186612485565b90508281036080840152612cab8185612485565b9897505050505050505056fea164736f6c6343000813000a",
    "linkReferences": {}
  },
  "methodIdentifiers": {
    "DEFAULT_PAYLOAD_SIZE_LIMIT()": "c4461834",
    "campaignToken()": "9089c4a5",
    "estimateFee(uint16,bool,bytes,address)": "6ec673aa",
    "failedMessages(uint16,bytes,uint64)": "5b8c41e6",
    "forceResumeReceive(uint16,bytes)": "42d65a8d",
    "getConfig(uint16,uint16,address,uint256)": "f5ecbdbc",
    "getOracle(uint16)": "e2f28824",
    "getTrustedRemoteAddress(uint16)": "9f38369a",
    "isTrustedRemote(uint16,bytes)": "3d8b38f6",
    "lzEndpoint()": "b353aaa7",
    "lzReceive(uint16,bytes,uint64,bytes)": "001d3567",
    "minDstGasLookup(uint16,uint16)": "8cfd8f5c",
    "nonblockingLzReceive(uint16,bytes,uint64,bytes)": "66ad5c8a",
    "owner()": "8da5cb5b",
    "payloadSizeLimitLookup(uint16)": "3f1f4fa4",
    "precrime()": "950c8a74",
    "renounceOwnership()": "715018a6",
    "retryMessage(uint16,bytes,uint64,bytes)": "d1deba1f",
    "send(uint16,address)": "5934d9f5",
    "setConfig(uint16,uint16,uint256,bytes)": "cbed8b9c",
    "setMinDstGas(uint16,uint16,uint256)": "df2a5b3b",
    "setOracle(uint16,address)": "492e527e",
    "setPayloadSizeLimit(uint16,uint256)": "0df37483",
    "setPrecrime(address)": "baf3292d",
    "setReceiveVersion(uint16)": "10ddb137",
    "setSendVersion(uint16)": "07e0db17",
    "setTrustedRemote(uint16,bytes)": "eb8d72b7",
    "setTrustedRemoteAddress(uint16,bytes)": "a6c3d165",
    "tokenBalance()": "9e1a4d19",
    "transferOwnership(address)": "f2fde38b",
    "trustedRemoteLookup(uint16)": "7533d788"
  },
  "id": 36
}